{
	"data": {
		"bytecode": {
			"linkReferences": {},
			"object": "608060405234801561000f575f80fd5b5060405161489b38038061489b8339818101604052810190610031919061034d565b8181815f908161004191906105d0565b50806001908161005191906105d0565b5050506100665f801b3361009f60201b60201c565b506100977fa49807205ce4d355092ef5a8a18f56e8913cf4a201fbe287825b095693c217753361009f60201b60201c565b50505061069f565b5f6100b0838361019560201b60201c565b61018b57600160065f8581526020019081526020015f205f015f8473ffffffffffffffffffffffffffffffffffffffff1673ffffffffffffffffffffffffffffffffffffffff1681526020019081526020015f205f6101000a81548160ff0219169083151502179055506101286101f960201b60201c565b73ffffffffffffffffffffffffffffffffffffffff168273ffffffffffffffffffffffffffffffffffffffff16847f2f8788117e7eff1d82e926ec794901d17c78024a50270940304540a733656f0d60405160405180910390a46001905061018f565b5f90505b92915050565b5f60065f8481526020019081526020015f205f015f8373ffffffffffffffffffffffffffffffffffffffff1673ffffffffffffffffffffffffffffffffffffffff1681526020019081526020015f205f9054906101000a900460ff16905092915050565b5f33905090565b5f604051905090565b5f80fd5b5f80fd5b5f80fd5b5f80fd5b5f601f19601f8301169050919050565b7f4e487b71000000000000000000000000000000000000000000000000000000005f52604160045260245ffd5b61025f82610219565b810181811067ffffffffffffffff8211171561027e5761027d610229565b5b80604052505050565b5f610290610200565b905061029c8282610256565b919050565b5f67ffffffffffffffff8211156102bb576102ba610229565b5b6102c482610219565b9050602081019050919050565b8281835e5f83830152505050565b5f6102f16102ec846102a1565b610287565b90508281526020810184848401111561030d5761030c610215565b5b6103188482856102d1565b509392505050565b5f82601f83011261033457610333610211565b5b81516103448482602086016102df565b91505092915050565b5f806040838503121561036357610362610209565b5b5f83015167ffffffffffffffff8111156103805761037f61020d565b5b61038c85828601610320565b925050602083015167ffffffffffffffff8111156103ad576103ac61020d565b5b6103b985828601610320565b9150509250929050565b5f81519050919050565b7f4e487b71000000000000000000000000000000000000000000000000000000005f52602260045260245ffd5b5f600282049050600182168061041157607f821691505b602082108103610424576104236103cd565b5b50919050565b5f819050815f5260205f209050919050565b5f6020601f8301049050919050565b5f82821b905092915050565b5f600883026104867fffffffffffffffffffffffffffffffffffffffffffffffffffffffffffffffff8261044b565b610490868361044b565b95508019841693508086168417925050509392505050565b5f819050919050565b5f819050919050565b5f6104d46104cf6104ca846104a8565b6104b1565b6104a8565b9050919050565b5f819050919050565b6104ed836104ba565b6105016104f9826104db565b848454610457565b825550505050565b5f90565b610515610509565b6105208184846104e4565b505050565b5b81811015610543576105385f8261050d565b600181019050610526565b5050565b601f821115610588576105598161042a565b6105628461043c565b81016020851015610571578190505b61058561057d8561043c565b830182610525565b50505b505050565b5f82821c905092915050565b5f6105a85f198460080261058d565b1980831691505092915050565b5f6105c08383610599565b9150826002028217905092915050565b6105d9826103c3565b67ffffffffffffffff8111156105f2576105f1610229565b5b6105fc82546103fa565b610607828285610547565b5f60209050601f831160018114610638575f8415610626578287015190505b61063085826105b5565b865550610697565b601f1984166106468661042a565b5f5b8281101561066d57848901518255600182019150602085019450602081019050610648565b8683101561068a5784890151610686601f891682610599565b8355505b6001600288020188555050505b505050505050565b6141ef806106ac5f395ff3fe608060405234801561000f575f80fd5b5060043610610224575f3560e01c806382367b2d1161012e578063b88d4fde116100b6578063df4596cd1161007a578063df4596cd146106e9578063e985e9c514610705578063f8b20e3e14610735578063fb14c44214610765578063fe5c873a1461079557610224565b8063b88d4fde14610645578063c49baebe14610661578063c87b56dd1461067f578063d5391393146106af578063d547741f146106cd57610224565b806392976179116100fd57806392976179146105a157806395d89b41146105d1578063983b2d56146105ef578063a217fddf1461060b578063a22cb4651461062957610224565b806382367b2d146104ec5780638becf2b4146105085780638c2109751461053857806391d148541461057157610224565b80633092afd5116101b157806356ab1bac1161018057806356ab1bac1461040e5780636352211e1461043e57806370a082311461046e57806375b238fc1461049e5780637743007d146104bc57610224565b80633092afd51461038a57806336568abe146103a657806342842e0e146103c257806351cf04b8146103de57610224565b8063095ea7b3116101f8578063095ea7b3146102d657806323b872dd146102f2578063248a9ca31461030e5780632b093f951461033e5780632f2ff15d1461036e57610224565b8062923f9e1461022857806301ffc9a71461025857806306fdde0314610288578063081812fc146102a6575b5f80fd5b610242600480360381019061023d9190612c46565b6107b1565b60405161024f9190612c8b565b60405180910390f35b610272600480360381019061026d9190612cf9565b61083c565b60405161027f9190612c8b565b60405180910390f35b61029061084d565b60405161029d9190612d94565b60405180910390f35b6102c060048036038101906102bb9190612c46565b6108dc565b6040516102cd9190612df3565b60405180910390f35b6102f060048036038101906102eb9190612e36565b6108f7565b005b61030c60048036038101906103079190612e74565b61090d565b005b61032860048036038101906103239190612ef7565b610a0c565b6040516103359190612f31565b60405180910390f35b61035860048036038101906103539190612c46565b610a29565b6040516103659190612fbd565b60405180910390f35b61038860048036038101906103839190612fd6565b610a9b565b005b6103a4600480360381019061039f9190613014565b610abd565b005b6103c060048036038101906103bb9190612fd6565b610b15565b005b6103dc60048036038101906103d79190612e74565b610b90565b005b6103f860048036038101906103f39190612c46565b610baf565b6040516104059190612c8b565b60405180910390f35b61042860048036038101906104239190612c46565b610bd8565b6040516104359190612c8b565b60405180910390f35b61045860048036038101906104539190612c46565b610c01565b6040516104659190612df3565b60405180910390f35b61048860048036038101906104839190613014565b610c12565b604051610495919061304e565b60405180910390f35b6104a6610cc8565b6040516104b39190612f31565b60405180910390f35b6104d660048036038101906104d19190612c46565b610cec565b6040516104e3919061304e565b60405180910390f35b61050660048036038101906105019190613067565b610d09565b005b610522600480360381019061051d91906130a5565b610e1d565b60405161052f9190612c8b565b60405180910390f35b610552600480360381019061054d9190612c46565b610ed7565b6040516105689a999897969594939291906130e3565b60405180910390f35b61058b60048036038101906105869190612fd6565b611009565b6040516105989190612c8b565b60405180910390f35b6105bb60048036038101906105b69190612c46565b61106d565b6040516105c8919061304e565b60405180910390f35b6105d96110d2565b6040516105e69190612d94565b60405180910390f35b61060960048036038101906106049190613014565b611162565b005b6106136111ba565b6040516106209190612f31565b60405180910390f35b610643600480360381019061063e91906131ae565b6111c0565b005b61065f600480360381019061065a9190613318565b6111d6565b005b6106696111fb565b6040516106769190612f31565b60405180910390f35b61069960048036038101906106949190612c46565b61121f565b6040516106a69190612d94565b60405180910390f35b6106b761130a565b6040516106c49190612f31565b60405180910390f35b6106e760048036038101906106e29190612fd6565b61132e565b005b61070360048036038101906106fe9190612c46565b611350565b005b61071f600480360381019061071a9190613398565b611701565b60405161072c9190612c8b565b60405180910390f35b61074f600480360381019061074a919061355b565b61178f565b60405161075c919061304e565b60405180910390f35b61077f600480360381019061077a9190612c46565b611a67565b60405161078c9190612c8b565b60405180910390f35b6107af60048036038101906107aa9190612c46565b611a90565b005b5f3073ffffffffffffffffffffffffffffffffffffffff16636352211e836040518263ffffffff1660e01b81526004016107eb919061304e565b602060405180830381865afa92505050801561082557506040513d601f19601f820116820180604052508101906108229190613658565b60015b610831575f9050610837565b60019150505b919050565b5f61084682611d80565b9050919050565b60605f805461085b906136b0565b80601f0160208091040260200160405190810160405280929190818152602001828054610887906136b0565b80156108d25780601f106108a9576101008083540402835291602001916108d2565b820191905f5260205f20905b8154815290600101906020018083116108b557829003601f168201915b5050505050905090565b5f6108e682611df9565b506108f082611e7f565b9050919050565b6109098282610904611eb8565b611ebf565b5050565b5f73ffffffffffffffffffffffffffffffffffffffff168273ffffffffffffffffffffffffffffffffffffffff160361097d575f6040517f64a0ae920000000000000000000000000000000000000000000000000000000081526004016109749190612df3565b60405180910390fd5b5f610990838361098b611eb8565b611ed1565b90508373ffffffffffffffffffffffffffffffffffffffff168173ffffffffffffffffffffffffffffffffffffffff1614610a06578382826040517f64283d7b0000000000000000000000000000000000000000000000000000000081526004016109fd939291906136e0565b60405180910390fd5b50505050565b5f60065f8381526020019081526020015f20600101549050919050565b5f610a33826107b1565b610a72576040517f08c379a0000000000000000000000000000000000000000000000000000000008152600401610a699061375f565b60405180910390fd5b60085f8381526020019081526020015f20600a0160019054906101000a900460ff169050919050565b610aa482610a0c565b610aad816120dc565b610ab783836120f0565b50505050565b7fa49807205ce4d355092ef5a8a18f56e8913cf4a201fbe287825b095693c21775610ae7816120dc565b610b117f9f2df0fed2c77648de5860a4cc508cd0818c85b8b8a1ab4ceeef8d981c8956a68361132e565b5050565b610b1d611eb8565b73ffffffffffffffffffffffffffffffffffffffff168173ffffffffffffffffffffffffffffffffffffffff1614610b81576040517f6697b23200000000000000000000000000000000000000000000000000000000815260040160405180910390fd5b610b8b82826121da565b505050565b610baa83838360405180602001604052805f8152506111d6565b505050565b5f60085f8381526020019081526020015f20600a015f9054906101000a900460ff169050919050565b5f60085f8381526020019081526020015f206008015f9054906101000a900460ff169050919050565b5f610c0b82611df9565b9050919050565b5f8073ffffffffffffffffffffffffffffffffffffffff168273ffffffffffffffffffffffffffffffffffffffff1603610c83575f6040517f89c62b64000000000000000000000000000000000000000000000000000000008152600401610c7a9190612df3565b60405180910390fd5b60035f8373ffffffffffffffffffffffffffffffffffffffff1673ffffffffffffffffffffffffffffffffffffffff1681526020019081526020015f20549050919050565b7fa49807205ce4d355092ef5a8a18f56e8913cf4a201fbe287825b095693c2177581565b5f60085f8381526020019081526020015f20600501549050919050565b610d12826107b1565b610d51576040517f08c379a0000000000000000000000000000000000000000000000000000000008152600401610d489061375f565b60405180910390fd5b3373ffffffffffffffffffffffffffffffffffffffff16610d7183610c01565b73ffffffffffffffffffffffffffffffffffffffff1614610dc7576040517f08c379a0000000000000000000000000000000000000000000000000000000008152600401610dbe906137c7565b60405180910390fd5b8060085f8481526020019081526020015f20600901819055507f945c1c4e99aa89f648fbfe3df471b916f719e16d960fcec0737d4d56bd6968388282604051610e119291906137e5565b60405180910390a15050565b5f8060085f8581526020019081526020015f2090505f5b8160070180549050811015610ecb578373ffffffffffffffffffffffffffffffffffffffff16826007018281548110610e7057610e6f61380c565b5b905f5260205f20015f9054906101000a900473ffffffffffffffffffffffffffffffffffffffff1673ffffffffffffffffffffffffffffffffffffffff1603610ebe57600192505050610ed1565b8080600101915050610e34565b505f9150505b92915050565b6008602052805f5260405f205f91509050805f018054610ef6906136b0565b80601f0160208091040260200160405190810160405280929190818152602001828054610f22906136b0565b8015610f6d5780601f10610f4457610100808354040283529160200191610f6d565b820191905f5260205f20905b815481529060010190602001808311610f5057829003601f168201915b505050505090806001015f9054906101000a900473ffffffffffffffffffffffffffffffffffffffff1690806002015490806004015f9054906101000a900460ff1690806005015490806006015f9054906101000a900460ff1690806008015f9054906101000a900460ff169080600901549080600a015f9054906101000a900460ff169080600a0160019054906101000a900460ff1690508a565b5f60065f8481526020019081526020015f205f015f8373ffffffffffffffffffffffffffffffffffffffff1673ffffffffffffffffffffffffffffffffffffffff1681526020019081526020015f205f9054906101000a900460ff16905092915050565b5f611077826107b1565b6110b6576040517f08c379a00000000000000000000000000000000000000000000000000000000081526004016110ad9061375f565b60405180910390fd5b60085f8381526020019081526020015f20600901549050919050565b6060600180546110e1906136b0565b80601f016020809104026020016040519081016040528092919081815260200182805461110d906136b0565b80156111585780601f1061112f57610100808354040283529160200191611158565b820191905f5260205f20905b81548152906001019060200180831161113b57829003601f168201915b5050505050905090565b7fa49807205ce4d355092ef5a8a18f56e8913cf4a201fbe287825b095693c2177561118c816120dc565b6111b67f9f2df0fed2c77648de5860a4cc508cd0818c85b8b8a1ab4ceeef8d981c8956a683610a9b565b5050565b5f801b81565b6111d26111cb611eb8565b83836122c4565b5050565b6111e184848461090d565b6111f56111ec611eb8565b8585858561242d565b50505050565b7f21702c8af46127c7fa207f89d0b0a8441bb32959a0ac7df790e9ab1a25c9892681565b606061122a826107b1565b611269576040517f08c379a000000000000000000000000000000000000000000000000000000000815260040161126090613883565b60405180910390fd5b60085f8381526020019081526020015f205f018054611287906136b0565b80601f01602080910402602001604051908101604052809291908181526020018280546112b3906136b0565b80156112fe5780601f106112d5576101008083540402835291602001916112fe565b820191905f5260205f20905b8154815290600101906020018083116112e157829003601f168201915b50505050509050919050565b7f9f2df0fed2c77648de5860a4cc508cd0818c85b8b8a1ab4ceeef8d981c8956a681565b61133782610a0c565b611340816120dc565b61134a83836121da565b50505050565b5f60085f8381526020019081526020015f209050806004015f9054906101000a900460ff16156113b5576040517f08c379a00000000000000000000000000000000000000000000000000000000081526004016113ac906138eb565b60405180910390fd5b806003015f3373ffffffffffffffffffffffffffffffffffffffff1673ffffffffffffffffffffffffffffffffffffffff1681526020019081526020015f205f9054906101000a900460ff1615611441576040517f08c379a000000000000000000000000000000000000000000000000000000000815260040161143890613953565b60405180910390fd5b806006015f9054906101000a900460ff16156114a5576114618233610e1d565b6114a0576040517f08c379a0000000000000000000000000000000000000000000000000000000008152600401611497906139e1565b60405180910390fd5b61150f565b6114cf7f21702c8af46127c7fa207f89d0b0a8441bb32959a0ac7df790e9ab1a25c9892633611009565b61150e576040517f08c379a000000000000000000000000000000000000000000000000000000000815260040161150590613a49565b60405180910390fd5b5b6001816003015f3373ffffffffffffffffffffffffffffffffffffffff1673ffffffffffffffffffffffffffffffffffffffff1681526020019081526020015f205f6101000a81548160ff021916908315150217905550806005015f81548092919061157a90613a94565b91905055507f0de711b03bc2acf4829dfbf9dd0df283bce2b8e631b695bc088bdf766913d6b482336040516115b0929190613adb565b60405180910390a180600201548160050154106116fd576001816004015f6101000a81548160ff0219169083151502179055507fe356835f1c6d336b4ecbfd9fe7fa95b2a438c4886030921a2b99c3540d6c8ce082604051611612919061304e565b60405180910390a15f600281111561162d5761162c612f4a565b5b81600a0160019054906101000a900460ff16600281111561165157611650612f4a565b5b036116fc57611683816001015f9054906101000a900473ffffffffffffffffffffffffffffffffffffffff16836125d9565b600181600a015f6101000a81548160ff0219169083151502179055507fec5f0dee1fc3c7beab746dbd5883eee3f1c9bc07fe02dd318c553c5243f52fea82826001015f9054906101000a900473ffffffffffffffffffffffffffffffffffffffff166040516116f3929190613adb565b60405180910390a15b5b5050565b5f60055f8473ffffffffffffffffffffffffffffffffffffffff1673ffffffffffffffffffffffffffffffffffffffff1681526020019081526020015f205f8373ffffffffffffffffffffffffffffffffffffffff1673ffffffffffffffffffffffffffffffffffffffff1681526020019081526020015f205f9054906101000a900460ff16905092915050565b5f7f9f2df0fed2c77648de5860a4cc508cd0818c85b8b8a1ab4ceeef8d981c8956a66117ba816120dc565b5f88116117fc576040517f08c379a00000000000000000000000000000000000000000000000000000000081526004016117f390613b72565b60405180910390fd5b8615611847578786511015611846576040517f08c379a000000000000000000000000000000000000000000000000000000000815260040161183d90613bda565b60405180910390fd5b5b61185160076126cc565b5f61185c60076126e0565b90505f60085f8381526020019081526020015f2090508a815f0190816118829190613d95565b508b816001015f6101000a81548173ffffffffffffffffffffffffffffffffffffffff021916908373ffffffffffffffffffffffffffffffffffffffff1602179055508981600201819055505f816004015f6101000a81548160ff0219169083151502179055505f816005018190555088816006015f6101000a81548160ff02191690831515021790555086816008015f6101000a81548160ff0219169083151502179055508581600901819055505f81600a015f6101000a81548160ff0219169083151502179055508481600a0160016101000a81548160ff0219169083600281111561197357611972612f4a565b5b02179055508815611a14575f5b8851811015611a1257816007018982815181106119a05761199f61380c565b5b6020026020010151908060018154018082558091505060019003905f5260205f20015f9091909190916101000a81548173ffffffffffffffffffffffffffffffffffffffff021916908373ffffffffffffffffffffffffffffffffffffffff1602179055508080600101915050611980565b505b7f6b8bb8c374dfcf2768ba2b71259c3abb489efedf312ef7365d82f88e2d688096828d8d8a8a8a604051611a4d96959493929190613e64565b60405180910390a181935050505098975050505050505050565b5f60085f8381526020019081526020015f206004015f9054906101000a900460ff169050919050565b5f60085f8381526020019081526020015f209050806004015f9054906101000a900460ff16611af4576040517f08c379a0000000000000000000000000000000000000000000000000000000008152600401611aeb90613f14565b60405180910390fd5b80600a015f9054906101000a900460ff1615611b45576040517f08c379a0000000000000000000000000000000000000000000000000000000008152600401611b3c90613f7c565b60405180910390fd5b60016002811115611b5957611b58612f4a565b5b81600a0160019054906101000a900460ff166002811115611b7d57611b7c612f4a565b5b03611c1857806001015f9054906101000a900473ffffffffffffffffffffffffffffffffffffffff1673ffffffffffffffffffffffffffffffffffffffff163373ffffffffffffffffffffffffffffffffffffffff1614611c13576040517f08c379a0000000000000000000000000000000000000000000000000000000008152600401611c0a9061400a565b60405180910390fd5b611cd7565b600280811115611c2b57611c2a612f4a565b5b81600a0160019054906101000a900460ff166002811115611c4f57611c4e612f4a565b5b03611c9b5733816001015f6101000a81548173ffffffffffffffffffffffffffffffffffffffff021916908373ffffffffffffffffffffffffffffffffffffffff160217905550611cd6565b6040517f08c379a0000000000000000000000000000000000000000000000000000000008152600401611ccd90614072565b60405180910390fd5b5b611d04816001015f9054906101000a900473ffffffffffffffffffffffffffffffffffffffff16836125d9565b600181600a015f6101000a81548160ff0219169083151502179055507fec5f0dee1fc3c7beab746dbd5883eee3f1c9bc07fe02dd318c553c5243f52fea82826001015f9054906101000a900473ffffffffffffffffffffffffffffffffffffffff16604051611d74929190613adb565b60405180910390a15050565b5f7f7965db0b000000000000000000000000000000000000000000000000000000007bffffffffffffffffffffffffffffffffffffffffffffffffffffffff1916827bffffffffffffffffffffffffffffffffffffffffffffffffffffffff19161480611df25750611df1826126ec565b5b9050919050565b5f80611e04836127cd565b90505f73ffffffffffffffffffffffffffffffffffffffff168173ffffffffffffffffffffffffffffffffffffffff1603611e7657826040517f7e273289000000000000000000000000000000000000000000000000000000008152600401611e6d919061304e565b60405180910390fd5b80915050919050565b5f60045f8381526020019081526020015f205f9054906101000a900473ffffffffffffffffffffffffffffffffffffffff169050919050565b5f33905090565b611ecc8383836001612806565b505050565b5f80611edc846127cd565b90505f73ffffffffffffffffffffffffffffffffffffffff168373ffffffffffffffffffffffffffffffffffffffff1614611f1d57611f1c8184866129c5565b5b5f73ffffffffffffffffffffffffffffffffffffffff168173ffffffffffffffffffffffffffffffffffffffff1614611fa857611f5c5f855f80612806565b600160035f8373ffffffffffffffffffffffffffffffffffffffff1673ffffffffffffffffffffffffffffffffffffffff1681526020019081526020015f205f82825403925050819055505b5f73ffffffffffffffffffffffffffffffffffffffff168573ffffffffffffffffffffffffffffffffffffffff161461202757600160035f8773ffffffffffffffffffffffffffffffffffffffff1673ffffffffffffffffffffffffffffffffffffffff1681526020019081526020015f205f82825401925050819055505b8460025f8681526020019081526020015f205f6101000a81548173ffffffffffffffffffffffffffffffffffffffff021916908373ffffffffffffffffffffffffffffffffffffffff160217905550838573ffffffffffffffffffffffffffffffffffffffff168273ffffffffffffffffffffffffffffffffffffffff167fddf252ad1be2c89b69c2b068fc378daa952ba7f163c4a11628f55a4df523b3ef60405160405180910390a4809150509392505050565b6120ed816120e8611eb8565b612a88565b50565b5f6120fb8383611009565b6121d057600160065f8581526020019081526020015f205f015f8473ffffffffffffffffffffffffffffffffffffffff1673ffffffffffffffffffffffffffffffffffffffff1681526020019081526020015f205f6101000a81548160ff02191690831515021790555061216d611eb8565b73ffffffffffffffffffffffffffffffffffffffff168273ffffffffffffffffffffffffffffffffffffffff16847f2f8788117e7eff1d82e926ec794901d17c78024a50270940304540a733656f0d60405160405180910390a4600190506121d4565b5f90505b92915050565b5f6121e58383611009565b156122ba575f60065f8581526020019081526020015f205f015f8473ffffffffffffffffffffffffffffffffffffffff1673ffffffffffffffffffffffffffffffffffffffff1681526020019081526020015f205f6101000a81548160ff021916908315150217905550612257611eb8565b73ffffffffffffffffffffffffffffffffffffffff168273ffffffffffffffffffffffffffffffffffffffff16847ff6391f5c32d9c69d2a47ea670b442974b53935d1edc7fd64eb21e047a839171b60405160405180910390a4600190506122be565b5f90505b92915050565b5f73ffffffffffffffffffffffffffffffffffffffff168273ffffffffffffffffffffffffffffffffffffffff160361233457816040517f5b08ba1800000000000000000000000000000000000000000000000000000000815260040161232b9190612df3565b60405180910390fd5b8060055f8573ffffffffffffffffffffffffffffffffffffffff1673ffffffffffffffffffffffffffffffffffffffff1681526020019081526020015f205f8473ffffffffffffffffffffffffffffffffffffffff1673ffffffffffffffffffffffffffffffffffffffff1681526020019081526020015f205f6101000a81548160ff0219169083151502179055508173ffffffffffffffffffffffffffffffffffffffff168373ffffffffffffffffffffffffffffffffffffffff167f17307eab39ab6107e8899845ad3d59bd9653f200f220920489ca2b5937696c31836040516124209190612c8b565b60405180910390a3505050565b5f8373ffffffffffffffffffffffffffffffffffffffff163b11156125d2578273ffffffffffffffffffffffffffffffffffffffff1663150b7a02868685856040518563ffffffff1660e01b815260040161248b94939291906140e2565b6020604051808303815f875af19250505080156124c657506040513d601f19601f820116820180604052508101906124c39190614140565b60015b612547573d805f81146124f4576040519150601f19603f3d011682016040523d82523d5f602084013e6124f9565b606091505b505f81510361253f57836040517f64a0ae920000000000000000000000000000000000000000000000000000000081526004016125369190612df3565b60405180910390fd5b805181602001fd5b63150b7a0260e01b7bffffffffffffffffffffffffffffffffffffffffffffffffffffffff1916817bffffffffffffffffffffffffffffffffffffffffffffffffffffffff1916146125d057836040517f64a0ae920000000000000000000000000000000000000000000000000000000081526004016125c79190612df3565b60405180910390fd5b505b5050505050565b5f73ffffffffffffffffffffffffffffffffffffffff168273ffffffffffffffffffffffffffffffffffffffff1603612649575f6040517f64a0ae920000000000000000000000000000000000000000000000000000000081526004016126409190612df3565b60405180910390fd5b5f61265583835f611ed1565b90505f73ffffffffffffffffffffffffffffffffffffffff168173ffffffffffffffffffffffffffffffffffffffff16146126c7575f6040517f73c6ac6e0000000000000000000000000000000000000000000000000000000081526004016126be9190612df3565b60405180910390fd5b505050565b6001815f015f828254019250508190555050565b5f815f01549050919050565b5f7f80ac58cd000000000000000000000000000000000000000000000000000000007bffffffffffffffffffffffffffffffffffffffffffffffffffffffff1916827bffffffffffffffffffffffffffffffffffffffffffffffffffffffff191614806127b657507f5b5e139f000000000000000000000000000000000000000000000000000000007bffffffffffffffffffffffffffffffffffffffffffffffffffffffff1916827bffffffffffffffffffffffffffffffffffffffffffffffffffffffff1916145b806127c657506127c582612ad9565b5b9050919050565b5f60025f8381526020019081526020015f205f9054906101000a900473ffffffffffffffffffffffffffffffffffffffff169050919050565b808061283e57505f73ffffffffffffffffffffffffffffffffffffffff168273ffffffffffffffffffffffffffffffffffffffff1614155b15612970575f61284d84611df9565b90505f73ffffffffffffffffffffffffffffffffffffffff168373ffffffffffffffffffffffffffffffffffffffff16141580156128b757508273ffffffffffffffffffffffffffffffffffffffff168173ffffffffffffffffffffffffffffffffffffffff1614155b80156128ca57506128c88184611701565b155b1561290c57826040517fa9fbf51f0000000000000000000000000000000000000000000000000000000081526004016129039190612df3565b60405180910390fd5b811561296e57838573ffffffffffffffffffffffffffffffffffffffff168273ffffffffffffffffffffffffffffffffffffffff167f8c5be1e5ebec7d5bd14f71427d1e84f3dd0314c0f7b2291e5b200ac8c7c3b92560405160405180910390a45b505b8360045f8581526020019081526020015f205f6101000a81548173ffffffffffffffffffffffffffffffffffffffff021916908373ffffffffffffffffffffffffffffffffffffffff16021790555050505050565b6129d0838383612b42565b612a83575f73ffffffffffffffffffffffffffffffffffffffff168373ffffffffffffffffffffffffffffffffffffffff1603612a4457806040517f7e273289000000000000000000000000000000000000000000000000000000008152600401612a3b919061304e565b60405180910390fd5b81816040517f177e802f000000000000000000000000000000000000000000000000000000008152600401612a7a92919061416b565b60405180910390fd5b505050565b612a928282611009565b612ad55780826040517fe2517d3f000000000000000000000000000000000000000000000000000000008152600401612acc929190614192565b60405180910390fd5b5050565b5f7f01ffc9a7000000000000000000000000000000000000000000000000000000007bffffffffffffffffffffffffffffffffffffffffffffffffffffffff1916827bffffffffffffffffffffffffffffffffffffffffffffffffffffffff1916149050919050565b5f8073ffffffffffffffffffffffffffffffffffffffff168373ffffffffffffffffffffffffffffffffffffffff1614158015612bf957508273ffffffffffffffffffffffffffffffffffffffff168473ffffffffffffffffffffffffffffffffffffffff161480612bba5750612bb98484611701565b5b80612bf857508273ffffffffffffffffffffffffffffffffffffffff16612be083611e7f565b73ffffffffffffffffffffffffffffffffffffffff16145b5b90509392505050565b5f604051905090565b5f80fd5b5f80fd5b5f819050919050565b612c2581612c13565b8114612c2f575f80fd5b50565b5f81359050612c4081612c1c565b92915050565b5f60208284031215612c5b57612c5a612c0b565b5b5f612c6884828501612c32565b91505092915050565b5f8115159050919050565b612c8581612c71565b82525050565b5f602082019050612c9e5f830184612c7c565b92915050565b5f7fffffffff0000000000000000000000000000000000000000000000000000000082169050919050565b612cd881612ca4565b8114612ce2575f80fd5b50565b5f81359050612cf381612ccf565b92915050565b5f60208284031215612d0e57612d0d612c0b565b5b5f612d1b84828501612ce5565b91505092915050565b5f81519050919050565b5f82825260208201905092915050565b8281835e5f83830152505050565b5f601f19601f8301169050919050565b5f612d6682612d24565b612d708185612d2e565b9350612d80818560208601612d3e565b612d8981612d4c565b840191505092915050565b5f6020820190508181035f830152612dac8184612d5c565b905092915050565b5f73ffffffffffffffffffffffffffffffffffffffff82169050919050565b5f612ddd82612db4565b9050919050565b612ded81612dd3565b82525050565b5f602082019050612e065f830184612de4565b92915050565b612e1581612dd3565b8114612e1f575f80fd5b50565b5f81359050612e3081612e0c565b92915050565b5f8060408385031215612e4c57612e4b612c0b565b5b5f612e5985828601612e22565b9250506020612e6a85828601612c32565b9150509250929050565b5f805f60608486031215612e8b57612e8a612c0b565b5b5f612e9886828701612e22565b9350506020612ea986828701612e22565b9250506040612eba86828701612c32565b9150509250925092565b5f819050919050565b612ed681612ec4565b8114612ee0575f80fd5b50565b5f81359050612ef181612ecd565b92915050565b5f60208284031215612f0c57612f0b612c0b565b5b5f612f1984828501612ee3565b91505092915050565b612f2b81612ec4565b82525050565b5f602082019050612f445f830184612f22565b92915050565b7f4e487b71000000000000000000000000000000000000000000000000000000005f52602160045260245ffd5b60038110612f8857612f87612f4a565b5b50565b5f819050612f9882612f77565b919050565b5f612fa782612f8b565b9050919050565b612fb781612f9d565b82525050565b5f602082019050612fd05f830184612fae565b92915050565b5f8060408385031215612fec57612feb612c0b565b5b5f612ff985828601612ee3565b925050602061300a85828601612e22565b9150509250929050565b5f6020828403121561302957613028612c0b565b5b5f61303684828501612e22565b91505092915050565b61304881612c13565b82525050565b5f6020820190506130615f83018461303f565b92915050565b5f806040838503121561307d5761307c612c0b565b5b5f61308a85828601612c32565b925050602061309b85828601612c32565b9150509250929050565b5f80604083850312156130bb576130ba612c0b565b5b5f6130c885828601612c32565b92505060206130d985828601612e22565b9150509250929050565b5f610140820190508181035f8301526130fc818d612d5c565b905061310b602083018c612de4565b613118604083018b61303f565b613125606083018a612c7c565b613132608083018961303f565b61313f60a0830188612c7c565b61314c60c0830187612c7c565b61315960e083018661303f565b613167610100830185612c7c565b613175610120830184612fae565b9b9a5050505050505050505050565b61318d81612c71565b8114613197575f80fd5b50565b5f813590506131a881613184565b92915050565b5f80604083850312156131c4576131c3612c0b565b5b5f6131d185828601612e22565b92505060206131e28582860161319a565b9150509250929050565b5f80fd5b5f80fd5b7f4e487b71000000000000000000000000000000000000000000000000000000005f52604160045260245ffd5b61322a82612d4c565b810181811067ffffffffffffffff82111715613249576132486131f4565b5b80604052505050565b5f61325b612c02565b90506132678282613221565b919050565b5f67ffffffffffffffff821115613286576132856131f4565b5b61328f82612d4c565b9050602081019050919050565b828183375f83830152505050565b5f6132bc6132b78461326c565b613252565b9050828152602081018484840111156132d8576132d76131f0565b5b6132e384828561329c565b509392505050565b5f82601f8301126132ff576132fe6131ec565b5b813561330f8482602086016132aa565b91505092915050565b5f805f80608085870312156133305761332f612c0b565b5b5f61333d87828801612e22565b945050602061334e87828801612e22565b935050604061335f87828801612c32565b925050606085013567ffffffffffffffff8111156133805761337f612c0f565b5b61338c878288016132eb565b91505092959194509250565b5f80604083850312156133ae576133ad612c0b565b5b5f6133bb85828601612e22565b92505060206133cc85828601612e22565b9150509250929050565b5f67ffffffffffffffff8211156133f0576133ef6131f4565b5b6133f982612d4c565b9050602081019050919050565b5f613418613413846133d6565b613252565b905082815260208101848484011115613434576134336131f0565b5b61343f84828561329c565b509392505050565b5f82601f83011261345b5761345a6131ec565b5b813561346b848260208601613406565b91505092915050565b5f67ffffffffffffffff82111561348e5761348d6131f4565b5b602082029050602081019050919050565b5f80fd5b5f6134b56134b084613474565b613252565b905080838252602082019050602084028301858111156134d8576134d761349f565b5b835b8181101561350157806134ed8882612e22565b8452602084019350506020810190506134da565b5050509392505050565b5f82601f83011261351f5761351e6131ec565b5b813561352f8482602086016134a3565b91505092915050565b60038110613544575f80fd5b50565b5f8135905061355581613538565b92915050565b5f805f805f805f80610100898b03121561357857613577612c0b565b5b5f6135858b828c01612e22565b985050602089013567ffffffffffffffff8111156135a6576135a5612c0f565b5b6135b28b828c01613447565b97505060406135c38b828c01612c32565b96505060606135d48b828c0161319a565b955050608089013567ffffffffffffffff8111156135f5576135f4612c0f565b5b6136018b828c0161350b565b94505060a06136128b828c0161319a565b93505060c06136238b828c01612c32565b92505060e06136348b828c01613547565b9150509295985092959890939650565b5f8151905061365281612e0c565b92915050565b5f6020828403121561366d5761366c612c0b565b5b5f61367a84828501613644565b91505092915050565b7f4e487b71000000000000000000000000000000000000000000000000000000005f52602260045260245ffd5b5f60028204905060018216806136c757607f821691505b6020821081036136da576136d9613683565b5b50919050565b5f6060820190506136f35f830186612de4565b613700602083018561303f565b61370d6040830184612de4565b949350505050565b7f4e465420646f6573206e6f7420657869737400000000000000000000000000005f82015250565b5f613749601283612d2e565b915061375482613715565b602082019050919050565b5f6020820190508181035f8301526137768161373d565b9050919050565b7f4f6e6c79206f776e65722063616e2075706461746520707269636500000000005f82015250565b5f6137b1601b83612d2e565b91506137bc8261377d565b602082019050919050565b5f6020820190508181035f8301526137de816137a5565b9050919050565b5f6040820190506137f85f83018561303f565b613805602083018461303f565b9392505050565b7f4e487b71000000000000000000000000000000000000000000000000000000005f52603260045260245ffd5b7f546f6b656e20646f6573206e6f742065786973740000000000000000000000005f82015250565b5f61386d601483612d2e565b915061387882613839565b602082019050919050565b5f6020820190508181035f83015261389a81613861565b9050919050565b7f4e465420616c72656164792076616c69646174656400000000000000000000005f82015250565b5f6138d5601583612d2e565b91506138e0826138a1565b602082019050919050565b5f6020820190508181035f830152613902816138c9565b9050919050565b7f416c7265616479207369676e656420627920746869732076616c696461746f725f82015250565b5f61393d602083612d2e565b915061394882613909565b602082019050919050565b5f6020820190508181035f83015261396a81613931565b9050919050565b7f4e6f74206120637573746f6d2076616c696461746f7220666f722074686973205f8201527f4e46540000000000000000000000000000000000000000000000000000000000602082015250565b5f6139cb602383612d2e565b91506139d682613971565b604082019050919050565b5f6020820190508181035f8301526139f8816139bf565b9050919050565b7f4d75737420686176652076616c696461746f7220726f6c6500000000000000005f82015250565b5f613a33601883612d2e565b9150613a3e826139ff565b602082019050919050565b5f6020820190508181035f830152613a6081613a27565b9050919050565b7f4e487b71000000000000000000000000000000000000000000000000000000005f52601160045260245ffd5b5f613a9e82612c13565b91507fffffffffffffffffffffffffffffffffffffffffffffffffffffffffffffffff8203613ad057613acf613a67565b5b600182019050919050565b5f604082019050613aee5f83018561303f565b613afb6020830184612de4565b9392505050565b7f5265717569726564207369676e617475726573206d75737420626520677265615f8201527f746572207468616e203000000000000000000000000000000000000000000000602082015250565b5f613b5c602a83612d2e565b9150613b6782613b02565b604082019050919050565b5f6020820190508181035f830152613b8981613b50565b9050919050565b7f4e6f7420656e6f75676820637573746f6d2076616c696461746f7273000000005f82015250565b5f613bc4601c83612d2e565b9150613bcf82613b90565b602082019050919050565b5f6020820190508181035f830152613bf181613bb8565b9050919050565b5f819050815f5260205f209050919050565b5f6020601f8301049050919050565b5f82821b905092915050565b5f60088302613c547fffffffffffffffffffffffffffffffffffffffffffffffffffffffffffffffff82613c19565b613c5e8683613c19565b95508019841693508086168417925050509392505050565b5f819050919050565b5f613c99613c94613c8f84612c13565b613c76565b612c13565b9050919050565b5f819050919050565b613cb283613c7f565b613cc6613cbe82613ca0565b848454613c25565b825550505050565b5f90565b613cda613cce565b613ce5818484613ca9565b505050565b5b81811015613d0857613cfd5f82613cd2565b600181019050613ceb565b5050565b601f821115613d4d57613d1e81613bf8565b613d2784613c0a565b81016020851015613d36578190505b613d4a613d4285613c0a565b830182613cea565b50505b505050565b5f82821c905092915050565b5f613d6d5f1984600802613d52565b1980831691505092915050565b5f613d858383613d5e565b9150826002028217905092915050565b613d9e82612d24565b67ffffffffffffffff811115613db757613db66131f4565b5b613dc182546136b0565b613dcc828285613d0c565b5f60209050601f831160018114613dfd575f8415613deb578287015190505b613df58582613d7a565b865550613e5c565b601f198416613e0b86613bf8565b5f5b82811015613e3257848901518255600182019150602085019450602081019050613e0d565b86831015613e4f5784890151613e4b601f891682613d5e565b8355505b6001600288020188555050505b505050505050565b5f60c082019050613e775f83018961303f565b613e846020830188612de4565b8181036040830152613e968187612d5c565b9050613ea56060830186612c7c565b613eb2608083018561303f565b613ebf60a0830184612fae565b979650505050505050565b7f4e4654206e6f74207965742076616c69646174656400000000000000000000005f82015250565b5f613efe601583612d2e565b9150613f0982613eca565b602082019050919050565b5f6020820190508181035f830152613f2b81613ef2565b9050919050565b7f4e465420616c726561647920636c61696d6564000000000000000000000000005f82015250565b5f613f66601383612d2e565b9150613f7182613f32565b602082019050919050565b5f6020820190508181035f830152613f9381613f5a565b9050919050565b7f4f6e6c792064657369676e6174656420726563697069656e742063616e20636c5f8201527f61696d0000000000000000000000000000000000000000000000000000000000602082015250565b5f613ff4602383612d2e565b9150613fff82613f9a565b604082019050919050565b5f6020820190508181035f83015261402181613fe8565b9050919050565b7f4e4654206973206e6f7420636c61696d61626c650000000000000000000000005f82015250565b5f61405c601483612d2e565b915061406782614028565b602082019050919050565b5f6020820190508181035f83015261408981614050565b9050919050565b5f81519050919050565b5f82825260208201905092915050565b5f6140b482614090565b6140be818561409a565b93506140ce818560208601612d3e565b6140d781612d4c565b840191505092915050565b5f6080820190506140f55f830187612de4565b6141026020830186612de4565b61410f604083018561303f565b818103606083015261412181846140aa565b905095945050505050565b5f8151905061413a81612ccf565b92915050565b5f6020828403121561415557614154612c0b565b5b5f6141628482850161412c565b91505092915050565b5f60408201905061417e5f830185612de4565b61418b602083018461303f565b9392505050565b5f6040820190506141a55f830185612de4565b6141b26020830184612f22565b939250505056fea264697066735822122069765007a2bc862cd97f07df778a8bac0f988420e7adf8d3a3568781d6f1319064736f6c634300081a0033",
			"opcodes": "PUSH1 0x80 PUSH1 0x40 MSTORE CALLVALUE DUP1 ISZERO PUSH2 0xF JUMPI PUSH0 DUP1 REVERT JUMPDEST POP PUSH1 0x40 MLOAD PUSH2 0x489B CODESIZE SUB DUP1 PUSH2 0x489B DUP4 CODECOPY DUP2 DUP2 ADD PUSH1 0x40 MSTORE DUP2 ADD SWAP1 PUSH2 0x31 SWAP2 SWAP1 PUSH2 0x34D JUMP JUMPDEST DUP2 DUP2 DUP2 PUSH0 SWAP1 DUP2 PUSH2 0x41 SWAP2 SWAP1 PUSH2 0x5D0 JUMP JUMPDEST POP DUP1 PUSH1 0x1 SWAP1 DUP2 PUSH2 0x51 SWAP2 SWAP1 PUSH2 0x5D0 JUMP JUMPDEST POP POP POP PUSH2 0x66 PUSH0 DUP1 SHL CALLER PUSH2 0x9F PUSH1 0x20 SHL PUSH1 0x20 SHR JUMP JUMPDEST POP PUSH2 0x97 PUSH32 0xA49807205CE4D355092EF5A8A18F56E8913CF4A201FBE287825B095693C21775 CALLER PUSH2 0x9F PUSH1 0x20 SHL PUSH1 0x20 SHR JUMP JUMPDEST POP POP POP PUSH2 0x69F JUMP JUMPDEST PUSH0 PUSH2 0xB0 DUP4 DUP4 PUSH2 0x195 PUSH1 0x20 SHL PUSH1 0x20 SHR JUMP JUMPDEST PUSH2 0x18B JUMPI PUSH1 0x1 PUSH1 0x6 PUSH0 DUP6 DUP2 MSTORE PUSH1 0x20 ADD SWAP1 DUP2 MSTORE PUSH1 0x20 ADD PUSH0 KECCAK256 PUSH0 ADD PUSH0 DUP5 PUSH20 0xFFFFFFFFFFFFFFFFFFFFFFFFFFFFFFFFFFFFFFFF AND PUSH20 0xFFFFFFFFFFFFFFFFFFFFFFFFFFFFFFFFFFFFFFFF AND DUP2 MSTORE PUSH1 0x20 ADD SWAP1 DUP2 MSTORE PUSH1 0x20 ADD PUSH0 KECCAK256 PUSH0 PUSH2 0x100 EXP DUP2 SLOAD DUP2 PUSH1 0xFF MUL NOT AND SWAP1 DUP4 ISZERO ISZERO MUL OR SWAP1 SSTORE POP PUSH2 0x128 PUSH2 0x1F9 PUSH1 0x20 SHL PUSH1 0x20 SHR JUMP JUMPDEST PUSH20 0xFFFFFFFFFFFFFFFFFFFFFFFFFFFFFFFFFFFFFFFF AND DUP3 PUSH20 0xFFFFFFFFFFFFFFFFFFFFFFFFFFFFFFFFFFFFFFFF AND DUP5 PUSH32 0x2F8788117E7EFF1D82E926EC794901D17C78024A50270940304540A733656F0D PUSH1 0x40 MLOAD PUSH1 0x40 MLOAD DUP1 SWAP2 SUB SWAP1 LOG4 PUSH1 0x1 SWAP1 POP PUSH2 0x18F JUMP JUMPDEST PUSH0 SWAP1 POP JUMPDEST SWAP3 SWAP2 POP POP JUMP JUMPDEST PUSH0 PUSH1 0x6 PUSH0 DUP5 DUP2 MSTORE PUSH1 0x20 ADD SWAP1 DUP2 MSTORE PUSH1 0x20 ADD PUSH0 KECCAK256 PUSH0 ADD PUSH0 DUP4 PUSH20 0xFFFFFFFFFFFFFFFFFFFFFFFFFFFFFFFFFFFFFFFF AND PUSH20 0xFFFFFFFFFFFFFFFFFFFFFFFFFFFFFFFFFFFFFFFF AND DUP2 MSTORE PUSH1 0x20 ADD SWAP1 DUP2 MSTORE PUSH1 0x20 ADD PUSH0 KECCAK256 PUSH0 SWAP1 SLOAD SWAP1 PUSH2 0x100 EXP SWAP1 DIV PUSH1 0xFF AND SWAP1 POP SWAP3 SWAP2 POP POP JUMP JUMPDEST PUSH0 CALLER SWAP1 POP SWAP1 JUMP JUMPDEST PUSH0 PUSH1 0x40 MLOAD SWAP1 POP SWAP1 JUMP JUMPDEST PUSH0 DUP1 REVERT JUMPDEST PUSH0 DUP1 REVERT JUMPDEST PUSH0 DUP1 REVERT JUMPDEST PUSH0 DUP1 REVERT JUMPDEST PUSH0 PUSH1 0x1F NOT PUSH1 0x1F DUP4 ADD AND SWAP1 POP SWAP2 SWAP1 POP JUMP JUMPDEST PUSH32 0x4E487B7100000000000000000000000000000000000000000000000000000000 PUSH0 MSTORE PUSH1 0x41 PUSH1 0x4 MSTORE PUSH1 0x24 PUSH0 REVERT JUMPDEST PUSH2 0x25F DUP3 PUSH2 0x219 JUMP JUMPDEST DUP2 ADD DUP2 DUP2 LT PUSH8 0xFFFFFFFFFFFFFFFF DUP3 GT OR ISZERO PUSH2 0x27E JUMPI PUSH2 0x27D PUSH2 0x229 JUMP JUMPDEST JUMPDEST DUP1 PUSH1 0x40 MSTORE POP POP POP JUMP JUMPDEST PUSH0 PUSH2 0x290 PUSH2 0x200 JUMP JUMPDEST SWAP1 POP PUSH2 0x29C DUP3 DUP3 PUSH2 0x256 JUMP JUMPDEST SWAP2 SWAP1 POP JUMP JUMPDEST PUSH0 PUSH8 0xFFFFFFFFFFFFFFFF DUP3 GT ISZERO PUSH2 0x2BB JUMPI PUSH2 0x2BA PUSH2 0x229 JUMP JUMPDEST JUMPDEST PUSH2 0x2C4 DUP3 PUSH2 0x219 JUMP JUMPDEST SWAP1 POP PUSH1 0x20 DUP2 ADD SWAP1 POP SWAP2 SWAP1 POP JUMP JUMPDEST DUP3 DUP2 DUP4 MCOPY PUSH0 DUP4 DUP4 ADD MSTORE POP POP POP JUMP JUMPDEST PUSH0 PUSH2 0x2F1 PUSH2 0x2EC DUP5 PUSH2 0x2A1 JUMP JUMPDEST PUSH2 0x287 JUMP JUMPDEST SWAP1 POP DUP3 DUP2 MSTORE PUSH1 0x20 DUP2 ADD DUP5 DUP5 DUP5 ADD GT ISZERO PUSH2 0x30D JUMPI PUSH2 0x30C PUSH2 0x215 JUMP JUMPDEST JUMPDEST PUSH2 0x318 DUP5 DUP3 DUP6 PUSH2 0x2D1 JUMP JUMPDEST POP SWAP4 SWAP3 POP POP POP JUMP JUMPDEST PUSH0 DUP3 PUSH1 0x1F DUP4 ADD SLT PUSH2 0x334 JUMPI PUSH2 0x333 PUSH2 0x211 JUMP JUMPDEST JUMPDEST DUP2 MLOAD PUSH2 0x344 DUP5 DUP3 PUSH1 0x20 DUP7 ADD PUSH2 0x2DF JUMP JUMPDEST SWAP2 POP POP SWAP3 SWAP2 POP POP JUMP JUMPDEST PUSH0 DUP1 PUSH1 0x40 DUP4 DUP6 SUB SLT ISZERO PUSH2 0x363 JUMPI PUSH2 0x362 PUSH2 0x209 JUMP JUMPDEST JUMPDEST PUSH0 DUP4 ADD MLOAD PUSH8 0xFFFFFFFFFFFFFFFF DUP2 GT ISZERO PUSH2 0x380 JUMPI PUSH2 0x37F PUSH2 0x20D JUMP JUMPDEST JUMPDEST PUSH2 0x38C DUP6 DUP3 DUP7 ADD PUSH2 0x320 JUMP JUMPDEST SWAP3 POP POP PUSH1 0x20 DUP4 ADD MLOAD PUSH8 0xFFFFFFFFFFFFFFFF DUP2 GT ISZERO PUSH2 0x3AD JUMPI PUSH2 0x3AC PUSH2 0x20D JUMP JUMPDEST JUMPDEST PUSH2 0x3B9 DUP6 DUP3 DUP7 ADD PUSH2 0x320 JUMP JUMPDEST SWAP2 POP POP SWAP3 POP SWAP3 SWAP1 POP JUMP JUMPDEST PUSH0 DUP2 MLOAD SWAP1 POP SWAP2 SWAP1 POP JUMP JUMPDEST PUSH32 0x4E487B7100000000000000000000000000000000000000000000000000000000 PUSH0 MSTORE PUSH1 0x22 PUSH1 0x4 MSTORE PUSH1 0x24 PUSH0 REVERT JUMPDEST PUSH0 PUSH1 0x2 DUP3 DIV SWAP1 POP PUSH1 0x1 DUP3 AND DUP1 PUSH2 0x411 JUMPI PUSH1 0x7F DUP3 AND SWAP2 POP JUMPDEST PUSH1 0x20 DUP3 LT DUP2 SUB PUSH2 0x424 JUMPI PUSH2 0x423 PUSH2 0x3CD JUMP JUMPDEST JUMPDEST POP SWAP2 SWAP1 POP JUMP JUMPDEST PUSH0 DUP2 SWAP1 POP DUP2 PUSH0 MSTORE PUSH1 0x20 PUSH0 KECCAK256 SWAP1 POP SWAP2 SWAP1 POP JUMP JUMPDEST PUSH0 PUSH1 0x20 PUSH1 0x1F DUP4 ADD DIV SWAP1 POP SWAP2 SWAP1 POP JUMP JUMPDEST PUSH0 DUP3 DUP3 SHL SWAP1 POP SWAP3 SWAP2 POP POP JUMP JUMPDEST PUSH0 PUSH1 0x8 DUP4 MUL PUSH2 0x486 PUSH32 0xFFFFFFFFFFFFFFFFFFFFFFFFFFFFFFFFFFFFFFFFFFFFFFFFFFFFFFFFFFFFFFFF DUP3 PUSH2 0x44B JUMP JUMPDEST PUSH2 0x490 DUP7 DUP4 PUSH2 0x44B JUMP JUMPDEST SWAP6 POP DUP1 NOT DUP5 AND SWAP4 POP DUP1 DUP7 AND DUP5 OR SWAP3 POP POP POP SWAP4 SWAP3 POP POP POP JUMP JUMPDEST PUSH0 DUP2 SWAP1 POP SWAP2 SWAP1 POP JUMP JUMPDEST PUSH0 DUP2 SWAP1 POP SWAP2 SWAP1 POP JUMP JUMPDEST PUSH0 PUSH2 0x4D4 PUSH2 0x4CF PUSH2 0x4CA DUP5 PUSH2 0x4A8 JUMP JUMPDEST PUSH2 0x4B1 JUMP JUMPDEST PUSH2 0x4A8 JUMP JUMPDEST SWAP1 POP SWAP2 SWAP1 POP JUMP JUMPDEST PUSH0 DUP2 SWAP1 POP SWAP2 SWAP1 POP JUMP JUMPDEST PUSH2 0x4ED DUP4 PUSH2 0x4BA JUMP JUMPDEST PUSH2 0x501 PUSH2 0x4F9 DUP3 PUSH2 0x4DB JUMP JUMPDEST DUP5 DUP5 SLOAD PUSH2 0x457 JUMP JUMPDEST DUP3 SSTORE POP POP POP POP JUMP JUMPDEST PUSH0 SWAP1 JUMP JUMPDEST PUSH2 0x515 PUSH2 0x509 JUMP JUMPDEST PUSH2 0x520 DUP2 DUP5 DUP5 PUSH2 0x4E4 JUMP JUMPDEST POP POP POP JUMP JUMPDEST JUMPDEST DUP2 DUP2 LT ISZERO PUSH2 0x543 JUMPI PUSH2 0x538 PUSH0 DUP3 PUSH2 0x50D JUMP JUMPDEST PUSH1 0x1 DUP2 ADD SWAP1 POP PUSH2 0x526 JUMP JUMPDEST POP POP JUMP JUMPDEST PUSH1 0x1F DUP3 GT ISZERO PUSH2 0x588 JUMPI PUSH2 0x559 DUP2 PUSH2 0x42A JUMP JUMPDEST PUSH2 0x562 DUP5 PUSH2 0x43C JUMP JUMPDEST DUP2 ADD PUSH1 0x20 DUP6 LT ISZERO PUSH2 0x571 JUMPI DUP2 SWAP1 POP JUMPDEST PUSH2 0x585 PUSH2 0x57D DUP6 PUSH2 0x43C JUMP JUMPDEST DUP4 ADD DUP3 PUSH2 0x525 JUMP JUMPDEST POP POP JUMPDEST POP POP POP JUMP JUMPDEST PUSH0 DUP3 DUP3 SHR SWAP1 POP SWAP3 SWAP2 POP POP JUMP JUMPDEST PUSH0 PUSH2 0x5A8 PUSH0 NOT DUP5 PUSH1 0x8 MUL PUSH2 0x58D JUMP JUMPDEST NOT DUP1 DUP4 AND SWAP2 POP POP SWAP3 SWAP2 POP POP JUMP JUMPDEST PUSH0 PUSH2 0x5C0 DUP4 DUP4 PUSH2 0x599 JUMP JUMPDEST SWAP2 POP DUP3 PUSH1 0x2 MUL DUP3 OR SWAP1 POP SWAP3 SWAP2 POP POP JUMP JUMPDEST PUSH2 0x5D9 DUP3 PUSH2 0x3C3 JUMP JUMPDEST PUSH8 0xFFFFFFFFFFFFFFFF DUP2 GT ISZERO PUSH2 0x5F2 JUMPI PUSH2 0x5F1 PUSH2 0x229 JUMP JUMPDEST JUMPDEST PUSH2 0x5FC DUP3 SLOAD PUSH2 0x3FA JUMP JUMPDEST PUSH2 0x607 DUP3 DUP3 DUP6 PUSH2 0x547 JUMP JUMPDEST PUSH0 PUSH1 0x20 SWAP1 POP PUSH1 0x1F DUP4 GT PUSH1 0x1 DUP2 EQ PUSH2 0x638 JUMPI PUSH0 DUP5 ISZERO PUSH2 0x626 JUMPI DUP3 DUP8 ADD MLOAD SWAP1 POP JUMPDEST PUSH2 0x630 DUP6 DUP3 PUSH2 0x5B5 JUMP JUMPDEST DUP7 SSTORE POP PUSH2 0x697 JUMP JUMPDEST PUSH1 0x1F NOT DUP5 AND PUSH2 0x646 DUP7 PUSH2 0x42A JUMP JUMPDEST PUSH0 JUMPDEST DUP3 DUP2 LT ISZERO PUSH2 0x66D JUMPI DUP5 DUP10 ADD MLOAD DUP3 SSTORE PUSH1 0x1 DUP3 ADD SWAP2 POP PUSH1 0x20 DUP6 ADD SWAP5 POP PUSH1 0x20 DUP2 ADD SWAP1 POP PUSH2 0x648 JUMP JUMPDEST DUP7 DUP4 LT ISZERO PUSH2 0x68A JUMPI DUP5 DUP10 ADD MLOAD PUSH2 0x686 PUSH1 0x1F DUP10 AND DUP3 PUSH2 0x599 JUMP JUMPDEST DUP4 SSTORE POP JUMPDEST PUSH1 0x1 PUSH1 0x2 DUP9 MUL ADD DUP9 SSTORE POP POP POP JUMPDEST POP POP POP POP POP POP JUMP JUMPDEST PUSH2 0x41EF DUP1 PUSH2 0x6AC PUSH0 CODECOPY PUSH0 RETURN INVALID PUSH1 0x80 PUSH1 0x40 MSTORE CALLVALUE DUP1 ISZERO PUSH2 0xF JUMPI PUSH0 DUP1 REVERT JUMPDEST POP PUSH1 0x4 CALLDATASIZE LT PUSH2 0x224 JUMPI PUSH0 CALLDATALOAD PUSH1 0xE0 SHR DUP1 PUSH4 0x82367B2D GT PUSH2 0x12E JUMPI DUP1 PUSH4 0xB88D4FDE GT PUSH2 0xB6 JUMPI DUP1 PUSH4 0xDF4596CD GT PUSH2 0x7A JUMPI DUP1 PUSH4 0xDF4596CD EQ PUSH2 0x6E9 JUMPI DUP1 PUSH4 0xE985E9C5 EQ PUSH2 0x705 JUMPI DUP1 PUSH4 0xF8B20E3E EQ PUSH2 0x735 JUMPI DUP1 PUSH4 0xFB14C442 EQ PUSH2 0x765 JUMPI DUP1 PUSH4 0xFE5C873A EQ PUSH2 0x795 JUMPI PUSH2 0x224 JUMP JUMPDEST DUP1 PUSH4 0xB88D4FDE EQ PUSH2 0x645 JUMPI DUP1 PUSH4 0xC49BAEBE EQ PUSH2 0x661 JUMPI DUP1 PUSH4 0xC87B56DD EQ PUSH2 0x67F JUMPI DUP1 PUSH4 0xD5391393 EQ PUSH2 0x6AF JUMPI DUP1 PUSH4 0xD547741F EQ PUSH2 0x6CD JUMPI PUSH2 0x224 JUMP JUMPDEST DUP1 PUSH4 0x92976179 GT PUSH2 0xFD JUMPI DUP1 PUSH4 0x92976179 EQ PUSH2 0x5A1 JUMPI DUP1 PUSH4 0x95D89B41 EQ PUSH2 0x5D1 JUMPI DUP1 PUSH4 0x983B2D56 EQ PUSH2 0x5EF JUMPI DUP1 PUSH4 0xA217FDDF EQ PUSH2 0x60B JUMPI DUP1 PUSH4 0xA22CB465 EQ PUSH2 0x629 JUMPI PUSH2 0x224 JUMP JUMPDEST DUP1 PUSH4 0x82367B2D EQ PUSH2 0x4EC JUMPI DUP1 PUSH4 0x8BECF2B4 EQ PUSH2 0x508 JUMPI DUP1 PUSH4 0x8C210975 EQ PUSH2 0x538 JUMPI DUP1 PUSH4 0x91D14854 EQ PUSH2 0x571 JUMPI PUSH2 0x224 JUMP JUMPDEST DUP1 PUSH4 0x3092AFD5 GT PUSH2 0x1B1 JUMPI DUP1 PUSH4 0x56AB1BAC GT PUSH2 0x180 JUMPI DUP1 PUSH4 0x56AB1BAC EQ PUSH2 0x40E JUMPI DUP1 PUSH4 0x6352211E EQ PUSH2 0x43E JUMPI DUP1 PUSH4 0x70A08231 EQ PUSH2 0x46E JUMPI DUP1 PUSH4 0x75B238FC EQ PUSH2 0x49E JUMPI DUP1 PUSH4 0x7743007D EQ PUSH2 0x4BC JUMPI PUSH2 0x224 JUMP JUMPDEST DUP1 PUSH4 0x3092AFD5 EQ PUSH2 0x38A JUMPI DUP1 PUSH4 0x36568ABE EQ PUSH2 0x3A6 JUMPI DUP1 PUSH4 0x42842E0E EQ PUSH2 0x3C2 JUMPI DUP1 PUSH4 0x51CF04B8 EQ PUSH2 0x3DE JUMPI PUSH2 0x224 JUMP JUMPDEST DUP1 PUSH4 0x95EA7B3 GT PUSH2 0x1F8 JUMPI DUP1 PUSH4 0x95EA7B3 EQ PUSH2 0x2D6 JUMPI DUP1 PUSH4 0x23B872DD EQ PUSH2 0x2F2 JUMPI DUP1 PUSH4 0x248A9CA3 EQ PUSH2 0x30E JUMPI DUP1 PUSH4 0x2B093F95 EQ PUSH2 0x33E JUMPI DUP1 PUSH4 0x2F2FF15D EQ PUSH2 0x36E JUMPI PUSH2 0x224 JUMP JUMPDEST DUP1 PUSH3 0x923F9E EQ PUSH2 0x228 JUMPI DUP1 PUSH4 0x1FFC9A7 EQ PUSH2 0x258 JUMPI DUP1 PUSH4 0x6FDDE03 EQ PUSH2 0x288 JUMPI DUP1 PUSH4 0x81812FC EQ PUSH2 0x2A6 JUMPI JUMPDEST PUSH0 DUP1 REVERT JUMPDEST PUSH2 0x242 PUSH1 0x4 DUP1 CALLDATASIZE SUB DUP2 ADD SWAP1 PUSH2 0x23D SWAP2 SWAP1 PUSH2 0x2C46 JUMP JUMPDEST PUSH2 0x7B1 JUMP JUMPDEST PUSH1 0x40 MLOAD PUSH2 0x24F SWAP2 SWAP1 PUSH2 0x2C8B JUMP JUMPDEST PUSH1 0x40 MLOAD DUP1 SWAP2 SUB SWAP1 RETURN JUMPDEST PUSH2 0x272 PUSH1 0x4 DUP1 CALLDATASIZE SUB DUP2 ADD SWAP1 PUSH2 0x26D SWAP2 SWAP1 PUSH2 0x2CF9 JUMP JUMPDEST PUSH2 0x83C JUMP JUMPDEST PUSH1 0x40 MLOAD PUSH2 0x27F SWAP2 SWAP1 PUSH2 0x2C8B JUMP JUMPDEST PUSH1 0x40 MLOAD DUP1 SWAP2 SUB SWAP1 RETURN JUMPDEST PUSH2 0x290 PUSH2 0x84D JUMP JUMPDEST PUSH1 0x40 MLOAD PUSH2 0x29D SWAP2 SWAP1 PUSH2 0x2D94 JUMP JUMPDEST PUSH1 0x40 MLOAD DUP1 SWAP2 SUB SWAP1 RETURN JUMPDEST PUSH2 0x2C0 PUSH1 0x4 DUP1 CALLDATASIZE SUB DUP2 ADD SWAP1 PUSH2 0x2BB SWAP2 SWAP1 PUSH2 0x2C46 JUMP JUMPDEST PUSH2 0x8DC JUMP JUMPDEST PUSH1 0x40 MLOAD PUSH2 0x2CD SWAP2 SWAP1 PUSH2 0x2DF3 JUMP JUMPDEST PUSH1 0x40 MLOAD DUP1 SWAP2 SUB SWAP1 RETURN JUMPDEST PUSH2 0x2F0 PUSH1 0x4 DUP1 CALLDATASIZE SUB DUP2 ADD SWAP1 PUSH2 0x2EB SWAP2 SWAP1 PUSH2 0x2E36 JUMP JUMPDEST PUSH2 0x8F7 JUMP JUMPDEST STOP JUMPDEST PUSH2 0x30C PUSH1 0x4 DUP1 CALLDATASIZE SUB DUP2 ADD SWAP1 PUSH2 0x307 SWAP2 SWAP1 PUSH2 0x2E74 JUMP JUMPDEST PUSH2 0x90D JUMP JUMPDEST STOP JUMPDEST PUSH2 0x328 PUSH1 0x4 DUP1 CALLDATASIZE SUB DUP2 ADD SWAP1 PUSH2 0x323 SWAP2 SWAP1 PUSH2 0x2EF7 JUMP JUMPDEST PUSH2 0xA0C JUMP JUMPDEST PUSH1 0x40 MLOAD PUSH2 0x335 SWAP2 SWAP1 PUSH2 0x2F31 JUMP JUMPDEST PUSH1 0x40 MLOAD DUP1 SWAP2 SUB SWAP1 RETURN JUMPDEST PUSH2 0x358 PUSH1 0x4 DUP1 CALLDATASIZE SUB DUP2 ADD SWAP1 PUSH2 0x353 SWAP2 SWAP1 PUSH2 0x2C46 JUMP JUMPDEST PUSH2 0xA29 JUMP JUMPDEST PUSH1 0x40 MLOAD PUSH2 0x365 SWAP2 SWAP1 PUSH2 0x2FBD JUMP JUMPDEST PUSH1 0x40 MLOAD DUP1 SWAP2 SUB SWAP1 RETURN JUMPDEST PUSH2 0x388 PUSH1 0x4 DUP1 CALLDATASIZE SUB DUP2 ADD SWAP1 PUSH2 0x383 SWAP2 SWAP1 PUSH2 0x2FD6 JUMP JUMPDEST PUSH2 0xA9B JUMP JUMPDEST STOP JUMPDEST PUSH2 0x3A4 PUSH1 0x4 DUP1 CALLDATASIZE SUB DUP2 ADD SWAP1 PUSH2 0x39F SWAP2 SWAP1 PUSH2 0x3014 JUMP JUMPDEST PUSH2 0xABD JUMP JUMPDEST STOP JUMPDEST PUSH2 0x3C0 PUSH1 0x4 DUP1 CALLDATASIZE SUB DUP2 ADD SWAP1 PUSH2 0x3BB SWAP2 SWAP1 PUSH2 0x2FD6 JUMP JUMPDEST PUSH2 0xB15 JUMP JUMPDEST STOP JUMPDEST PUSH2 0x3DC PUSH1 0x4 DUP1 CALLDATASIZE SUB DUP2 ADD SWAP1 PUSH2 0x3D7 SWAP2 SWAP1 PUSH2 0x2E74 JUMP JUMPDEST PUSH2 0xB90 JUMP JUMPDEST STOP JUMPDEST PUSH2 0x3F8 PUSH1 0x4 DUP1 CALLDATASIZE SUB DUP2 ADD SWAP1 PUSH2 0x3F3 SWAP2 SWAP1 PUSH2 0x2C46 JUMP JUMPDEST PUSH2 0xBAF JUMP JUMPDEST PUSH1 0x40 MLOAD PUSH2 0x405 SWAP2 SWAP1 PUSH2 0x2C8B JUMP JUMPDEST PUSH1 0x40 MLOAD DUP1 SWAP2 SUB SWAP1 RETURN JUMPDEST PUSH2 0x428 PUSH1 0x4 DUP1 CALLDATASIZE SUB DUP2 ADD SWAP1 PUSH2 0x423 SWAP2 SWAP1 PUSH2 0x2C46 JUMP JUMPDEST PUSH2 0xBD8 JUMP JUMPDEST PUSH1 0x40 MLOAD PUSH2 0x435 SWAP2 SWAP1 PUSH2 0x2C8B JUMP JUMPDEST PUSH1 0x40 MLOAD DUP1 SWAP2 SUB SWAP1 RETURN JUMPDEST PUSH2 0x458 PUSH1 0x4 DUP1 CALLDATASIZE SUB DUP2 ADD SWAP1 PUSH2 0x453 SWAP2 SWAP1 PUSH2 0x2C46 JUMP JUMPDEST PUSH2 0xC01 JUMP JUMPDEST PUSH1 0x40 MLOAD PUSH2 0x465 SWAP2 SWAP1 PUSH2 0x2DF3 JUMP JUMPDEST PUSH1 0x40 MLOAD DUP1 SWAP2 SUB SWAP1 RETURN JUMPDEST PUSH2 0x488 PUSH1 0x4 DUP1 CALLDATASIZE SUB DUP2 ADD SWAP1 PUSH2 0x483 SWAP2 SWAP1 PUSH2 0x3014 JUMP JUMPDEST PUSH2 0xC12 JUMP JUMPDEST PUSH1 0x40 MLOAD PUSH2 0x495 SWAP2 SWAP1 PUSH2 0x304E JUMP JUMPDEST PUSH1 0x40 MLOAD DUP1 SWAP2 SUB SWAP1 RETURN JUMPDEST PUSH2 0x4A6 PUSH2 0xCC8 JUMP JUMPDEST PUSH1 0x40 MLOAD PUSH2 0x4B3 SWAP2 SWAP1 PUSH2 0x2F31 JUMP JUMPDEST PUSH1 0x40 MLOAD DUP1 SWAP2 SUB SWAP1 RETURN JUMPDEST PUSH2 0x4D6 PUSH1 0x4 DUP1 CALLDATASIZE SUB DUP2 ADD SWAP1 PUSH2 0x4D1 SWAP2 SWAP1 PUSH2 0x2C46 JUMP JUMPDEST PUSH2 0xCEC JUMP JUMPDEST PUSH1 0x40 MLOAD PUSH2 0x4E3 SWAP2 SWAP1 PUSH2 0x304E JUMP JUMPDEST PUSH1 0x40 MLOAD DUP1 SWAP2 SUB SWAP1 RETURN JUMPDEST PUSH2 0x506 PUSH1 0x4 DUP1 CALLDATASIZE SUB DUP2 ADD SWAP1 PUSH2 0x501 SWAP2 SWAP1 PUSH2 0x3067 JUMP JUMPDEST PUSH2 0xD09 JUMP JUMPDEST STOP JUMPDEST PUSH2 0x522 PUSH1 0x4 DUP1 CALLDATASIZE SUB DUP2 ADD SWAP1 PUSH2 0x51D SWAP2 SWAP1 PUSH2 0x30A5 JUMP JUMPDEST PUSH2 0xE1D JUMP JUMPDEST PUSH1 0x40 MLOAD PUSH2 0x52F SWAP2 SWAP1 PUSH2 0x2C8B JUMP JUMPDEST PUSH1 0x40 MLOAD DUP1 SWAP2 SUB SWAP1 RETURN JUMPDEST PUSH2 0x552 PUSH1 0x4 DUP1 CALLDATASIZE SUB DUP2 ADD SWAP1 PUSH2 0x54D SWAP2 SWAP1 PUSH2 0x2C46 JUMP JUMPDEST PUSH2 0xED7 JUMP JUMPDEST PUSH1 0x40 MLOAD PUSH2 0x568 SWAP11 SWAP10 SWAP9 SWAP8 SWAP7 SWAP6 SWAP5 SWAP4 SWAP3 SWAP2 SWAP1 PUSH2 0x30E3 JUMP JUMPDEST PUSH1 0x40 MLOAD DUP1 SWAP2 SUB SWAP1 RETURN JUMPDEST PUSH2 0x58B PUSH1 0x4 DUP1 CALLDATASIZE SUB DUP2 ADD SWAP1 PUSH2 0x586 SWAP2 SWAP1 PUSH2 0x2FD6 JUMP JUMPDEST PUSH2 0x1009 JUMP JUMPDEST PUSH1 0x40 MLOAD PUSH2 0x598 SWAP2 SWAP1 PUSH2 0x2C8B JUMP JUMPDEST PUSH1 0x40 MLOAD DUP1 SWAP2 SUB SWAP1 RETURN JUMPDEST PUSH2 0x5BB PUSH1 0x4 DUP1 CALLDATASIZE SUB DUP2 ADD SWAP1 PUSH2 0x5B6 SWAP2 SWAP1 PUSH2 0x2C46 JUMP JUMPDEST PUSH2 0x106D JUMP JUMPDEST PUSH1 0x40 MLOAD PUSH2 0x5C8 SWAP2 SWAP1 PUSH2 0x304E JUMP JUMPDEST PUSH1 0x40 MLOAD DUP1 SWAP2 SUB SWAP1 RETURN JUMPDEST PUSH2 0x5D9 PUSH2 0x10D2 JUMP JUMPDEST PUSH1 0x40 MLOAD PUSH2 0x5E6 SWAP2 SWAP1 PUSH2 0x2D94 JUMP JUMPDEST PUSH1 0x40 MLOAD DUP1 SWAP2 SUB SWAP1 RETURN JUMPDEST PUSH2 0x609 PUSH1 0x4 DUP1 CALLDATASIZE SUB DUP2 ADD SWAP1 PUSH2 0x604 SWAP2 SWAP1 PUSH2 0x3014 JUMP JUMPDEST PUSH2 0x1162 JUMP JUMPDEST STOP JUMPDEST PUSH2 0x613 PUSH2 0x11BA JUMP JUMPDEST PUSH1 0x40 MLOAD PUSH2 0x620 SWAP2 SWAP1 PUSH2 0x2F31 JUMP JUMPDEST PUSH1 0x40 MLOAD DUP1 SWAP2 SUB SWAP1 RETURN JUMPDEST PUSH2 0x643 PUSH1 0x4 DUP1 CALLDATASIZE SUB DUP2 ADD SWAP1 PUSH2 0x63E SWAP2 SWAP1 PUSH2 0x31AE JUMP JUMPDEST PUSH2 0x11C0 JUMP JUMPDEST STOP JUMPDEST PUSH2 0x65F PUSH1 0x4 DUP1 CALLDATASIZE SUB DUP2 ADD SWAP1 PUSH2 0x65A SWAP2 SWAP1 PUSH2 0x3318 JUMP JUMPDEST PUSH2 0x11D6 JUMP JUMPDEST STOP JUMPDEST PUSH2 0x669 PUSH2 0x11FB JUMP JUMPDEST PUSH1 0x40 MLOAD PUSH2 0x676 SWAP2 SWAP1 PUSH2 0x2F31 JUMP JUMPDEST PUSH1 0x40 MLOAD DUP1 SWAP2 SUB SWAP1 RETURN JUMPDEST PUSH2 0x699 PUSH1 0x4 DUP1 CALLDATASIZE SUB DUP2 ADD SWAP1 PUSH2 0x694 SWAP2 SWAP1 PUSH2 0x2C46 JUMP JUMPDEST PUSH2 0x121F JUMP JUMPDEST PUSH1 0x40 MLOAD PUSH2 0x6A6 SWAP2 SWAP1 PUSH2 0x2D94 JUMP JUMPDEST PUSH1 0x40 MLOAD DUP1 SWAP2 SUB SWAP1 RETURN JUMPDEST PUSH2 0x6B7 PUSH2 0x130A JUMP JUMPDEST PUSH1 0x40 MLOAD PUSH2 0x6C4 SWAP2 SWAP1 PUSH2 0x2F31 JUMP JUMPDEST PUSH1 0x40 MLOAD DUP1 SWAP2 SUB SWAP1 RETURN JUMPDEST PUSH2 0x6E7 PUSH1 0x4 DUP1 CALLDATASIZE SUB DUP2 ADD SWAP1 PUSH2 0x6E2 SWAP2 SWAP1 PUSH2 0x2FD6 JUMP JUMPDEST PUSH2 0x132E JUMP JUMPDEST STOP JUMPDEST PUSH2 0x703 PUSH1 0x4 DUP1 CALLDATASIZE SUB DUP2 ADD SWAP1 PUSH2 0x6FE SWAP2 SWAP1 PUSH2 0x2C46 JUMP JUMPDEST PUSH2 0x1350 JUMP JUMPDEST STOP JUMPDEST PUSH2 0x71F PUSH1 0x4 DUP1 CALLDATASIZE SUB DUP2 ADD SWAP1 PUSH2 0x71A SWAP2 SWAP1 PUSH2 0x3398 JUMP JUMPDEST PUSH2 0x1701 JUMP JUMPDEST PUSH1 0x40 MLOAD PUSH2 0x72C SWAP2 SWAP1 PUSH2 0x2C8B JUMP JUMPDEST PUSH1 0x40 MLOAD DUP1 SWAP2 SUB SWAP1 RETURN JUMPDEST PUSH2 0x74F PUSH1 0x4 DUP1 CALLDATASIZE SUB DUP2 ADD SWAP1 PUSH2 0x74A SWAP2 SWAP1 PUSH2 0x355B JUMP JUMPDEST PUSH2 0x178F JUMP JUMPDEST PUSH1 0x40 MLOAD PUSH2 0x75C SWAP2 SWAP1 PUSH2 0x304E JUMP JUMPDEST PUSH1 0x40 MLOAD DUP1 SWAP2 SUB SWAP1 RETURN JUMPDEST PUSH2 0x77F PUSH1 0x4 DUP1 CALLDATASIZE SUB DUP2 ADD SWAP1 PUSH2 0x77A SWAP2 SWAP1 PUSH2 0x2C46 JUMP JUMPDEST PUSH2 0x1A67 JUMP JUMPDEST PUSH1 0x40 MLOAD PUSH2 0x78C SWAP2 SWAP1 PUSH2 0x2C8B JUMP JUMPDEST PUSH1 0x40 MLOAD DUP1 SWAP2 SUB SWAP1 RETURN JUMPDEST PUSH2 0x7AF PUSH1 0x4 DUP1 CALLDATASIZE SUB DUP2 ADD SWAP1 PUSH2 0x7AA SWAP2 SWAP1 PUSH2 0x2C46 JUMP JUMPDEST PUSH2 0x1A90 JUMP JUMPDEST STOP JUMPDEST PUSH0 ADDRESS PUSH20 0xFFFFFFFFFFFFFFFFFFFFFFFFFFFFFFFFFFFFFFFF AND PUSH4 0x6352211E DUP4 PUSH1 0x40 MLOAD DUP3 PUSH4 0xFFFFFFFF AND PUSH1 0xE0 SHL DUP2 MSTORE PUSH1 0x4 ADD PUSH2 0x7EB SWAP2 SWAP1 PUSH2 0x304E JUMP JUMPDEST PUSH1 0x20 PUSH1 0x40 MLOAD DUP1 DUP4 SUB DUP2 DUP7 GAS STATICCALL SWAP3 POP POP POP DUP1 ISZERO PUSH2 0x825 JUMPI POP PUSH1 0x40 MLOAD RETURNDATASIZE PUSH1 0x1F NOT PUSH1 0x1F DUP3 ADD AND DUP3 ADD DUP1 PUSH1 0x40 MSTORE POP DUP2 ADD SWAP1 PUSH2 0x822 SWAP2 SWAP1 PUSH2 0x3658 JUMP JUMPDEST PUSH1 0x1 JUMPDEST PUSH2 0x831 JUMPI PUSH0 SWAP1 POP PUSH2 0x837 JUMP JUMPDEST PUSH1 0x1 SWAP2 POP POP JUMPDEST SWAP2 SWAP1 POP JUMP JUMPDEST PUSH0 PUSH2 0x846 DUP3 PUSH2 0x1D80 JUMP JUMPDEST SWAP1 POP SWAP2 SWAP1 POP JUMP JUMPDEST PUSH1 0x60 PUSH0 DUP1 SLOAD PUSH2 0x85B SWAP1 PUSH2 0x36B0 JUMP JUMPDEST DUP1 PUSH1 0x1F ADD PUSH1 0x20 DUP1 SWAP2 DIV MUL PUSH1 0x20 ADD PUSH1 0x40 MLOAD SWAP1 DUP2 ADD PUSH1 0x40 MSTORE DUP1 SWAP3 SWAP2 SWAP1 DUP2 DUP2 MSTORE PUSH1 0x20 ADD DUP3 DUP1 SLOAD PUSH2 0x887 SWAP1 PUSH2 0x36B0 JUMP JUMPDEST DUP1 ISZERO PUSH2 0x8D2 JUMPI DUP1 PUSH1 0x1F LT PUSH2 0x8A9 JUMPI PUSH2 0x100 DUP1 DUP4 SLOAD DIV MUL DUP4 MSTORE SWAP2 PUSH1 0x20 ADD SWAP2 PUSH2 0x8D2 JUMP JUMPDEST DUP3 ADD SWAP2 SWAP1 PUSH0 MSTORE PUSH1 0x20 PUSH0 KECCAK256 SWAP1 JUMPDEST DUP2 SLOAD DUP2 MSTORE SWAP1 PUSH1 0x1 ADD SWAP1 PUSH1 0x20 ADD DUP1 DUP4 GT PUSH2 0x8B5 JUMPI DUP3 SWAP1 SUB PUSH1 0x1F AND DUP3 ADD SWAP2 JUMPDEST POP POP POP POP POP SWAP1 POP SWAP1 JUMP JUMPDEST PUSH0 PUSH2 0x8E6 DUP3 PUSH2 0x1DF9 JUMP JUMPDEST POP PUSH2 0x8F0 DUP3 PUSH2 0x1E7F JUMP JUMPDEST SWAP1 POP SWAP2 SWAP1 POP JUMP JUMPDEST PUSH2 0x909 DUP3 DUP3 PUSH2 0x904 PUSH2 0x1EB8 JUMP JUMPDEST PUSH2 0x1EBF JUMP JUMPDEST POP POP JUMP JUMPDEST PUSH0 PUSH20 0xFFFFFFFFFFFFFFFFFFFFFFFFFFFFFFFFFFFFFFFF AND DUP3 PUSH20 0xFFFFFFFFFFFFFFFFFFFFFFFFFFFFFFFFFFFFFFFF AND SUB PUSH2 0x97D JUMPI PUSH0 PUSH1 0x40 MLOAD PUSH32 0x64A0AE9200000000000000000000000000000000000000000000000000000000 DUP2 MSTORE PUSH1 0x4 ADD PUSH2 0x974 SWAP2 SWAP1 PUSH2 0x2DF3 JUMP JUMPDEST PUSH1 0x40 MLOAD DUP1 SWAP2 SUB SWAP1 REVERT JUMPDEST PUSH0 PUSH2 0x990 DUP4 DUP4 PUSH2 0x98B PUSH2 0x1EB8 JUMP JUMPDEST PUSH2 0x1ED1 JUMP JUMPDEST SWAP1 POP DUP4 PUSH20 0xFFFFFFFFFFFFFFFFFFFFFFFFFFFFFFFFFFFFFFFF AND DUP2 PUSH20 0xFFFFFFFFFFFFFFFFFFFFFFFFFFFFFFFFFFFFFFFF AND EQ PUSH2 0xA06 JUMPI DUP4 DUP3 DUP3 PUSH1 0x40 MLOAD PUSH32 0x64283D7B00000000000000000000000000000000000000000000000000000000 DUP2 MSTORE PUSH1 0x4 ADD PUSH2 0x9FD SWAP4 SWAP3 SWAP2 SWAP1 PUSH2 0x36E0 JUMP JUMPDEST PUSH1 0x40 MLOAD DUP1 SWAP2 SUB SWAP1 REVERT JUMPDEST POP POP POP POP JUMP JUMPDEST PUSH0 PUSH1 0x6 PUSH0 DUP4 DUP2 MSTORE PUSH1 0x20 ADD SWAP1 DUP2 MSTORE PUSH1 0x20 ADD PUSH0 KECCAK256 PUSH1 0x1 ADD SLOAD SWAP1 POP SWAP2 SWAP1 POP JUMP JUMPDEST PUSH0 PUSH2 0xA33 DUP3 PUSH2 0x7B1 JUMP JUMPDEST PUSH2 0xA72 JUMPI PUSH1 0x40 MLOAD PUSH32 0x8C379A000000000000000000000000000000000000000000000000000000000 DUP2 MSTORE PUSH1 0x4 ADD PUSH2 0xA69 SWAP1 PUSH2 0x375F JUMP JUMPDEST PUSH1 0x40 MLOAD DUP1 SWAP2 SUB SWAP1 REVERT JUMPDEST PUSH1 0x8 PUSH0 DUP4 DUP2 MSTORE PUSH1 0x20 ADD SWAP1 DUP2 MSTORE PUSH1 0x20 ADD PUSH0 KECCAK256 PUSH1 0xA ADD PUSH1 0x1 SWAP1 SLOAD SWAP1 PUSH2 0x100 EXP SWAP1 DIV PUSH1 0xFF AND SWAP1 POP SWAP2 SWAP1 POP JUMP JUMPDEST PUSH2 0xAA4 DUP3 PUSH2 0xA0C JUMP JUMPDEST PUSH2 0xAAD DUP2 PUSH2 0x20DC JUMP JUMPDEST PUSH2 0xAB7 DUP4 DUP4 PUSH2 0x20F0 JUMP JUMPDEST POP POP POP POP JUMP JUMPDEST PUSH32 0xA49807205CE4D355092EF5A8A18F56E8913CF4A201FBE287825B095693C21775 PUSH2 0xAE7 DUP2 PUSH2 0x20DC JUMP JUMPDEST PUSH2 0xB11 PUSH32 0x9F2DF0FED2C77648DE5860A4CC508CD0818C85B8B8A1AB4CEEEF8D981C8956A6 DUP4 PUSH2 0x132E JUMP JUMPDEST POP POP JUMP JUMPDEST PUSH2 0xB1D PUSH2 0x1EB8 JUMP JUMPDEST PUSH20 0xFFFFFFFFFFFFFFFFFFFFFFFFFFFFFFFFFFFFFFFF AND DUP2 PUSH20 0xFFFFFFFFFFFFFFFFFFFFFFFFFFFFFFFFFFFFFFFF AND EQ PUSH2 0xB81 JUMPI PUSH1 0x40 MLOAD PUSH32 0x6697B23200000000000000000000000000000000000000000000000000000000 DUP2 MSTORE PUSH1 0x4 ADD PUSH1 0x40 MLOAD DUP1 SWAP2 SUB SWAP1 REVERT JUMPDEST PUSH2 0xB8B DUP3 DUP3 PUSH2 0x21DA JUMP JUMPDEST POP POP POP JUMP JUMPDEST PUSH2 0xBAA DUP4 DUP4 DUP4 PUSH1 0x40 MLOAD DUP1 PUSH1 0x20 ADD PUSH1 0x40 MSTORE DUP1 PUSH0 DUP2 MSTORE POP PUSH2 0x11D6 JUMP JUMPDEST POP POP POP JUMP JUMPDEST PUSH0 PUSH1 0x8 PUSH0 DUP4 DUP2 MSTORE PUSH1 0x20 ADD SWAP1 DUP2 MSTORE PUSH1 0x20 ADD PUSH0 KECCAK256 PUSH1 0xA ADD PUSH0 SWAP1 SLOAD SWAP1 PUSH2 0x100 EXP SWAP1 DIV PUSH1 0xFF AND SWAP1 POP SWAP2 SWAP1 POP JUMP JUMPDEST PUSH0 PUSH1 0x8 PUSH0 DUP4 DUP2 MSTORE PUSH1 0x20 ADD SWAP1 DUP2 MSTORE PUSH1 0x20 ADD PUSH0 KECCAK256 PUSH1 0x8 ADD PUSH0 SWAP1 SLOAD SWAP1 PUSH2 0x100 EXP SWAP1 DIV PUSH1 0xFF AND SWAP1 POP SWAP2 SWAP1 POP JUMP JUMPDEST PUSH0 PUSH2 0xC0B DUP3 PUSH2 0x1DF9 JUMP JUMPDEST SWAP1 POP SWAP2 SWAP1 POP JUMP JUMPDEST PUSH0 DUP1 PUSH20 0xFFFFFFFFFFFFFFFFFFFFFFFFFFFFFFFFFFFFFFFF AND DUP3 PUSH20 0xFFFFFFFFFFFFFFFFFFFFFFFFFFFFFFFFFFFFFFFF AND SUB PUSH2 0xC83 JUMPI PUSH0 PUSH1 0x40 MLOAD PUSH32 0x89C62B6400000000000000000000000000000000000000000000000000000000 DUP2 MSTORE PUSH1 0x4 ADD PUSH2 0xC7A SWAP2 SWAP1 PUSH2 0x2DF3 JUMP JUMPDEST PUSH1 0x40 MLOAD DUP1 SWAP2 SUB SWAP1 REVERT JUMPDEST PUSH1 0x3 PUSH0 DUP4 PUSH20 0xFFFFFFFFFFFFFFFFFFFFFFFFFFFFFFFFFFFFFFFF AND PUSH20 0xFFFFFFFFFFFFFFFFFFFFFFFFFFFFFFFFFFFFFFFF AND DUP2 MSTORE PUSH1 0x20 ADD SWAP1 DUP2 MSTORE PUSH1 0x20 ADD PUSH0 KECCAK256 SLOAD SWAP1 POP SWAP2 SWAP1 POP JUMP JUMPDEST PUSH32 0xA49807205CE4D355092EF5A8A18F56E8913CF4A201FBE287825B095693C21775 DUP2 JUMP JUMPDEST PUSH0 PUSH1 0x8 PUSH0 DUP4 DUP2 MSTORE PUSH1 0x20 ADD SWAP1 DUP2 MSTORE PUSH1 0x20 ADD PUSH0 KECCAK256 PUSH1 0x5 ADD SLOAD SWAP1 POP SWAP2 SWAP1 POP JUMP JUMPDEST PUSH2 0xD12 DUP3 PUSH2 0x7B1 JUMP JUMPDEST PUSH2 0xD51 JUMPI PUSH1 0x40 MLOAD PUSH32 0x8C379A000000000000000000000000000000000000000000000000000000000 DUP2 MSTORE PUSH1 0x4 ADD PUSH2 0xD48 SWAP1 PUSH2 0x375F JUMP JUMPDEST PUSH1 0x40 MLOAD DUP1 SWAP2 SUB SWAP1 REVERT JUMPDEST CALLER PUSH20 0xFFFFFFFFFFFFFFFFFFFFFFFFFFFFFFFFFFFFFFFF AND PUSH2 0xD71 DUP4 PUSH2 0xC01 JUMP JUMPDEST PUSH20 0xFFFFFFFFFFFFFFFFFFFFFFFFFFFFFFFFFFFFFFFF AND EQ PUSH2 0xDC7 JUMPI PUSH1 0x40 MLOAD PUSH32 0x8C379A000000000000000000000000000000000000000000000000000000000 DUP2 MSTORE PUSH1 0x4 ADD PUSH2 0xDBE SWAP1 PUSH2 0x37C7 JUMP JUMPDEST PUSH1 0x40 MLOAD DUP1 SWAP2 SUB SWAP1 REVERT JUMPDEST DUP1 PUSH1 0x8 PUSH0 DUP5 DUP2 MSTORE PUSH1 0x20 ADD SWAP1 DUP2 MSTORE PUSH1 0x20 ADD PUSH0 KECCAK256 PUSH1 0x9 ADD DUP2 SWAP1 SSTORE POP PUSH32 0x945C1C4E99AA89F648FBFE3DF471B916F719E16D960FCEC0737D4D56BD696838 DUP3 DUP3 PUSH1 0x40 MLOAD PUSH2 0xE11 SWAP3 SWAP2 SWAP1 PUSH2 0x37E5 JUMP JUMPDEST PUSH1 0x40 MLOAD DUP1 SWAP2 SUB SWAP1 LOG1 POP POP JUMP JUMPDEST PUSH0 DUP1 PUSH1 0x8 PUSH0 DUP6 DUP2 MSTORE PUSH1 0x20 ADD SWAP1 DUP2 MSTORE PUSH1 0x20 ADD PUSH0 KECCAK256 SWAP1 POP PUSH0 JUMPDEST DUP2 PUSH1 0x7 ADD DUP1 SLOAD SWAP1 POP DUP2 LT ISZERO PUSH2 0xECB JUMPI DUP4 PUSH20 0xFFFFFFFFFFFFFFFFFFFFFFFFFFFFFFFFFFFFFFFF AND DUP3 PUSH1 0x7 ADD DUP3 DUP2 SLOAD DUP2 LT PUSH2 0xE70 JUMPI PUSH2 0xE6F PUSH2 0x380C JUMP JUMPDEST JUMPDEST SWAP1 PUSH0 MSTORE PUSH1 0x20 PUSH0 KECCAK256 ADD PUSH0 SWAP1 SLOAD SWAP1 PUSH2 0x100 EXP SWAP1 DIV PUSH20 0xFFFFFFFFFFFFFFFFFFFFFFFFFFFFFFFFFFFFFFFF AND PUSH20 0xFFFFFFFFFFFFFFFFFFFFFFFFFFFFFFFFFFFFFFFF AND SUB PUSH2 0xEBE JUMPI PUSH1 0x1 SWAP3 POP POP POP PUSH2 0xED1 JUMP JUMPDEST DUP1 DUP1 PUSH1 0x1 ADD SWAP2 POP POP PUSH2 0xE34 JUMP JUMPDEST POP PUSH0 SWAP2 POP POP JUMPDEST SWAP3 SWAP2 POP POP JUMP JUMPDEST PUSH1 0x8 PUSH1 0x20 MSTORE DUP1 PUSH0 MSTORE PUSH1 0x40 PUSH0 KECCAK256 PUSH0 SWAP2 POP SWAP1 POP DUP1 PUSH0 ADD DUP1 SLOAD PUSH2 0xEF6 SWAP1 PUSH2 0x36B0 JUMP JUMPDEST DUP1 PUSH1 0x1F ADD PUSH1 0x20 DUP1 SWAP2 DIV MUL PUSH1 0x20 ADD PUSH1 0x40 MLOAD SWAP1 DUP2 ADD PUSH1 0x40 MSTORE DUP1 SWAP3 SWAP2 SWAP1 DUP2 DUP2 MSTORE PUSH1 0x20 ADD DUP3 DUP1 SLOAD PUSH2 0xF22 SWAP1 PUSH2 0x36B0 JUMP JUMPDEST DUP1 ISZERO PUSH2 0xF6D JUMPI DUP1 PUSH1 0x1F LT PUSH2 0xF44 JUMPI PUSH2 0x100 DUP1 DUP4 SLOAD DIV MUL DUP4 MSTORE SWAP2 PUSH1 0x20 ADD SWAP2 PUSH2 0xF6D JUMP JUMPDEST DUP3 ADD SWAP2 SWAP1 PUSH0 MSTORE PUSH1 0x20 PUSH0 KECCAK256 SWAP1 JUMPDEST DUP2 SLOAD DUP2 MSTORE SWAP1 PUSH1 0x1 ADD SWAP1 PUSH1 0x20 ADD DUP1 DUP4 GT PUSH2 0xF50 JUMPI DUP3 SWAP1 SUB PUSH1 0x1F AND DUP3 ADD SWAP2 JUMPDEST POP POP POP POP POP SWAP1 DUP1 PUSH1 0x1 ADD PUSH0 SWAP1 SLOAD SWAP1 PUSH2 0x100 EXP SWAP1 DIV PUSH20 0xFFFFFFFFFFFFFFFFFFFFFFFFFFFFFFFFFFFFFFFF AND SWAP1 DUP1 PUSH1 0x2 ADD SLOAD SWAP1 DUP1 PUSH1 0x4 ADD PUSH0 SWAP1 SLOAD SWAP1 PUSH2 0x100 EXP SWAP1 DIV PUSH1 0xFF AND SWAP1 DUP1 PUSH1 0x5 ADD SLOAD SWAP1 DUP1 PUSH1 0x6 ADD PUSH0 SWAP1 SLOAD SWAP1 PUSH2 0x100 EXP SWAP1 DIV PUSH1 0xFF AND SWAP1 DUP1 PUSH1 0x8 ADD PUSH0 SWAP1 SLOAD SWAP1 PUSH2 0x100 EXP SWAP1 DIV PUSH1 0xFF AND SWAP1 DUP1 PUSH1 0x9 ADD SLOAD SWAP1 DUP1 PUSH1 0xA ADD PUSH0 SWAP1 SLOAD SWAP1 PUSH2 0x100 EXP SWAP1 DIV PUSH1 0xFF AND SWAP1 DUP1 PUSH1 0xA ADD PUSH1 0x1 SWAP1 SLOAD SWAP1 PUSH2 0x100 EXP SWAP1 DIV PUSH1 0xFF AND SWAP1 POP DUP11 JUMP JUMPDEST PUSH0 PUSH1 0x6 PUSH0 DUP5 DUP2 MSTORE PUSH1 0x20 ADD SWAP1 DUP2 MSTORE PUSH1 0x20 ADD PUSH0 KECCAK256 PUSH0 ADD PUSH0 DUP4 PUSH20 0xFFFFFFFFFFFFFFFFFFFFFFFFFFFFFFFFFFFFFFFF AND PUSH20 0xFFFFFFFFFFFFFFFFFFFFFFFFFFFFFFFFFFFFFFFF AND DUP2 MSTORE PUSH1 0x20 ADD SWAP1 DUP2 MSTORE PUSH1 0x20 ADD PUSH0 KECCAK256 PUSH0 SWAP1 SLOAD SWAP1 PUSH2 0x100 EXP SWAP1 DIV PUSH1 0xFF AND SWAP1 POP SWAP3 SWAP2 POP POP JUMP JUMPDEST PUSH0 PUSH2 0x1077 DUP3 PUSH2 0x7B1 JUMP JUMPDEST PUSH2 0x10B6 JUMPI PUSH1 0x40 MLOAD PUSH32 0x8C379A000000000000000000000000000000000000000000000000000000000 DUP2 MSTORE PUSH1 0x4 ADD PUSH2 0x10AD SWAP1 PUSH2 0x375F JUMP JUMPDEST PUSH1 0x40 MLOAD DUP1 SWAP2 SUB SWAP1 REVERT JUMPDEST PUSH1 0x8 PUSH0 DUP4 DUP2 MSTORE PUSH1 0x20 ADD SWAP1 DUP2 MSTORE PUSH1 0x20 ADD PUSH0 KECCAK256 PUSH1 0x9 ADD SLOAD SWAP1 POP SWAP2 SWAP1 POP JUMP JUMPDEST PUSH1 0x60 PUSH1 0x1 DUP1 SLOAD PUSH2 0x10E1 SWAP1 PUSH2 0x36B0 JUMP JUMPDEST DUP1 PUSH1 0x1F ADD PUSH1 0x20 DUP1 SWAP2 DIV MUL PUSH1 0x20 ADD PUSH1 0x40 MLOAD SWAP1 DUP2 ADD PUSH1 0x40 MSTORE DUP1 SWAP3 SWAP2 SWAP1 DUP2 DUP2 MSTORE PUSH1 0x20 ADD DUP3 DUP1 SLOAD PUSH2 0x110D SWAP1 PUSH2 0x36B0 JUMP JUMPDEST DUP1 ISZERO PUSH2 0x1158 JUMPI DUP1 PUSH1 0x1F LT PUSH2 0x112F JUMPI PUSH2 0x100 DUP1 DUP4 SLOAD DIV MUL DUP4 MSTORE SWAP2 PUSH1 0x20 ADD SWAP2 PUSH2 0x1158 JUMP JUMPDEST DUP3 ADD SWAP2 SWAP1 PUSH0 MSTORE PUSH1 0x20 PUSH0 KECCAK256 SWAP1 JUMPDEST DUP2 SLOAD DUP2 MSTORE SWAP1 PUSH1 0x1 ADD SWAP1 PUSH1 0x20 ADD DUP1 DUP4 GT PUSH2 0x113B JUMPI DUP3 SWAP1 SUB PUSH1 0x1F AND DUP3 ADD SWAP2 JUMPDEST POP POP POP POP POP SWAP1 POP SWAP1 JUMP JUMPDEST PUSH32 0xA49807205CE4D355092EF5A8A18F56E8913CF4A201FBE287825B095693C21775 PUSH2 0x118C DUP2 PUSH2 0x20DC JUMP JUMPDEST PUSH2 0x11B6 PUSH32 0x9F2DF0FED2C77648DE5860A4CC508CD0818C85B8B8A1AB4CEEEF8D981C8956A6 DUP4 PUSH2 0xA9B JUMP JUMPDEST POP POP JUMP JUMPDEST PUSH0 DUP1 SHL DUP2 JUMP JUMPDEST PUSH2 0x11D2 PUSH2 0x11CB PUSH2 0x1EB8 JUMP JUMPDEST DUP4 DUP4 PUSH2 0x22C4 JUMP JUMPDEST POP POP JUMP JUMPDEST PUSH2 0x11E1 DUP5 DUP5 DUP5 PUSH2 0x90D JUMP JUMPDEST PUSH2 0x11F5 PUSH2 0x11EC PUSH2 0x1EB8 JUMP JUMPDEST DUP6 DUP6 DUP6 DUP6 PUSH2 0x242D JUMP JUMPDEST POP POP POP POP JUMP JUMPDEST PUSH32 0x21702C8AF46127C7FA207F89D0B0A8441BB32959A0AC7DF790E9AB1A25C98926 DUP2 JUMP JUMPDEST PUSH1 0x60 PUSH2 0x122A DUP3 PUSH2 0x7B1 JUMP JUMPDEST PUSH2 0x1269 JUMPI PUSH1 0x40 MLOAD PUSH32 0x8C379A000000000000000000000000000000000000000000000000000000000 DUP2 MSTORE PUSH1 0x4 ADD PUSH2 0x1260 SWAP1 PUSH2 0x3883 JUMP JUMPDEST PUSH1 0x40 MLOAD DUP1 SWAP2 SUB SWAP1 REVERT JUMPDEST PUSH1 0x8 PUSH0 DUP4 DUP2 MSTORE PUSH1 0x20 ADD SWAP1 DUP2 MSTORE PUSH1 0x20 ADD PUSH0 KECCAK256 PUSH0 ADD DUP1 SLOAD PUSH2 0x1287 SWAP1 PUSH2 0x36B0 JUMP JUMPDEST DUP1 PUSH1 0x1F ADD PUSH1 0x20 DUP1 SWAP2 DIV MUL PUSH1 0x20 ADD PUSH1 0x40 MLOAD SWAP1 DUP2 ADD PUSH1 0x40 MSTORE DUP1 SWAP3 SWAP2 SWAP1 DUP2 DUP2 MSTORE PUSH1 0x20 ADD DUP3 DUP1 SLOAD PUSH2 0x12B3 SWAP1 PUSH2 0x36B0 JUMP JUMPDEST DUP1 ISZERO PUSH2 0x12FE JUMPI DUP1 PUSH1 0x1F LT PUSH2 0x12D5 JUMPI PUSH2 0x100 DUP1 DUP4 SLOAD DIV MUL DUP4 MSTORE SWAP2 PUSH1 0x20 ADD SWAP2 PUSH2 0x12FE JUMP JUMPDEST DUP3 ADD SWAP2 SWAP1 PUSH0 MSTORE PUSH1 0x20 PUSH0 KECCAK256 SWAP1 JUMPDEST DUP2 SLOAD DUP2 MSTORE SWAP1 PUSH1 0x1 ADD SWAP1 PUSH1 0x20 ADD DUP1 DUP4 GT PUSH2 0x12E1 JUMPI DUP3 SWAP1 SUB PUSH1 0x1F AND DUP3 ADD SWAP2 JUMPDEST POP POP POP POP POP SWAP1 POP SWAP2 SWAP1 POP JUMP JUMPDEST PUSH32 0x9F2DF0FED2C77648DE5860A4CC508CD0818C85B8B8A1AB4CEEEF8D981C8956A6 DUP2 JUMP JUMPDEST PUSH2 0x1337 DUP3 PUSH2 0xA0C JUMP JUMPDEST PUSH2 0x1340 DUP2 PUSH2 0x20DC JUMP JUMPDEST PUSH2 0x134A DUP4 DUP4 PUSH2 0x21DA JUMP JUMPDEST POP POP POP POP JUMP JUMPDEST PUSH0 PUSH1 0x8 PUSH0 DUP4 DUP2 MSTORE PUSH1 0x20 ADD SWAP1 DUP2 MSTORE PUSH1 0x20 ADD PUSH0 KECCAK256 SWAP1 POP DUP1 PUSH1 0x4 ADD PUSH0 SWAP1 SLOAD SWAP1 PUSH2 0x100 EXP SWAP1 DIV PUSH1 0xFF AND ISZERO PUSH2 0x13B5 JUMPI PUSH1 0x40 MLOAD PUSH32 0x8C379A000000000000000000000000000000000000000000000000000000000 DUP2 MSTORE PUSH1 0x4 ADD PUSH2 0x13AC SWAP1 PUSH2 0x38EB JUMP JUMPDEST PUSH1 0x40 MLOAD DUP1 SWAP2 SUB SWAP1 REVERT JUMPDEST DUP1 PUSH1 0x3 ADD PUSH0 CALLER PUSH20 0xFFFFFFFFFFFFFFFFFFFFFFFFFFFFFFFFFFFFFFFF AND PUSH20 0xFFFFFFFFFFFFFFFFFFFFFFFFFFFFFFFFFFFFFFFF AND DUP2 MSTORE PUSH1 0x20 ADD SWAP1 DUP2 MSTORE PUSH1 0x20 ADD PUSH0 KECCAK256 PUSH0 SWAP1 SLOAD SWAP1 PUSH2 0x100 EXP SWAP1 DIV PUSH1 0xFF AND ISZERO PUSH2 0x1441 JUMPI PUSH1 0x40 MLOAD PUSH32 0x8C379A000000000000000000000000000000000000000000000000000000000 DUP2 MSTORE PUSH1 0x4 ADD PUSH2 0x1438 SWAP1 PUSH2 0x3953 JUMP JUMPDEST PUSH1 0x40 MLOAD DUP1 SWAP2 SUB SWAP1 REVERT JUMPDEST DUP1 PUSH1 0x6 ADD PUSH0 SWAP1 SLOAD SWAP1 PUSH2 0x100 EXP SWAP1 DIV PUSH1 0xFF AND ISZERO PUSH2 0x14A5 JUMPI PUSH2 0x1461 DUP3 CALLER PUSH2 0xE1D JUMP JUMPDEST PUSH2 0x14A0 JUMPI PUSH1 0x40 MLOAD PUSH32 0x8C379A000000000000000000000000000000000000000000000000000000000 DUP2 MSTORE PUSH1 0x4 ADD PUSH2 0x1497 SWAP1 PUSH2 0x39E1 JUMP JUMPDEST PUSH1 0x40 MLOAD DUP1 SWAP2 SUB SWAP1 REVERT JUMPDEST PUSH2 0x150F JUMP JUMPDEST PUSH2 0x14CF PUSH32 0x21702C8AF46127C7FA207F89D0B0A8441BB32959A0AC7DF790E9AB1A25C98926 CALLER PUSH2 0x1009 JUMP JUMPDEST PUSH2 0x150E JUMPI PUSH1 0x40 MLOAD PUSH32 0x8C379A000000000000000000000000000000000000000000000000000000000 DUP2 MSTORE PUSH1 0x4 ADD PUSH2 0x1505 SWAP1 PUSH2 0x3A49 JUMP JUMPDEST PUSH1 0x40 MLOAD DUP1 SWAP2 SUB SWAP1 REVERT JUMPDEST JUMPDEST PUSH1 0x1 DUP2 PUSH1 0x3 ADD PUSH0 CALLER PUSH20 0xFFFFFFFFFFFFFFFFFFFFFFFFFFFFFFFFFFFFFFFF AND PUSH20 0xFFFFFFFFFFFFFFFFFFFFFFFFFFFFFFFFFFFFFFFF AND DUP2 MSTORE PUSH1 0x20 ADD SWAP1 DUP2 MSTORE PUSH1 0x20 ADD PUSH0 KECCAK256 PUSH0 PUSH2 0x100 EXP DUP2 SLOAD DUP2 PUSH1 0xFF MUL NOT AND SWAP1 DUP4 ISZERO ISZERO MUL OR SWAP1 SSTORE POP DUP1 PUSH1 0x5 ADD PUSH0 DUP2 SLOAD DUP1 SWAP3 SWAP2 SWAP1 PUSH2 0x157A SWAP1 PUSH2 0x3A94 JUMP JUMPDEST SWAP2 SWAP1 POP SSTORE POP PUSH32 0xDE711B03BC2ACF4829DFBF9DD0DF283BCE2B8E631B695BC088BDF766913D6B4 DUP3 CALLER PUSH1 0x40 MLOAD PUSH2 0x15B0 SWAP3 SWAP2 SWAP1 PUSH2 0x3ADB JUMP JUMPDEST PUSH1 0x40 MLOAD DUP1 SWAP2 SUB SWAP1 LOG1 DUP1 PUSH1 0x2 ADD SLOAD DUP2 PUSH1 0x5 ADD SLOAD LT PUSH2 0x16FD JUMPI PUSH1 0x1 DUP2 PUSH1 0x4 ADD PUSH0 PUSH2 0x100 EXP DUP2 SLOAD DUP2 PUSH1 0xFF MUL NOT AND SWAP1 DUP4 ISZERO ISZERO MUL OR SWAP1 SSTORE POP PUSH32 0xE356835F1C6D336B4ECBFD9FE7FA95B2A438C4886030921A2B99C3540D6C8CE0 DUP3 PUSH1 0x40 MLOAD PUSH2 0x1612 SWAP2 SWAP1 PUSH2 0x304E JUMP JUMPDEST PUSH1 0x40 MLOAD DUP1 SWAP2 SUB SWAP1 LOG1 PUSH0 PUSH1 0x2 DUP2 GT ISZERO PUSH2 0x162D JUMPI PUSH2 0x162C PUSH2 0x2F4A JUMP JUMPDEST JUMPDEST DUP2 PUSH1 0xA ADD PUSH1 0x1 SWAP1 SLOAD SWAP1 PUSH2 0x100 EXP SWAP1 DIV PUSH1 0xFF AND PUSH1 0x2 DUP2 GT ISZERO PUSH2 0x1651 JUMPI PUSH2 0x1650 PUSH2 0x2F4A JUMP JUMPDEST JUMPDEST SUB PUSH2 0x16FC JUMPI PUSH2 0x1683 DUP2 PUSH1 0x1 ADD PUSH0 SWAP1 SLOAD SWAP1 PUSH2 0x100 EXP SWAP1 DIV PUSH20 0xFFFFFFFFFFFFFFFFFFFFFFFFFFFFFFFFFFFFFFFF AND DUP4 PUSH2 0x25D9 JUMP JUMPDEST PUSH1 0x1 DUP2 PUSH1 0xA ADD PUSH0 PUSH2 0x100 EXP DUP2 SLOAD DUP2 PUSH1 0xFF MUL NOT AND SWAP1 DUP4 ISZERO ISZERO MUL OR SWAP1 SSTORE POP PUSH32 0xEC5F0DEE1FC3C7BEAB746DBD5883EEE3F1C9BC07FE02DD318C553C5243F52FEA DUP3 DUP3 PUSH1 0x1 ADD PUSH0 SWAP1 SLOAD SWAP1 PUSH2 0x100 EXP SWAP1 DIV PUSH20 0xFFFFFFFFFFFFFFFFFFFFFFFFFFFFFFFFFFFFFFFF AND PUSH1 0x40 MLOAD PUSH2 0x16F3 SWAP3 SWAP2 SWAP1 PUSH2 0x3ADB JUMP JUMPDEST PUSH1 0x40 MLOAD DUP1 SWAP2 SUB SWAP1 LOG1 JUMPDEST JUMPDEST POP POP JUMP JUMPDEST PUSH0 PUSH1 0x5 PUSH0 DUP5 PUSH20 0xFFFFFFFFFFFFFFFFFFFFFFFFFFFFFFFFFFFFFFFF AND PUSH20 0xFFFFFFFFFFFFFFFFFFFFFFFFFFFFFFFFFFFFFFFF AND DUP2 MSTORE PUSH1 0x20 ADD SWAP1 DUP2 MSTORE PUSH1 0x20 ADD PUSH0 KECCAK256 PUSH0 DUP4 PUSH20 0xFFFFFFFFFFFFFFFFFFFFFFFFFFFFFFFFFFFFFFFF AND PUSH20 0xFFFFFFFFFFFFFFFFFFFFFFFFFFFFFFFFFFFFFFFF AND DUP2 MSTORE PUSH1 0x20 ADD SWAP1 DUP2 MSTORE PUSH1 0x20 ADD PUSH0 KECCAK256 PUSH0 SWAP1 SLOAD SWAP1 PUSH2 0x100 EXP SWAP1 DIV PUSH1 0xFF AND SWAP1 POP SWAP3 SWAP2 POP POP JUMP JUMPDEST PUSH0 PUSH32 0x9F2DF0FED2C77648DE5860A4CC508CD0818C85B8B8A1AB4CEEEF8D981C8956A6 PUSH2 0x17BA DUP2 PUSH2 0x20DC JUMP JUMPDEST PUSH0 DUP9 GT PUSH2 0x17FC JUMPI PUSH1 0x40 MLOAD PUSH32 0x8C379A000000000000000000000000000000000000000000000000000000000 DUP2 MSTORE PUSH1 0x4 ADD PUSH2 0x17F3 SWAP1 PUSH2 0x3B72 JUMP JUMPDEST PUSH1 0x40 MLOAD DUP1 SWAP2 SUB SWAP1 REVERT JUMPDEST DUP7 ISZERO PUSH2 0x1847 JUMPI DUP8 DUP7 MLOAD LT ISZERO PUSH2 0x1846 JUMPI PUSH1 0x40 MLOAD PUSH32 0x8C379A000000000000000000000000000000000000000000000000000000000 DUP2 MSTORE PUSH1 0x4 ADD PUSH2 0x183D SWAP1 PUSH2 0x3BDA JUMP JUMPDEST PUSH1 0x40 MLOAD DUP1 SWAP2 SUB SWAP1 REVERT JUMPDEST JUMPDEST PUSH2 0x1851 PUSH1 0x7 PUSH2 0x26CC JUMP JUMPDEST PUSH0 PUSH2 0x185C PUSH1 0x7 PUSH2 0x26E0 JUMP JUMPDEST SWAP1 POP PUSH0 PUSH1 0x8 PUSH0 DUP4 DUP2 MSTORE PUSH1 0x20 ADD SWAP1 DUP2 MSTORE PUSH1 0x20 ADD PUSH0 KECCAK256 SWAP1 POP DUP11 DUP2 PUSH0 ADD SWAP1 DUP2 PUSH2 0x1882 SWAP2 SWAP1 PUSH2 0x3D95 JUMP JUMPDEST POP DUP12 DUP2 PUSH1 0x1 ADD PUSH0 PUSH2 0x100 EXP DUP2 SLOAD DUP2 PUSH20 0xFFFFFFFFFFFFFFFFFFFFFFFFFFFFFFFFFFFFFFFF MUL NOT AND SWAP1 DUP4 PUSH20 0xFFFFFFFFFFFFFFFFFFFFFFFFFFFFFFFFFFFFFFFF AND MUL OR SWAP1 SSTORE POP DUP10 DUP2 PUSH1 0x2 ADD DUP2 SWAP1 SSTORE POP PUSH0 DUP2 PUSH1 0x4 ADD PUSH0 PUSH2 0x100 EXP DUP2 SLOAD DUP2 PUSH1 0xFF MUL NOT AND SWAP1 DUP4 ISZERO ISZERO MUL OR SWAP1 SSTORE POP PUSH0 DUP2 PUSH1 0x5 ADD DUP2 SWAP1 SSTORE POP DUP9 DUP2 PUSH1 0x6 ADD PUSH0 PUSH2 0x100 EXP DUP2 SLOAD DUP2 PUSH1 0xFF MUL NOT AND SWAP1 DUP4 ISZERO ISZERO MUL OR SWAP1 SSTORE POP DUP7 DUP2 PUSH1 0x8 ADD PUSH0 PUSH2 0x100 EXP DUP2 SLOAD DUP2 PUSH1 0xFF MUL NOT AND SWAP1 DUP4 ISZERO ISZERO MUL OR SWAP1 SSTORE POP DUP6 DUP2 PUSH1 0x9 ADD DUP2 SWAP1 SSTORE POP PUSH0 DUP2 PUSH1 0xA ADD PUSH0 PUSH2 0x100 EXP DUP2 SLOAD DUP2 PUSH1 0xFF MUL NOT AND SWAP1 DUP4 ISZERO ISZERO MUL OR SWAP1 SSTORE POP DUP5 DUP2 PUSH1 0xA ADD PUSH1 0x1 PUSH2 0x100 EXP DUP2 SLOAD DUP2 PUSH1 0xFF MUL NOT AND SWAP1 DUP4 PUSH1 0x2 DUP2 GT ISZERO PUSH2 0x1973 JUMPI PUSH2 0x1972 PUSH2 0x2F4A JUMP JUMPDEST JUMPDEST MUL OR SWAP1 SSTORE POP DUP9 ISZERO PUSH2 0x1A14 JUMPI PUSH0 JUMPDEST DUP9 MLOAD DUP2 LT ISZERO PUSH2 0x1A12 JUMPI DUP2 PUSH1 0x7 ADD DUP10 DUP3 DUP2 MLOAD DUP2 LT PUSH2 0x19A0 JUMPI PUSH2 0x199F PUSH2 0x380C JUMP JUMPDEST JUMPDEST PUSH1 0x20 MUL PUSH1 0x20 ADD ADD MLOAD SWAP1 DUP1 PUSH1 0x1 DUP2 SLOAD ADD DUP1 DUP3 SSTORE DUP1 SWAP2 POP POP PUSH1 0x1 SWAP1 SUB SWAP1 PUSH0 MSTORE PUSH1 0x20 PUSH0 KECCAK256 ADD PUSH0 SWAP1 SWAP2 SWAP1 SWAP2 SWAP1 SWAP2 PUSH2 0x100 EXP DUP2 SLOAD DUP2 PUSH20 0xFFFFFFFFFFFFFFFFFFFFFFFFFFFFFFFFFFFFFFFF MUL NOT AND SWAP1 DUP4 PUSH20 0xFFFFFFFFFFFFFFFFFFFFFFFFFFFFFFFFFFFFFFFF AND MUL OR SWAP1 SSTORE POP DUP1 DUP1 PUSH1 0x1 ADD SWAP2 POP POP PUSH2 0x1980 JUMP JUMPDEST POP JUMPDEST PUSH32 0x6B8BB8C374DFCF2768BA2B71259C3ABB489EFEDF312EF7365D82F88E2D688096 DUP3 DUP14 DUP14 DUP11 DUP11 DUP11 PUSH1 0x40 MLOAD PUSH2 0x1A4D SWAP7 SWAP6 SWAP5 SWAP4 SWAP3 SWAP2 SWAP1 PUSH2 0x3E64 JUMP JUMPDEST PUSH1 0x40 MLOAD DUP1 SWAP2 SUB SWAP1 LOG1 DUP2 SWAP4 POP POP POP POP SWAP9 SWAP8 POP POP POP POP POP POP POP POP JUMP JUMPDEST PUSH0 PUSH1 0x8 PUSH0 DUP4 DUP2 MSTORE PUSH1 0x20 ADD SWAP1 DUP2 MSTORE PUSH1 0x20 ADD PUSH0 KECCAK256 PUSH1 0x4 ADD PUSH0 SWAP1 SLOAD SWAP1 PUSH2 0x100 EXP SWAP1 DIV PUSH1 0xFF AND SWAP1 POP SWAP2 SWAP1 POP JUMP JUMPDEST PUSH0 PUSH1 0x8 PUSH0 DUP4 DUP2 MSTORE PUSH1 0x20 ADD SWAP1 DUP2 MSTORE PUSH1 0x20 ADD PUSH0 KECCAK256 SWAP1 POP DUP1 PUSH1 0x4 ADD PUSH0 SWAP1 SLOAD SWAP1 PUSH2 0x100 EXP SWAP1 DIV PUSH1 0xFF AND PUSH2 0x1AF4 JUMPI PUSH1 0x40 MLOAD PUSH32 0x8C379A000000000000000000000000000000000000000000000000000000000 DUP2 MSTORE PUSH1 0x4 ADD PUSH2 0x1AEB SWAP1 PUSH2 0x3F14 JUMP JUMPDEST PUSH1 0x40 MLOAD DUP1 SWAP2 SUB SWAP1 REVERT JUMPDEST DUP1 PUSH1 0xA ADD PUSH0 SWAP1 SLOAD SWAP1 PUSH2 0x100 EXP SWAP1 DIV PUSH1 0xFF AND ISZERO PUSH2 0x1B45 JUMPI PUSH1 0x40 MLOAD PUSH32 0x8C379A000000000000000000000000000000000000000000000000000000000 DUP2 MSTORE PUSH1 0x4 ADD PUSH2 0x1B3C SWAP1 PUSH2 0x3F7C JUMP JUMPDEST PUSH1 0x40 MLOAD DUP1 SWAP2 SUB SWAP1 REVERT JUMPDEST PUSH1 0x1 PUSH1 0x2 DUP2 GT ISZERO PUSH2 0x1B59 JUMPI PUSH2 0x1B58 PUSH2 0x2F4A JUMP JUMPDEST JUMPDEST DUP2 PUSH1 0xA ADD PUSH1 0x1 SWAP1 SLOAD SWAP1 PUSH2 0x100 EXP SWAP1 DIV PUSH1 0xFF AND PUSH1 0x2 DUP2 GT ISZERO PUSH2 0x1B7D JUMPI PUSH2 0x1B7C PUSH2 0x2F4A JUMP JUMPDEST JUMPDEST SUB PUSH2 0x1C18 JUMPI DUP1 PUSH1 0x1 ADD PUSH0 SWAP1 SLOAD SWAP1 PUSH2 0x100 EXP SWAP1 DIV PUSH20 0xFFFFFFFFFFFFFFFFFFFFFFFFFFFFFFFFFFFFFFFF AND PUSH20 0xFFFFFFFFFFFFFFFFFFFFFFFFFFFFFFFFFFFFFFFF AND CALLER PUSH20 0xFFFFFFFFFFFFFFFFFFFFFFFFFFFFFFFFFFFFFFFF AND EQ PUSH2 0x1C13 JUMPI PUSH1 0x40 MLOAD PUSH32 0x8C379A000000000000000000000000000000000000000000000000000000000 DUP2 MSTORE PUSH1 0x4 ADD PUSH2 0x1C0A SWAP1 PUSH2 0x400A JUMP JUMPDEST PUSH1 0x40 MLOAD DUP1 SWAP2 SUB SWAP1 REVERT JUMPDEST PUSH2 0x1CD7 JUMP JUMPDEST PUSH1 0x2 DUP1 DUP2 GT ISZERO PUSH2 0x1C2B JUMPI PUSH2 0x1C2A PUSH2 0x2F4A JUMP JUMPDEST JUMPDEST DUP2 PUSH1 0xA ADD PUSH1 0x1 SWAP1 SLOAD SWAP1 PUSH2 0x100 EXP SWAP1 DIV PUSH1 0xFF AND PUSH1 0x2 DUP2 GT ISZERO PUSH2 0x1C4F JUMPI PUSH2 0x1C4E PUSH2 0x2F4A JUMP JUMPDEST JUMPDEST SUB PUSH2 0x1C9B JUMPI CALLER DUP2 PUSH1 0x1 ADD PUSH0 PUSH2 0x100 EXP DUP2 SLOAD DUP2 PUSH20 0xFFFFFFFFFFFFFFFFFFFFFFFFFFFFFFFFFFFFFFFF MUL NOT AND SWAP1 DUP4 PUSH20 0xFFFFFFFFFFFFFFFFFFFFFFFFFFFFFFFFFFFFFFFF AND MUL OR SWAP1 SSTORE POP PUSH2 0x1CD6 JUMP JUMPDEST PUSH1 0x40 MLOAD PUSH32 0x8C379A000000000000000000000000000000000000000000000000000000000 DUP2 MSTORE PUSH1 0x4 ADD PUSH2 0x1CCD SWAP1 PUSH2 0x4072 JUMP JUMPDEST PUSH1 0x40 MLOAD DUP1 SWAP2 SUB SWAP1 REVERT JUMPDEST JUMPDEST PUSH2 0x1D04 DUP2 PUSH1 0x1 ADD PUSH0 SWAP1 SLOAD SWAP1 PUSH2 0x100 EXP SWAP1 DIV PUSH20 0xFFFFFFFFFFFFFFFFFFFFFFFFFFFFFFFFFFFFFFFF AND DUP4 PUSH2 0x25D9 JUMP JUMPDEST PUSH1 0x1 DUP2 PUSH1 0xA ADD PUSH0 PUSH2 0x100 EXP DUP2 SLOAD DUP2 PUSH1 0xFF MUL NOT AND SWAP1 DUP4 ISZERO ISZERO MUL OR SWAP1 SSTORE POP PUSH32 0xEC5F0DEE1FC3C7BEAB746DBD5883EEE3F1C9BC07FE02DD318C553C5243F52FEA DUP3 DUP3 PUSH1 0x1 ADD PUSH0 SWAP1 SLOAD SWAP1 PUSH2 0x100 EXP SWAP1 DIV PUSH20 0xFFFFFFFFFFFFFFFFFFFFFFFFFFFFFFFFFFFFFFFF AND PUSH1 0x40 MLOAD PUSH2 0x1D74 SWAP3 SWAP2 SWAP1 PUSH2 0x3ADB JUMP JUMPDEST PUSH1 0x40 MLOAD DUP1 SWAP2 SUB SWAP1 LOG1 POP POP JUMP JUMPDEST PUSH0 PUSH32 0x7965DB0B00000000000000000000000000000000000000000000000000000000 PUSH28 0xFFFFFFFFFFFFFFFFFFFFFFFFFFFFFFFFFFFFFFFFFFFFFFFFFFFFFFFF NOT AND DUP3 PUSH28 0xFFFFFFFFFFFFFFFFFFFFFFFFFFFFFFFFFFFFFFFFFFFFFFFFFFFFFFFF NOT AND EQ DUP1 PUSH2 0x1DF2 JUMPI POP PUSH2 0x1DF1 DUP3 PUSH2 0x26EC JUMP JUMPDEST JUMPDEST SWAP1 POP SWAP2 SWAP1 POP JUMP JUMPDEST PUSH0 DUP1 PUSH2 0x1E04 DUP4 PUSH2 0x27CD JUMP JUMPDEST SWAP1 POP PUSH0 PUSH20 0xFFFFFFFFFFFFFFFFFFFFFFFFFFFFFFFFFFFFFFFF AND DUP2 PUSH20 0xFFFFFFFFFFFFFFFFFFFFFFFFFFFFFFFFFFFFFFFF AND SUB PUSH2 0x1E76 JUMPI DUP3 PUSH1 0x40 MLOAD PUSH32 0x7E27328900000000000000000000000000000000000000000000000000000000 DUP2 MSTORE PUSH1 0x4 ADD PUSH2 0x1E6D SWAP2 SWAP1 PUSH2 0x304E JUMP JUMPDEST PUSH1 0x40 MLOAD DUP1 SWAP2 SUB SWAP1 REVERT JUMPDEST DUP1 SWAP2 POP POP SWAP2 SWAP1 POP JUMP JUMPDEST PUSH0 PUSH1 0x4 PUSH0 DUP4 DUP2 MSTORE PUSH1 0x20 ADD SWAP1 DUP2 MSTORE PUSH1 0x20 ADD PUSH0 KECCAK256 PUSH0 SWAP1 SLOAD SWAP1 PUSH2 0x100 EXP SWAP1 DIV PUSH20 0xFFFFFFFFFFFFFFFFFFFFFFFFFFFFFFFFFFFFFFFF AND SWAP1 POP SWAP2 SWAP1 POP JUMP JUMPDEST PUSH0 CALLER SWAP1 POP SWAP1 JUMP JUMPDEST PUSH2 0x1ECC DUP4 DUP4 DUP4 PUSH1 0x1 PUSH2 0x2806 JUMP JUMPDEST POP POP POP JUMP JUMPDEST PUSH0 DUP1 PUSH2 0x1EDC DUP5 PUSH2 0x27CD JUMP JUMPDEST SWAP1 POP PUSH0 PUSH20 0xFFFFFFFFFFFFFFFFFFFFFFFFFFFFFFFFFFFFFFFF AND DUP4 PUSH20 0xFFFFFFFFFFFFFFFFFFFFFFFFFFFFFFFFFFFFFFFF AND EQ PUSH2 0x1F1D JUMPI PUSH2 0x1F1C DUP2 DUP5 DUP7 PUSH2 0x29C5 JUMP JUMPDEST JUMPDEST PUSH0 PUSH20 0xFFFFFFFFFFFFFFFFFFFFFFFFFFFFFFFFFFFFFFFF AND DUP2 PUSH20 0xFFFFFFFFFFFFFFFFFFFFFFFFFFFFFFFFFFFFFFFF AND EQ PUSH2 0x1FA8 JUMPI PUSH2 0x1F5C PUSH0 DUP6 PUSH0 DUP1 PUSH2 0x2806 JUMP JUMPDEST PUSH1 0x1 PUSH1 0x3 PUSH0 DUP4 PUSH20 0xFFFFFFFFFFFFFFFFFFFFFFFFFFFFFFFFFFFFFFFF AND PUSH20 0xFFFFFFFFFFFFFFFFFFFFFFFFFFFFFFFFFFFFFFFF AND DUP2 MSTORE PUSH1 0x20 ADD SWAP1 DUP2 MSTORE PUSH1 0x20 ADD PUSH0 KECCAK256 PUSH0 DUP3 DUP3 SLOAD SUB SWAP3 POP POP DUP2 SWAP1 SSTORE POP JUMPDEST PUSH0 PUSH20 0xFFFFFFFFFFFFFFFFFFFFFFFFFFFFFFFFFFFFFFFF AND DUP6 PUSH20 0xFFFFFFFFFFFFFFFFFFFFFFFFFFFFFFFFFFFFFFFF AND EQ PUSH2 0x2027 JUMPI PUSH1 0x1 PUSH1 0x3 PUSH0 DUP8 PUSH20 0xFFFFFFFFFFFFFFFFFFFFFFFFFFFFFFFFFFFFFFFF AND PUSH20 0xFFFFFFFFFFFFFFFFFFFFFFFFFFFFFFFFFFFFFFFF AND DUP2 MSTORE PUSH1 0x20 ADD SWAP1 DUP2 MSTORE PUSH1 0x20 ADD PUSH0 KECCAK256 PUSH0 DUP3 DUP3 SLOAD ADD SWAP3 POP POP DUP2 SWAP1 SSTORE POP JUMPDEST DUP5 PUSH1 0x2 PUSH0 DUP7 DUP2 MSTORE PUSH1 0x20 ADD SWAP1 DUP2 MSTORE PUSH1 0x20 ADD PUSH0 KECCAK256 PUSH0 PUSH2 0x100 EXP DUP2 SLOAD DUP2 PUSH20 0xFFFFFFFFFFFFFFFFFFFFFFFFFFFFFFFFFFFFFFFF MUL NOT AND SWAP1 DUP4 PUSH20 0xFFFFFFFFFFFFFFFFFFFFFFFFFFFFFFFFFFFFFFFF AND MUL OR SWAP1 SSTORE POP DUP4 DUP6 PUSH20 0xFFFFFFFFFFFFFFFFFFFFFFFFFFFFFFFFFFFFFFFF AND DUP3 PUSH20 0xFFFFFFFFFFFFFFFFFFFFFFFFFFFFFFFFFFFFFFFF AND PUSH32 0xDDF252AD1BE2C89B69C2B068FC378DAA952BA7F163C4A11628F55A4DF523B3EF PUSH1 0x40 MLOAD PUSH1 0x40 MLOAD DUP1 SWAP2 SUB SWAP1 LOG4 DUP1 SWAP2 POP POP SWAP4 SWAP3 POP POP POP JUMP JUMPDEST PUSH2 0x20ED DUP2 PUSH2 0x20E8 PUSH2 0x1EB8 JUMP JUMPDEST PUSH2 0x2A88 JUMP JUMPDEST POP JUMP JUMPDEST PUSH0 PUSH2 0x20FB DUP4 DUP4 PUSH2 0x1009 JUMP JUMPDEST PUSH2 0x21D0 JUMPI PUSH1 0x1 PUSH1 0x6 PUSH0 DUP6 DUP2 MSTORE PUSH1 0x20 ADD SWAP1 DUP2 MSTORE PUSH1 0x20 ADD PUSH0 KECCAK256 PUSH0 ADD PUSH0 DUP5 PUSH20 0xFFFFFFFFFFFFFFFFFFFFFFFFFFFFFFFFFFFFFFFF AND PUSH20 0xFFFFFFFFFFFFFFFFFFFFFFFFFFFFFFFFFFFFFFFF AND DUP2 MSTORE PUSH1 0x20 ADD SWAP1 DUP2 MSTORE PUSH1 0x20 ADD PUSH0 KECCAK256 PUSH0 PUSH2 0x100 EXP DUP2 SLOAD DUP2 PUSH1 0xFF MUL NOT AND SWAP1 DUP4 ISZERO ISZERO MUL OR SWAP1 SSTORE POP PUSH2 0x216D PUSH2 0x1EB8 JUMP JUMPDEST PUSH20 0xFFFFFFFFFFFFFFFFFFFFFFFFFFFFFFFFFFFFFFFF AND DUP3 PUSH20 0xFFFFFFFFFFFFFFFFFFFFFFFFFFFFFFFFFFFFFFFF AND DUP5 PUSH32 0x2F8788117E7EFF1D82E926EC794901D17C78024A50270940304540A733656F0D PUSH1 0x40 MLOAD PUSH1 0x40 MLOAD DUP1 SWAP2 SUB SWAP1 LOG4 PUSH1 0x1 SWAP1 POP PUSH2 0x21D4 JUMP JUMPDEST PUSH0 SWAP1 POP JUMPDEST SWAP3 SWAP2 POP POP JUMP JUMPDEST PUSH0 PUSH2 0x21E5 DUP4 DUP4 PUSH2 0x1009 JUMP JUMPDEST ISZERO PUSH2 0x22BA JUMPI PUSH0 PUSH1 0x6 PUSH0 DUP6 DUP2 MSTORE PUSH1 0x20 ADD SWAP1 DUP2 MSTORE PUSH1 0x20 ADD PUSH0 KECCAK256 PUSH0 ADD PUSH0 DUP5 PUSH20 0xFFFFFFFFFFFFFFFFFFFFFFFFFFFFFFFFFFFFFFFF AND PUSH20 0xFFFFFFFFFFFFFFFFFFFFFFFFFFFFFFFFFFFFFFFF AND DUP2 MSTORE PUSH1 0x20 ADD SWAP1 DUP2 MSTORE PUSH1 0x20 ADD PUSH0 KECCAK256 PUSH0 PUSH2 0x100 EXP DUP2 SLOAD DUP2 PUSH1 0xFF MUL NOT AND SWAP1 DUP4 ISZERO ISZERO MUL OR SWAP1 SSTORE POP PUSH2 0x2257 PUSH2 0x1EB8 JUMP JUMPDEST PUSH20 0xFFFFFFFFFFFFFFFFFFFFFFFFFFFFFFFFFFFFFFFF AND DUP3 PUSH20 0xFFFFFFFFFFFFFFFFFFFFFFFFFFFFFFFFFFFFFFFF AND DUP5 PUSH32 0xF6391F5C32D9C69D2A47EA670B442974B53935D1EDC7FD64EB21E047A839171B PUSH1 0x40 MLOAD PUSH1 0x40 MLOAD DUP1 SWAP2 SUB SWAP1 LOG4 PUSH1 0x1 SWAP1 POP PUSH2 0x22BE JUMP JUMPDEST PUSH0 SWAP1 POP JUMPDEST SWAP3 SWAP2 POP POP JUMP JUMPDEST PUSH0 PUSH20 0xFFFFFFFFFFFFFFFFFFFFFFFFFFFFFFFFFFFFFFFF AND DUP3 PUSH20 0xFFFFFFFFFFFFFFFFFFFFFFFFFFFFFFFFFFFFFFFF AND SUB PUSH2 0x2334 JUMPI DUP2 PUSH1 0x40 MLOAD PUSH32 0x5B08BA1800000000000000000000000000000000000000000000000000000000 DUP2 MSTORE PUSH1 0x4 ADD PUSH2 0x232B SWAP2 SWAP1 PUSH2 0x2DF3 JUMP JUMPDEST PUSH1 0x40 MLOAD DUP1 SWAP2 SUB SWAP1 REVERT JUMPDEST DUP1 PUSH1 0x5 PUSH0 DUP6 PUSH20 0xFFFFFFFFFFFFFFFFFFFFFFFFFFFFFFFFFFFFFFFF AND PUSH20 0xFFFFFFFFFFFFFFFFFFFFFFFFFFFFFFFFFFFFFFFF AND DUP2 MSTORE PUSH1 0x20 ADD SWAP1 DUP2 MSTORE PUSH1 0x20 ADD PUSH0 KECCAK256 PUSH0 DUP5 PUSH20 0xFFFFFFFFFFFFFFFFFFFFFFFFFFFFFFFFFFFFFFFF AND PUSH20 0xFFFFFFFFFFFFFFFFFFFFFFFFFFFFFFFFFFFFFFFF AND DUP2 MSTORE PUSH1 0x20 ADD SWAP1 DUP2 MSTORE PUSH1 0x20 ADD PUSH0 KECCAK256 PUSH0 PUSH2 0x100 EXP DUP2 SLOAD DUP2 PUSH1 0xFF MUL NOT AND SWAP1 DUP4 ISZERO ISZERO MUL OR SWAP1 SSTORE POP DUP2 PUSH20 0xFFFFFFFFFFFFFFFFFFFFFFFFFFFFFFFFFFFFFFFF AND DUP4 PUSH20 0xFFFFFFFFFFFFFFFFFFFFFFFFFFFFFFFFFFFFFFFF AND PUSH32 0x17307EAB39AB6107E8899845AD3D59BD9653F200F220920489CA2B5937696C31 DUP4 PUSH1 0x40 MLOAD PUSH2 0x2420 SWAP2 SWAP1 PUSH2 0x2C8B JUMP JUMPDEST PUSH1 0x40 MLOAD DUP1 SWAP2 SUB SWAP1 LOG3 POP POP POP JUMP JUMPDEST PUSH0 DUP4 PUSH20 0xFFFFFFFFFFFFFFFFFFFFFFFFFFFFFFFFFFFFFFFF AND EXTCODESIZE GT ISZERO PUSH2 0x25D2 JUMPI DUP3 PUSH20 0xFFFFFFFFFFFFFFFFFFFFFFFFFFFFFFFFFFFFFFFF AND PUSH4 0x150B7A02 DUP7 DUP7 DUP6 DUP6 PUSH1 0x40 MLOAD DUP6 PUSH4 0xFFFFFFFF AND PUSH1 0xE0 SHL DUP2 MSTORE PUSH1 0x4 ADD PUSH2 0x248B SWAP5 SWAP4 SWAP3 SWAP2 SWAP1 PUSH2 0x40E2 JUMP JUMPDEST PUSH1 0x20 PUSH1 0x40 MLOAD DUP1 DUP4 SUB DUP2 PUSH0 DUP8 GAS CALL SWAP3 POP POP POP DUP1 ISZERO PUSH2 0x24C6 JUMPI POP PUSH1 0x40 MLOAD RETURNDATASIZE PUSH1 0x1F NOT PUSH1 0x1F DUP3 ADD AND DUP3 ADD DUP1 PUSH1 0x40 MSTORE POP DUP2 ADD SWAP1 PUSH2 0x24C3 SWAP2 SWAP1 PUSH2 0x4140 JUMP JUMPDEST PUSH1 0x1 JUMPDEST PUSH2 0x2547 JUMPI RETURNDATASIZE DUP1 PUSH0 DUP2 EQ PUSH2 0x24F4 JUMPI PUSH1 0x40 MLOAD SWAP2 POP PUSH1 0x1F NOT PUSH1 0x3F RETURNDATASIZE ADD AND DUP3 ADD PUSH1 0x40 MSTORE RETURNDATASIZE DUP3 MSTORE RETURNDATASIZE PUSH0 PUSH1 0x20 DUP5 ADD RETURNDATACOPY PUSH2 0x24F9 JUMP JUMPDEST PUSH1 0x60 SWAP2 POP JUMPDEST POP PUSH0 DUP2 MLOAD SUB PUSH2 0x253F JUMPI DUP4 PUSH1 0x40 MLOAD PUSH32 0x64A0AE9200000000000000000000000000000000000000000000000000000000 DUP2 MSTORE PUSH1 0x4 ADD PUSH2 0x2536 SWAP2 SWAP1 PUSH2 0x2DF3 JUMP JUMPDEST PUSH1 0x40 MLOAD DUP1 SWAP2 SUB SWAP1 REVERT JUMPDEST DUP1 MLOAD DUP2 PUSH1 0x20 ADD REVERT JUMPDEST PUSH4 0x150B7A02 PUSH1 0xE0 SHL PUSH28 0xFFFFFFFFFFFFFFFFFFFFFFFFFFFFFFFFFFFFFFFFFFFFFFFFFFFFFFFF NOT AND DUP2 PUSH28 0xFFFFFFFFFFFFFFFFFFFFFFFFFFFFFFFFFFFFFFFFFFFFFFFFFFFFFFFF NOT AND EQ PUSH2 0x25D0 JUMPI DUP4 PUSH1 0x40 MLOAD PUSH32 0x64A0AE9200000000000000000000000000000000000000000000000000000000 DUP2 MSTORE PUSH1 0x4 ADD PUSH2 0x25C7 SWAP2 SWAP1 PUSH2 0x2DF3 JUMP JUMPDEST PUSH1 0x40 MLOAD DUP1 SWAP2 SUB SWAP1 REVERT JUMPDEST POP JUMPDEST POP POP POP POP POP JUMP JUMPDEST PUSH0 PUSH20 0xFFFFFFFFFFFFFFFFFFFFFFFFFFFFFFFFFFFFFFFF AND DUP3 PUSH20 0xFFFFFFFFFFFFFFFFFFFFFFFFFFFFFFFFFFFFFFFF AND SUB PUSH2 0x2649 JUMPI PUSH0 PUSH1 0x40 MLOAD PUSH32 0x64A0AE9200000000000000000000000000000000000000000000000000000000 DUP2 MSTORE PUSH1 0x4 ADD PUSH2 0x2640 SWAP2 SWAP1 PUSH2 0x2DF3 JUMP JUMPDEST PUSH1 0x40 MLOAD DUP1 SWAP2 SUB SWAP1 REVERT JUMPDEST PUSH0 PUSH2 0x2655 DUP4 DUP4 PUSH0 PUSH2 0x1ED1 JUMP JUMPDEST SWAP1 POP PUSH0 PUSH20 0xFFFFFFFFFFFFFFFFFFFFFFFFFFFFFFFFFFFFFFFF AND DUP2 PUSH20 0xFFFFFFFFFFFFFFFFFFFFFFFFFFFFFFFFFFFFFFFF AND EQ PUSH2 0x26C7 JUMPI PUSH0 PUSH1 0x40 MLOAD PUSH32 0x73C6AC6E00000000000000000000000000000000000000000000000000000000 DUP2 MSTORE PUSH1 0x4 ADD PUSH2 0x26BE SWAP2 SWAP1 PUSH2 0x2DF3 JUMP JUMPDEST PUSH1 0x40 MLOAD DUP1 SWAP2 SUB SWAP1 REVERT JUMPDEST POP POP POP JUMP JUMPDEST PUSH1 0x1 DUP2 PUSH0 ADD PUSH0 DUP3 DUP3 SLOAD ADD SWAP3 POP POP DUP2 SWAP1 SSTORE POP POP JUMP JUMPDEST PUSH0 DUP2 PUSH0 ADD SLOAD SWAP1 POP SWAP2 SWAP1 POP JUMP JUMPDEST PUSH0 PUSH32 0x80AC58CD00000000000000000000000000000000000000000000000000000000 PUSH28 0xFFFFFFFFFFFFFFFFFFFFFFFFFFFFFFFFFFFFFFFFFFFFFFFFFFFFFFFF NOT AND DUP3 PUSH28 0xFFFFFFFFFFFFFFFFFFFFFFFFFFFFFFFFFFFFFFFFFFFFFFFFFFFFFFFF NOT AND EQ DUP1 PUSH2 0x27B6 JUMPI POP PUSH32 0x5B5E139F00000000000000000000000000000000000000000000000000000000 PUSH28 0xFFFFFFFFFFFFFFFFFFFFFFFFFFFFFFFFFFFFFFFFFFFFFFFFFFFFFFFF NOT AND DUP3 PUSH28 0xFFFFFFFFFFFFFFFFFFFFFFFFFFFFFFFFFFFFFFFFFFFFFFFFFFFFFFFF NOT AND EQ JUMPDEST DUP1 PUSH2 0x27C6 JUMPI POP PUSH2 0x27C5 DUP3 PUSH2 0x2AD9 JUMP JUMPDEST JUMPDEST SWAP1 POP SWAP2 SWAP1 POP JUMP JUMPDEST PUSH0 PUSH1 0x2 PUSH0 DUP4 DUP2 MSTORE PUSH1 0x20 ADD SWAP1 DUP2 MSTORE PUSH1 0x20 ADD PUSH0 KECCAK256 PUSH0 SWAP1 SLOAD SWAP1 PUSH2 0x100 EXP SWAP1 DIV PUSH20 0xFFFFFFFFFFFFFFFFFFFFFFFFFFFFFFFFFFFFFFFF AND SWAP1 POP SWAP2 SWAP1 POP JUMP JUMPDEST DUP1 DUP1 PUSH2 0x283E JUMPI POP PUSH0 PUSH20 0xFFFFFFFFFFFFFFFFFFFFFFFFFFFFFFFFFFFFFFFF AND DUP3 PUSH20 0xFFFFFFFFFFFFFFFFFFFFFFFFFFFFFFFFFFFFFFFF AND EQ ISZERO JUMPDEST ISZERO PUSH2 0x2970 JUMPI PUSH0 PUSH2 0x284D DUP5 PUSH2 0x1DF9 JUMP JUMPDEST SWAP1 POP PUSH0 PUSH20 0xFFFFFFFFFFFFFFFFFFFFFFFFFFFFFFFFFFFFFFFF AND DUP4 PUSH20 0xFFFFFFFFFFFFFFFFFFFFFFFFFFFFFFFFFFFFFFFF AND EQ ISZERO DUP1 ISZERO PUSH2 0x28B7 JUMPI POP DUP3 PUSH20 0xFFFFFFFFFFFFFFFFFFFFFFFFFFFFFFFFFFFFFFFF AND DUP2 PUSH20 0xFFFFFFFFFFFFFFFFFFFFFFFFFFFFFFFFFFFFFFFF AND EQ ISZERO JUMPDEST DUP1 ISZERO PUSH2 0x28CA JUMPI POP PUSH2 0x28C8 DUP2 DUP5 PUSH2 0x1701 JUMP JUMPDEST ISZERO JUMPDEST ISZERO PUSH2 0x290C JUMPI DUP3 PUSH1 0x40 MLOAD PUSH32 0xA9FBF51F00000000000000000000000000000000000000000000000000000000 DUP2 MSTORE PUSH1 0x4 ADD PUSH2 0x2903 SWAP2 SWAP1 PUSH2 0x2DF3 JUMP JUMPDEST PUSH1 0x40 MLOAD DUP1 SWAP2 SUB SWAP1 REVERT JUMPDEST DUP2 ISZERO PUSH2 0x296E JUMPI DUP4 DUP6 PUSH20 0xFFFFFFFFFFFFFFFFFFFFFFFFFFFFFFFFFFFFFFFF AND DUP3 PUSH20 0xFFFFFFFFFFFFFFFFFFFFFFFFFFFFFFFFFFFFFFFF AND PUSH32 0x8C5BE1E5EBEC7D5BD14F71427D1E84F3DD0314C0F7B2291E5B200AC8C7C3B925 PUSH1 0x40 MLOAD PUSH1 0x40 MLOAD DUP1 SWAP2 SUB SWAP1 LOG4 JUMPDEST POP JUMPDEST DUP4 PUSH1 0x4 PUSH0 DUP6 DUP2 MSTORE PUSH1 0x20 ADD SWAP1 DUP2 MSTORE PUSH1 0x20 ADD PUSH0 KECCAK256 PUSH0 PUSH2 0x100 EXP DUP2 SLOAD DUP2 PUSH20 0xFFFFFFFFFFFFFFFFFFFFFFFFFFFFFFFFFFFFFFFF MUL NOT AND SWAP1 DUP4 PUSH20 0xFFFFFFFFFFFFFFFFFFFFFFFFFFFFFFFFFFFFFFFF AND MUL OR SWAP1 SSTORE POP POP POP POP POP JUMP JUMPDEST PUSH2 0x29D0 DUP4 DUP4 DUP4 PUSH2 0x2B42 JUMP JUMPDEST PUSH2 0x2A83 JUMPI PUSH0 PUSH20 0xFFFFFFFFFFFFFFFFFFFFFFFFFFFFFFFFFFFFFFFF AND DUP4 PUSH20 0xFFFFFFFFFFFFFFFFFFFFFFFFFFFFFFFFFFFFFFFF AND SUB PUSH2 0x2A44 JUMPI DUP1 PUSH1 0x40 MLOAD PUSH32 0x7E27328900000000000000000000000000000000000000000000000000000000 DUP2 MSTORE PUSH1 0x4 ADD PUSH2 0x2A3B SWAP2 SWAP1 PUSH2 0x304E JUMP JUMPDEST PUSH1 0x40 MLOAD DUP1 SWAP2 SUB SWAP1 REVERT JUMPDEST DUP2 DUP2 PUSH1 0x40 MLOAD PUSH32 0x177E802F00000000000000000000000000000000000000000000000000000000 DUP2 MSTORE PUSH1 0x4 ADD PUSH2 0x2A7A SWAP3 SWAP2 SWAP1 PUSH2 0x416B JUMP JUMPDEST PUSH1 0x40 MLOAD DUP1 SWAP2 SUB SWAP1 REVERT JUMPDEST POP POP POP JUMP JUMPDEST PUSH2 0x2A92 DUP3 DUP3 PUSH2 0x1009 JUMP JUMPDEST PUSH2 0x2AD5 JUMPI DUP1 DUP3 PUSH1 0x40 MLOAD PUSH32 0xE2517D3F00000000000000000000000000000000000000000000000000000000 DUP2 MSTORE PUSH1 0x4 ADD PUSH2 0x2ACC SWAP3 SWAP2 SWAP1 PUSH2 0x4192 JUMP JUMPDEST PUSH1 0x40 MLOAD DUP1 SWAP2 SUB SWAP1 REVERT JUMPDEST POP POP JUMP JUMPDEST PUSH0 PUSH32 0x1FFC9A700000000000000000000000000000000000000000000000000000000 PUSH28 0xFFFFFFFFFFFFFFFFFFFFFFFFFFFFFFFFFFFFFFFFFFFFFFFFFFFFFFFF NOT AND DUP3 PUSH28 0xFFFFFFFFFFFFFFFFFFFFFFFFFFFFFFFFFFFFFFFFFFFFFFFFFFFFFFFF NOT AND EQ SWAP1 POP SWAP2 SWAP1 POP JUMP JUMPDEST PUSH0 DUP1 PUSH20 0xFFFFFFFFFFFFFFFFFFFFFFFFFFFFFFFFFFFFFFFF AND DUP4 PUSH20 0xFFFFFFFFFFFFFFFFFFFFFFFFFFFFFFFFFFFFFFFF AND EQ ISZERO DUP1 ISZERO PUSH2 0x2BF9 JUMPI POP DUP3 PUSH20 0xFFFFFFFFFFFFFFFFFFFFFFFFFFFFFFFFFFFFFFFF AND DUP5 PUSH20 0xFFFFFFFFFFFFFFFFFFFFFFFFFFFFFFFFFFFFFFFF AND EQ DUP1 PUSH2 0x2BBA JUMPI POP PUSH2 0x2BB9 DUP5 DUP5 PUSH2 0x1701 JUMP JUMPDEST JUMPDEST DUP1 PUSH2 0x2BF8 JUMPI POP DUP3 PUSH20 0xFFFFFFFFFFFFFFFFFFFFFFFFFFFFFFFFFFFFFFFF AND PUSH2 0x2BE0 DUP4 PUSH2 0x1E7F JUMP JUMPDEST PUSH20 0xFFFFFFFFFFFFFFFFFFFFFFFFFFFFFFFFFFFFFFFF AND EQ JUMPDEST JUMPDEST SWAP1 POP SWAP4 SWAP3 POP POP POP JUMP JUMPDEST PUSH0 PUSH1 0x40 MLOAD SWAP1 POP SWAP1 JUMP JUMPDEST PUSH0 DUP1 REVERT JUMPDEST PUSH0 DUP1 REVERT JUMPDEST PUSH0 DUP2 SWAP1 POP SWAP2 SWAP1 POP JUMP JUMPDEST PUSH2 0x2C25 DUP2 PUSH2 0x2C13 JUMP JUMPDEST DUP2 EQ PUSH2 0x2C2F JUMPI PUSH0 DUP1 REVERT JUMPDEST POP JUMP JUMPDEST PUSH0 DUP2 CALLDATALOAD SWAP1 POP PUSH2 0x2C40 DUP2 PUSH2 0x2C1C JUMP JUMPDEST SWAP3 SWAP2 POP POP JUMP JUMPDEST PUSH0 PUSH1 0x20 DUP3 DUP5 SUB SLT ISZERO PUSH2 0x2C5B JUMPI PUSH2 0x2C5A PUSH2 0x2C0B JUMP JUMPDEST JUMPDEST PUSH0 PUSH2 0x2C68 DUP5 DUP3 DUP6 ADD PUSH2 0x2C32 JUMP JUMPDEST SWAP2 POP POP SWAP3 SWAP2 POP POP JUMP JUMPDEST PUSH0 DUP2 ISZERO ISZERO SWAP1 POP SWAP2 SWAP1 POP JUMP JUMPDEST PUSH2 0x2C85 DUP2 PUSH2 0x2C71 JUMP JUMPDEST DUP3 MSTORE POP POP JUMP JUMPDEST PUSH0 PUSH1 0x20 DUP3 ADD SWAP1 POP PUSH2 0x2C9E PUSH0 DUP4 ADD DUP5 PUSH2 0x2C7C JUMP JUMPDEST SWAP3 SWAP2 POP POP JUMP JUMPDEST PUSH0 PUSH32 0xFFFFFFFF00000000000000000000000000000000000000000000000000000000 DUP3 AND SWAP1 POP SWAP2 SWAP1 POP JUMP JUMPDEST PUSH2 0x2CD8 DUP2 PUSH2 0x2CA4 JUMP JUMPDEST DUP2 EQ PUSH2 0x2CE2 JUMPI PUSH0 DUP1 REVERT JUMPDEST POP JUMP JUMPDEST PUSH0 DUP2 CALLDATALOAD SWAP1 POP PUSH2 0x2CF3 DUP2 PUSH2 0x2CCF JUMP JUMPDEST SWAP3 SWAP2 POP POP JUMP JUMPDEST PUSH0 PUSH1 0x20 DUP3 DUP5 SUB SLT ISZERO PUSH2 0x2D0E JUMPI PUSH2 0x2D0D PUSH2 0x2C0B JUMP JUMPDEST JUMPDEST PUSH0 PUSH2 0x2D1B DUP5 DUP3 DUP6 ADD PUSH2 0x2CE5 JUMP JUMPDEST SWAP2 POP POP SWAP3 SWAP2 POP POP JUMP JUMPDEST PUSH0 DUP2 MLOAD SWAP1 POP SWAP2 SWAP1 POP JUMP JUMPDEST PUSH0 DUP3 DUP3 MSTORE PUSH1 0x20 DUP3 ADD SWAP1 POP SWAP3 SWAP2 POP POP JUMP JUMPDEST DUP3 DUP2 DUP4 MCOPY PUSH0 DUP4 DUP4 ADD MSTORE POP POP POP JUMP JUMPDEST PUSH0 PUSH1 0x1F NOT PUSH1 0x1F DUP4 ADD AND SWAP1 POP SWAP2 SWAP1 POP JUMP JUMPDEST PUSH0 PUSH2 0x2D66 DUP3 PUSH2 0x2D24 JUMP JUMPDEST PUSH2 0x2D70 DUP2 DUP6 PUSH2 0x2D2E JUMP JUMPDEST SWAP4 POP PUSH2 0x2D80 DUP2 DUP6 PUSH1 0x20 DUP7 ADD PUSH2 0x2D3E JUMP JUMPDEST PUSH2 0x2D89 DUP2 PUSH2 0x2D4C JUMP JUMPDEST DUP5 ADD SWAP2 POP POP SWAP3 SWAP2 POP POP JUMP JUMPDEST PUSH0 PUSH1 0x20 DUP3 ADD SWAP1 POP DUP2 DUP2 SUB PUSH0 DUP4 ADD MSTORE PUSH2 0x2DAC DUP2 DUP5 PUSH2 0x2D5C JUMP JUMPDEST SWAP1 POP SWAP3 SWAP2 POP POP JUMP JUMPDEST PUSH0 PUSH20 0xFFFFFFFFFFFFFFFFFFFFFFFFFFFFFFFFFFFFFFFF DUP3 AND SWAP1 POP SWAP2 SWAP1 POP JUMP JUMPDEST PUSH0 PUSH2 0x2DDD DUP3 PUSH2 0x2DB4 JUMP JUMPDEST SWAP1 POP SWAP2 SWAP1 POP JUMP JUMPDEST PUSH2 0x2DED DUP2 PUSH2 0x2DD3 JUMP JUMPDEST DUP3 MSTORE POP POP JUMP JUMPDEST PUSH0 PUSH1 0x20 DUP3 ADD SWAP1 POP PUSH2 0x2E06 PUSH0 DUP4 ADD DUP5 PUSH2 0x2DE4 JUMP JUMPDEST SWAP3 SWAP2 POP POP JUMP JUMPDEST PUSH2 0x2E15 DUP2 PUSH2 0x2DD3 JUMP JUMPDEST DUP2 EQ PUSH2 0x2E1F JUMPI PUSH0 DUP1 REVERT JUMPDEST POP JUMP JUMPDEST PUSH0 DUP2 CALLDATALOAD SWAP1 POP PUSH2 0x2E30 DUP2 PUSH2 0x2E0C JUMP JUMPDEST SWAP3 SWAP2 POP POP JUMP JUMPDEST PUSH0 DUP1 PUSH1 0x40 DUP4 DUP6 SUB SLT ISZERO PUSH2 0x2E4C JUMPI PUSH2 0x2E4B PUSH2 0x2C0B JUMP JUMPDEST JUMPDEST PUSH0 PUSH2 0x2E59 DUP6 DUP3 DUP7 ADD PUSH2 0x2E22 JUMP JUMPDEST SWAP3 POP POP PUSH1 0x20 PUSH2 0x2E6A DUP6 DUP3 DUP7 ADD PUSH2 0x2C32 JUMP JUMPDEST SWAP2 POP POP SWAP3 POP SWAP3 SWAP1 POP JUMP JUMPDEST PUSH0 DUP1 PUSH0 PUSH1 0x60 DUP5 DUP7 SUB SLT ISZERO PUSH2 0x2E8B JUMPI PUSH2 0x2E8A PUSH2 0x2C0B JUMP JUMPDEST JUMPDEST PUSH0 PUSH2 0x2E98 DUP7 DUP3 DUP8 ADD PUSH2 0x2E22 JUMP JUMPDEST SWAP4 POP POP PUSH1 0x20 PUSH2 0x2EA9 DUP7 DUP3 DUP8 ADD PUSH2 0x2E22 JUMP JUMPDEST SWAP3 POP POP PUSH1 0x40 PUSH2 0x2EBA DUP7 DUP3 DUP8 ADD PUSH2 0x2C32 JUMP JUMPDEST SWAP2 POP POP SWAP3 POP SWAP3 POP SWAP3 JUMP JUMPDEST PUSH0 DUP2 SWAP1 POP SWAP2 SWAP1 POP JUMP JUMPDEST PUSH2 0x2ED6 DUP2 PUSH2 0x2EC4 JUMP JUMPDEST DUP2 EQ PUSH2 0x2EE0 JUMPI PUSH0 DUP1 REVERT JUMPDEST POP JUMP JUMPDEST PUSH0 DUP2 CALLDATALOAD SWAP1 POP PUSH2 0x2EF1 DUP2 PUSH2 0x2ECD JUMP JUMPDEST SWAP3 SWAP2 POP POP JUMP JUMPDEST PUSH0 PUSH1 0x20 DUP3 DUP5 SUB SLT ISZERO PUSH2 0x2F0C JUMPI PUSH2 0x2F0B PUSH2 0x2C0B JUMP JUMPDEST JUMPDEST PUSH0 PUSH2 0x2F19 DUP5 DUP3 DUP6 ADD PUSH2 0x2EE3 JUMP JUMPDEST SWAP2 POP POP SWAP3 SWAP2 POP POP JUMP JUMPDEST PUSH2 0x2F2B DUP2 PUSH2 0x2EC4 JUMP JUMPDEST DUP3 MSTORE POP POP JUMP JUMPDEST PUSH0 PUSH1 0x20 DUP3 ADD SWAP1 POP PUSH2 0x2F44 PUSH0 DUP4 ADD DUP5 PUSH2 0x2F22 JUMP JUMPDEST SWAP3 SWAP2 POP POP JUMP JUMPDEST PUSH32 0x4E487B7100000000000000000000000000000000000000000000000000000000 PUSH0 MSTORE PUSH1 0x21 PUSH1 0x4 MSTORE PUSH1 0x24 PUSH0 REVERT JUMPDEST PUSH1 0x3 DUP2 LT PUSH2 0x2F88 JUMPI PUSH2 0x2F87 PUSH2 0x2F4A JUMP JUMPDEST JUMPDEST POP JUMP JUMPDEST PUSH0 DUP2 SWAP1 POP PUSH2 0x2F98 DUP3 PUSH2 0x2F77 JUMP JUMPDEST SWAP2 SWAP1 POP JUMP JUMPDEST PUSH0 PUSH2 0x2FA7 DUP3 PUSH2 0x2F8B JUMP JUMPDEST SWAP1 POP SWAP2 SWAP1 POP JUMP JUMPDEST PUSH2 0x2FB7 DUP2 PUSH2 0x2F9D JUMP JUMPDEST DUP3 MSTORE POP POP JUMP JUMPDEST PUSH0 PUSH1 0x20 DUP3 ADD SWAP1 POP PUSH2 0x2FD0 PUSH0 DUP4 ADD DUP5 PUSH2 0x2FAE JUMP JUMPDEST SWAP3 SWAP2 POP POP JUMP JUMPDEST PUSH0 DUP1 PUSH1 0x40 DUP4 DUP6 SUB SLT ISZERO PUSH2 0x2FEC JUMPI PUSH2 0x2FEB PUSH2 0x2C0B JUMP JUMPDEST JUMPDEST PUSH0 PUSH2 0x2FF9 DUP6 DUP3 DUP7 ADD PUSH2 0x2EE3 JUMP JUMPDEST SWAP3 POP POP PUSH1 0x20 PUSH2 0x300A DUP6 DUP3 DUP7 ADD PUSH2 0x2E22 JUMP JUMPDEST SWAP2 POP POP SWAP3 POP SWAP3 SWAP1 POP JUMP JUMPDEST PUSH0 PUSH1 0x20 DUP3 DUP5 SUB SLT ISZERO PUSH2 0x3029 JUMPI PUSH2 0x3028 PUSH2 0x2C0B JUMP JUMPDEST JUMPDEST PUSH0 PUSH2 0x3036 DUP5 DUP3 DUP6 ADD PUSH2 0x2E22 JUMP JUMPDEST SWAP2 POP POP SWAP3 SWAP2 POP POP JUMP JUMPDEST PUSH2 0x3048 DUP2 PUSH2 0x2C13 JUMP JUMPDEST DUP3 MSTORE POP POP JUMP JUMPDEST PUSH0 PUSH1 0x20 DUP3 ADD SWAP1 POP PUSH2 0x3061 PUSH0 DUP4 ADD DUP5 PUSH2 0x303F JUMP JUMPDEST SWAP3 SWAP2 POP POP JUMP JUMPDEST PUSH0 DUP1 PUSH1 0x40 DUP4 DUP6 SUB SLT ISZERO PUSH2 0x307D JUMPI PUSH2 0x307C PUSH2 0x2C0B JUMP JUMPDEST JUMPDEST PUSH0 PUSH2 0x308A DUP6 DUP3 DUP7 ADD PUSH2 0x2C32 JUMP JUMPDEST SWAP3 POP POP PUSH1 0x20 PUSH2 0x309B DUP6 DUP3 DUP7 ADD PUSH2 0x2C32 JUMP JUMPDEST SWAP2 POP POP SWAP3 POP SWAP3 SWAP1 POP JUMP JUMPDEST PUSH0 DUP1 PUSH1 0x40 DUP4 DUP6 SUB SLT ISZERO PUSH2 0x30BB JUMPI PUSH2 0x30BA PUSH2 0x2C0B JUMP JUMPDEST JUMPDEST PUSH0 PUSH2 0x30C8 DUP6 DUP3 DUP7 ADD PUSH2 0x2C32 JUMP JUMPDEST SWAP3 POP POP PUSH1 0x20 PUSH2 0x30D9 DUP6 DUP3 DUP7 ADD PUSH2 0x2E22 JUMP JUMPDEST SWAP2 POP POP SWAP3 POP SWAP3 SWAP1 POP JUMP JUMPDEST PUSH0 PUSH2 0x140 DUP3 ADD SWAP1 POP DUP2 DUP2 SUB PUSH0 DUP4 ADD MSTORE PUSH2 0x30FC DUP2 DUP14 PUSH2 0x2D5C JUMP JUMPDEST SWAP1 POP PUSH2 0x310B PUSH1 0x20 DUP4 ADD DUP13 PUSH2 0x2DE4 JUMP JUMPDEST PUSH2 0x3118 PUSH1 0x40 DUP4 ADD DUP12 PUSH2 0x303F JUMP JUMPDEST PUSH2 0x3125 PUSH1 0x60 DUP4 ADD DUP11 PUSH2 0x2C7C JUMP JUMPDEST PUSH2 0x3132 PUSH1 0x80 DUP4 ADD DUP10 PUSH2 0x303F JUMP JUMPDEST PUSH2 0x313F PUSH1 0xA0 DUP4 ADD DUP9 PUSH2 0x2C7C JUMP JUMPDEST PUSH2 0x314C PUSH1 0xC0 DUP4 ADD DUP8 PUSH2 0x2C7C JUMP JUMPDEST PUSH2 0x3159 PUSH1 0xE0 DUP4 ADD DUP7 PUSH2 0x303F JUMP JUMPDEST PUSH2 0x3167 PUSH2 0x100 DUP4 ADD DUP6 PUSH2 0x2C7C JUMP JUMPDEST PUSH2 0x3175 PUSH2 0x120 DUP4 ADD DUP5 PUSH2 0x2FAE JUMP JUMPDEST SWAP12 SWAP11 POP POP POP POP POP POP POP POP POP POP POP JUMP JUMPDEST PUSH2 0x318D DUP2 PUSH2 0x2C71 JUMP JUMPDEST DUP2 EQ PUSH2 0x3197 JUMPI PUSH0 DUP1 REVERT JUMPDEST POP JUMP JUMPDEST PUSH0 DUP2 CALLDATALOAD SWAP1 POP PUSH2 0x31A8 DUP2 PUSH2 0x3184 JUMP JUMPDEST SWAP3 SWAP2 POP POP JUMP JUMPDEST PUSH0 DUP1 PUSH1 0x40 DUP4 DUP6 SUB SLT ISZERO PUSH2 0x31C4 JUMPI PUSH2 0x31C3 PUSH2 0x2C0B JUMP JUMPDEST JUMPDEST PUSH0 PUSH2 0x31D1 DUP6 DUP3 DUP7 ADD PUSH2 0x2E22 JUMP JUMPDEST SWAP3 POP POP PUSH1 0x20 PUSH2 0x31E2 DUP6 DUP3 DUP7 ADD PUSH2 0x319A JUMP JUMPDEST SWAP2 POP POP SWAP3 POP SWAP3 SWAP1 POP JUMP JUMPDEST PUSH0 DUP1 REVERT JUMPDEST PUSH0 DUP1 REVERT JUMPDEST PUSH32 0x4E487B7100000000000000000000000000000000000000000000000000000000 PUSH0 MSTORE PUSH1 0x41 PUSH1 0x4 MSTORE PUSH1 0x24 PUSH0 REVERT JUMPDEST PUSH2 0x322A DUP3 PUSH2 0x2D4C JUMP JUMPDEST DUP2 ADD DUP2 DUP2 LT PUSH8 0xFFFFFFFFFFFFFFFF DUP3 GT OR ISZERO PUSH2 0x3249 JUMPI PUSH2 0x3248 PUSH2 0x31F4 JUMP JUMPDEST JUMPDEST DUP1 PUSH1 0x40 MSTORE POP POP POP JUMP JUMPDEST PUSH0 PUSH2 0x325B PUSH2 0x2C02 JUMP JUMPDEST SWAP1 POP PUSH2 0x3267 DUP3 DUP3 PUSH2 0x3221 JUMP JUMPDEST SWAP2 SWAP1 POP JUMP JUMPDEST PUSH0 PUSH8 0xFFFFFFFFFFFFFFFF DUP3 GT ISZERO PUSH2 0x3286 JUMPI PUSH2 0x3285 PUSH2 0x31F4 JUMP JUMPDEST JUMPDEST PUSH2 0x328F DUP3 PUSH2 0x2D4C JUMP JUMPDEST SWAP1 POP PUSH1 0x20 DUP2 ADD SWAP1 POP SWAP2 SWAP1 POP JUMP JUMPDEST DUP3 DUP2 DUP4 CALLDATACOPY PUSH0 DUP4 DUP4 ADD MSTORE POP POP POP JUMP JUMPDEST PUSH0 PUSH2 0x32BC PUSH2 0x32B7 DUP5 PUSH2 0x326C JUMP JUMPDEST PUSH2 0x3252 JUMP JUMPDEST SWAP1 POP DUP3 DUP2 MSTORE PUSH1 0x20 DUP2 ADD DUP5 DUP5 DUP5 ADD GT ISZERO PUSH2 0x32D8 JUMPI PUSH2 0x32D7 PUSH2 0x31F0 JUMP JUMPDEST JUMPDEST PUSH2 0x32E3 DUP5 DUP3 DUP6 PUSH2 0x329C JUMP JUMPDEST POP SWAP4 SWAP3 POP POP POP JUMP JUMPDEST PUSH0 DUP3 PUSH1 0x1F DUP4 ADD SLT PUSH2 0x32FF JUMPI PUSH2 0x32FE PUSH2 0x31EC JUMP JUMPDEST JUMPDEST DUP2 CALLDATALOAD PUSH2 0x330F DUP5 DUP3 PUSH1 0x20 DUP7 ADD PUSH2 0x32AA JUMP JUMPDEST SWAP2 POP POP SWAP3 SWAP2 POP POP JUMP JUMPDEST PUSH0 DUP1 PUSH0 DUP1 PUSH1 0x80 DUP6 DUP8 SUB SLT ISZERO PUSH2 0x3330 JUMPI PUSH2 0x332F PUSH2 0x2C0B JUMP JUMPDEST JUMPDEST PUSH0 PUSH2 0x333D DUP8 DUP3 DUP9 ADD PUSH2 0x2E22 JUMP JUMPDEST SWAP5 POP POP PUSH1 0x20 PUSH2 0x334E DUP8 DUP3 DUP9 ADD PUSH2 0x2E22 JUMP JUMPDEST SWAP4 POP POP PUSH1 0x40 PUSH2 0x335F DUP8 DUP3 DUP9 ADD PUSH2 0x2C32 JUMP JUMPDEST SWAP3 POP POP PUSH1 0x60 DUP6 ADD CALLDATALOAD PUSH8 0xFFFFFFFFFFFFFFFF DUP2 GT ISZERO PUSH2 0x3380 JUMPI PUSH2 0x337F PUSH2 0x2C0F JUMP JUMPDEST JUMPDEST PUSH2 0x338C DUP8 DUP3 DUP9 ADD PUSH2 0x32EB JUMP JUMPDEST SWAP2 POP POP SWAP3 SWAP6 SWAP2 SWAP5 POP SWAP3 POP JUMP JUMPDEST PUSH0 DUP1 PUSH1 0x40 DUP4 DUP6 SUB SLT ISZERO PUSH2 0x33AE JUMPI PUSH2 0x33AD PUSH2 0x2C0B JUMP JUMPDEST JUMPDEST PUSH0 PUSH2 0x33BB DUP6 DUP3 DUP7 ADD PUSH2 0x2E22 JUMP JUMPDEST SWAP3 POP POP PUSH1 0x20 PUSH2 0x33CC DUP6 DUP3 DUP7 ADD PUSH2 0x2E22 JUMP JUMPDEST SWAP2 POP POP SWAP3 POP SWAP3 SWAP1 POP JUMP JUMPDEST PUSH0 PUSH8 0xFFFFFFFFFFFFFFFF DUP3 GT ISZERO PUSH2 0x33F0 JUMPI PUSH2 0x33EF PUSH2 0x31F4 JUMP JUMPDEST JUMPDEST PUSH2 0x33F9 DUP3 PUSH2 0x2D4C JUMP JUMPDEST SWAP1 POP PUSH1 0x20 DUP2 ADD SWAP1 POP SWAP2 SWAP1 POP JUMP JUMPDEST PUSH0 PUSH2 0x3418 PUSH2 0x3413 DUP5 PUSH2 0x33D6 JUMP JUMPDEST PUSH2 0x3252 JUMP JUMPDEST SWAP1 POP DUP3 DUP2 MSTORE PUSH1 0x20 DUP2 ADD DUP5 DUP5 DUP5 ADD GT ISZERO PUSH2 0x3434 JUMPI PUSH2 0x3433 PUSH2 0x31F0 JUMP JUMPDEST JUMPDEST PUSH2 0x343F DUP5 DUP3 DUP6 PUSH2 0x329C JUMP JUMPDEST POP SWAP4 SWAP3 POP POP POP JUMP JUMPDEST PUSH0 DUP3 PUSH1 0x1F DUP4 ADD SLT PUSH2 0x345B JUMPI PUSH2 0x345A PUSH2 0x31EC JUMP JUMPDEST JUMPDEST DUP2 CALLDATALOAD PUSH2 0x346B DUP5 DUP3 PUSH1 0x20 DUP7 ADD PUSH2 0x3406 JUMP JUMPDEST SWAP2 POP POP SWAP3 SWAP2 POP POP JUMP JUMPDEST PUSH0 PUSH8 0xFFFFFFFFFFFFFFFF DUP3 GT ISZERO PUSH2 0x348E JUMPI PUSH2 0x348D PUSH2 0x31F4 JUMP JUMPDEST JUMPDEST PUSH1 0x20 DUP3 MUL SWAP1 POP PUSH1 0x20 DUP2 ADD SWAP1 POP SWAP2 SWAP1 POP JUMP JUMPDEST PUSH0 DUP1 REVERT JUMPDEST PUSH0 PUSH2 0x34B5 PUSH2 0x34B0 DUP5 PUSH2 0x3474 JUMP JUMPDEST PUSH2 0x3252 JUMP JUMPDEST SWAP1 POP DUP1 DUP4 DUP3 MSTORE PUSH1 0x20 DUP3 ADD SWAP1 POP PUSH1 0x20 DUP5 MUL DUP4 ADD DUP6 DUP2 GT ISZERO PUSH2 0x34D8 JUMPI PUSH2 0x34D7 PUSH2 0x349F JUMP JUMPDEST JUMPDEST DUP4 JUMPDEST DUP2 DUP2 LT ISZERO PUSH2 0x3501 JUMPI DUP1 PUSH2 0x34ED DUP9 DUP3 PUSH2 0x2E22 JUMP JUMPDEST DUP5 MSTORE PUSH1 0x20 DUP5 ADD SWAP4 POP POP PUSH1 0x20 DUP2 ADD SWAP1 POP PUSH2 0x34DA JUMP JUMPDEST POP POP POP SWAP4 SWAP3 POP POP POP JUMP JUMPDEST PUSH0 DUP3 PUSH1 0x1F DUP4 ADD SLT PUSH2 0x351F JUMPI PUSH2 0x351E PUSH2 0x31EC JUMP JUMPDEST JUMPDEST DUP2 CALLDATALOAD PUSH2 0x352F DUP5 DUP3 PUSH1 0x20 DUP7 ADD PUSH2 0x34A3 JUMP JUMPDEST SWAP2 POP POP SWAP3 SWAP2 POP POP JUMP JUMPDEST PUSH1 0x3 DUP2 LT PUSH2 0x3544 JUMPI PUSH0 DUP1 REVERT JUMPDEST POP JUMP JUMPDEST PUSH0 DUP2 CALLDATALOAD SWAP1 POP PUSH2 0x3555 DUP2 PUSH2 0x3538 JUMP JUMPDEST SWAP3 SWAP2 POP POP JUMP JUMPDEST PUSH0 DUP1 PUSH0 DUP1 PUSH0 DUP1 PUSH0 DUP1 PUSH2 0x100 DUP10 DUP12 SUB SLT ISZERO PUSH2 0x3578 JUMPI PUSH2 0x3577 PUSH2 0x2C0B JUMP JUMPDEST JUMPDEST PUSH0 PUSH2 0x3585 DUP12 DUP3 DUP13 ADD PUSH2 0x2E22 JUMP JUMPDEST SWAP9 POP POP PUSH1 0x20 DUP10 ADD CALLDATALOAD PUSH8 0xFFFFFFFFFFFFFFFF DUP2 GT ISZERO PUSH2 0x35A6 JUMPI PUSH2 0x35A5 PUSH2 0x2C0F JUMP JUMPDEST JUMPDEST PUSH2 0x35B2 DUP12 DUP3 DUP13 ADD PUSH2 0x3447 JUMP JUMPDEST SWAP8 POP POP PUSH1 0x40 PUSH2 0x35C3 DUP12 DUP3 DUP13 ADD PUSH2 0x2C32 JUMP JUMPDEST SWAP7 POP POP PUSH1 0x60 PUSH2 0x35D4 DUP12 DUP3 DUP13 ADD PUSH2 0x319A JUMP JUMPDEST SWAP6 POP POP PUSH1 0x80 DUP10 ADD CALLDATALOAD PUSH8 0xFFFFFFFFFFFFFFFF DUP2 GT ISZERO PUSH2 0x35F5 JUMPI PUSH2 0x35F4 PUSH2 0x2C0F JUMP JUMPDEST JUMPDEST PUSH2 0x3601 DUP12 DUP3 DUP13 ADD PUSH2 0x350B JUMP JUMPDEST SWAP5 POP POP PUSH1 0xA0 PUSH2 0x3612 DUP12 DUP3 DUP13 ADD PUSH2 0x319A JUMP JUMPDEST SWAP4 POP POP PUSH1 0xC0 PUSH2 0x3623 DUP12 DUP3 DUP13 ADD PUSH2 0x2C32 JUMP JUMPDEST SWAP3 POP POP PUSH1 0xE0 PUSH2 0x3634 DUP12 DUP3 DUP13 ADD PUSH2 0x3547 JUMP JUMPDEST SWAP2 POP POP SWAP3 SWAP6 SWAP9 POP SWAP3 SWAP6 SWAP9 SWAP1 SWAP4 SWAP7 POP JUMP JUMPDEST PUSH0 DUP2 MLOAD SWAP1 POP PUSH2 0x3652 DUP2 PUSH2 0x2E0C JUMP JUMPDEST SWAP3 SWAP2 POP POP JUMP JUMPDEST PUSH0 PUSH1 0x20 DUP3 DUP5 SUB SLT ISZERO PUSH2 0x366D JUMPI PUSH2 0x366C PUSH2 0x2C0B JUMP JUMPDEST JUMPDEST PUSH0 PUSH2 0x367A DUP5 DUP3 DUP6 ADD PUSH2 0x3644 JUMP JUMPDEST SWAP2 POP POP SWAP3 SWAP2 POP POP JUMP JUMPDEST PUSH32 0x4E487B7100000000000000000000000000000000000000000000000000000000 PUSH0 MSTORE PUSH1 0x22 PUSH1 0x4 MSTORE PUSH1 0x24 PUSH0 REVERT JUMPDEST PUSH0 PUSH1 0x2 DUP3 DIV SWAP1 POP PUSH1 0x1 DUP3 AND DUP1 PUSH2 0x36C7 JUMPI PUSH1 0x7F DUP3 AND SWAP2 POP JUMPDEST PUSH1 0x20 DUP3 LT DUP2 SUB PUSH2 0x36DA JUMPI PUSH2 0x36D9 PUSH2 0x3683 JUMP JUMPDEST JUMPDEST POP SWAP2 SWAP1 POP JUMP JUMPDEST PUSH0 PUSH1 0x60 DUP3 ADD SWAP1 POP PUSH2 0x36F3 PUSH0 DUP4 ADD DUP7 PUSH2 0x2DE4 JUMP JUMPDEST PUSH2 0x3700 PUSH1 0x20 DUP4 ADD DUP6 PUSH2 0x303F JUMP JUMPDEST PUSH2 0x370D PUSH1 0x40 DUP4 ADD DUP5 PUSH2 0x2DE4 JUMP JUMPDEST SWAP5 SWAP4 POP POP POP POP JUMP JUMPDEST PUSH32 0x4E465420646F6573206E6F742065786973740000000000000000000000000000 PUSH0 DUP3 ADD MSTORE POP JUMP JUMPDEST PUSH0 PUSH2 0x3749 PUSH1 0x12 DUP4 PUSH2 0x2D2E JUMP JUMPDEST SWAP2 POP PUSH2 0x3754 DUP3 PUSH2 0x3715 JUMP JUMPDEST PUSH1 0x20 DUP3 ADD SWAP1 POP SWAP2 SWAP1 POP JUMP JUMPDEST PUSH0 PUSH1 0x20 DUP3 ADD SWAP1 POP DUP2 DUP2 SUB PUSH0 DUP4 ADD MSTORE PUSH2 0x3776 DUP2 PUSH2 0x373D JUMP JUMPDEST SWAP1 POP SWAP2 SWAP1 POP JUMP JUMPDEST PUSH32 0x4F6E6C79206F776E65722063616E207570646174652070726963650000000000 PUSH0 DUP3 ADD MSTORE POP JUMP JUMPDEST PUSH0 PUSH2 0x37B1 PUSH1 0x1B DUP4 PUSH2 0x2D2E JUMP JUMPDEST SWAP2 POP PUSH2 0x37BC DUP3 PUSH2 0x377D JUMP JUMPDEST PUSH1 0x20 DUP3 ADD SWAP1 POP SWAP2 SWAP1 POP JUMP JUMPDEST PUSH0 PUSH1 0x20 DUP3 ADD SWAP1 POP DUP2 DUP2 SUB PUSH0 DUP4 ADD MSTORE PUSH2 0x37DE DUP2 PUSH2 0x37A5 JUMP JUMPDEST SWAP1 POP SWAP2 SWAP1 POP JUMP JUMPDEST PUSH0 PUSH1 0x40 DUP3 ADD SWAP1 POP PUSH2 0x37F8 PUSH0 DUP4 ADD DUP6 PUSH2 0x303F JUMP JUMPDEST PUSH2 0x3805 PUSH1 0x20 DUP4 ADD DUP5 PUSH2 0x303F JUMP JUMPDEST SWAP4 SWAP3 POP POP POP JUMP JUMPDEST PUSH32 0x4E487B7100000000000000000000000000000000000000000000000000000000 PUSH0 MSTORE PUSH1 0x32 PUSH1 0x4 MSTORE PUSH1 0x24 PUSH0 REVERT JUMPDEST PUSH32 0x546F6B656E20646F6573206E6F74206578697374000000000000000000000000 PUSH0 DUP3 ADD MSTORE POP JUMP JUMPDEST PUSH0 PUSH2 0x386D PUSH1 0x14 DUP4 PUSH2 0x2D2E JUMP JUMPDEST SWAP2 POP PUSH2 0x3878 DUP3 PUSH2 0x3839 JUMP JUMPDEST PUSH1 0x20 DUP3 ADD SWAP1 POP SWAP2 SWAP1 POP JUMP JUMPDEST PUSH0 PUSH1 0x20 DUP3 ADD SWAP1 POP DUP2 DUP2 SUB PUSH0 DUP4 ADD MSTORE PUSH2 0x389A DUP2 PUSH2 0x3861 JUMP JUMPDEST SWAP1 POP SWAP2 SWAP1 POP JUMP JUMPDEST PUSH32 0x4E465420616C72656164792076616C6964617465640000000000000000000000 PUSH0 DUP3 ADD MSTORE POP JUMP JUMPDEST PUSH0 PUSH2 0x38D5 PUSH1 0x15 DUP4 PUSH2 0x2D2E JUMP JUMPDEST SWAP2 POP PUSH2 0x38E0 DUP3 PUSH2 0x38A1 JUMP JUMPDEST PUSH1 0x20 DUP3 ADD SWAP1 POP SWAP2 SWAP1 POP JUMP JUMPDEST PUSH0 PUSH1 0x20 DUP3 ADD SWAP1 POP DUP2 DUP2 SUB PUSH0 DUP4 ADD MSTORE PUSH2 0x3902 DUP2 PUSH2 0x38C9 JUMP JUMPDEST SWAP1 POP SWAP2 SWAP1 POP JUMP JUMPDEST PUSH32 0x416C7265616479207369676E656420627920746869732076616C696461746F72 PUSH0 DUP3 ADD MSTORE POP JUMP JUMPDEST PUSH0 PUSH2 0x393D PUSH1 0x20 DUP4 PUSH2 0x2D2E JUMP JUMPDEST SWAP2 POP PUSH2 0x3948 DUP3 PUSH2 0x3909 JUMP JUMPDEST PUSH1 0x20 DUP3 ADD SWAP1 POP SWAP2 SWAP1 POP JUMP JUMPDEST PUSH0 PUSH1 0x20 DUP3 ADD SWAP1 POP DUP2 DUP2 SUB PUSH0 DUP4 ADD MSTORE PUSH2 0x396A DUP2 PUSH2 0x3931 JUMP JUMPDEST SWAP1 POP SWAP2 SWAP1 POP JUMP JUMPDEST PUSH32 0x4E6F74206120637573746F6D2076616C696461746F7220666F72207468697320 PUSH0 DUP3 ADD MSTORE PUSH32 0x4E46540000000000000000000000000000000000000000000000000000000000 PUSH1 0x20 DUP3 ADD MSTORE POP JUMP JUMPDEST PUSH0 PUSH2 0x39CB PUSH1 0x23 DUP4 PUSH2 0x2D2E JUMP JUMPDEST SWAP2 POP PUSH2 0x39D6 DUP3 PUSH2 0x3971 JUMP JUMPDEST PUSH1 0x40 DUP3 ADD SWAP1 POP SWAP2 SWAP1 POP JUMP JUMPDEST PUSH0 PUSH1 0x20 DUP3 ADD SWAP1 POP DUP2 DUP2 SUB PUSH0 DUP4 ADD MSTORE PUSH2 0x39F8 DUP2 PUSH2 0x39BF JUMP JUMPDEST SWAP1 POP SWAP2 SWAP1 POP JUMP JUMPDEST PUSH32 0x4D75737420686176652076616C696461746F7220726F6C650000000000000000 PUSH0 DUP3 ADD MSTORE POP JUMP JUMPDEST PUSH0 PUSH2 0x3A33 PUSH1 0x18 DUP4 PUSH2 0x2D2E JUMP JUMPDEST SWAP2 POP PUSH2 0x3A3E DUP3 PUSH2 0x39FF JUMP JUMPDEST PUSH1 0x20 DUP3 ADD SWAP1 POP SWAP2 SWAP1 POP JUMP JUMPDEST PUSH0 PUSH1 0x20 DUP3 ADD SWAP1 POP DUP2 DUP2 SUB PUSH0 DUP4 ADD MSTORE PUSH2 0x3A60 DUP2 PUSH2 0x3A27 JUMP JUMPDEST SWAP1 POP SWAP2 SWAP1 POP JUMP JUMPDEST PUSH32 0x4E487B7100000000000000000000000000000000000000000000000000000000 PUSH0 MSTORE PUSH1 0x11 PUSH1 0x4 MSTORE PUSH1 0x24 PUSH0 REVERT JUMPDEST PUSH0 PUSH2 0x3A9E DUP3 PUSH2 0x2C13 JUMP JUMPDEST SWAP2 POP PUSH32 0xFFFFFFFFFFFFFFFFFFFFFFFFFFFFFFFFFFFFFFFFFFFFFFFFFFFFFFFFFFFFFFFF DUP3 SUB PUSH2 0x3AD0 JUMPI PUSH2 0x3ACF PUSH2 0x3A67 JUMP JUMPDEST JUMPDEST PUSH1 0x1 DUP3 ADD SWAP1 POP SWAP2 SWAP1 POP JUMP JUMPDEST PUSH0 PUSH1 0x40 DUP3 ADD SWAP1 POP PUSH2 0x3AEE PUSH0 DUP4 ADD DUP6 PUSH2 0x303F JUMP JUMPDEST PUSH2 0x3AFB PUSH1 0x20 DUP4 ADD DUP5 PUSH2 0x2DE4 JUMP JUMPDEST SWAP4 SWAP3 POP POP POP JUMP JUMPDEST PUSH32 0x5265717569726564207369676E617475726573206D7573742062652067726561 PUSH0 DUP3 ADD MSTORE PUSH32 0x746572207468616E203000000000000000000000000000000000000000000000 PUSH1 0x20 DUP3 ADD MSTORE POP JUMP JUMPDEST PUSH0 PUSH2 0x3B5C PUSH1 0x2A DUP4 PUSH2 0x2D2E JUMP JUMPDEST SWAP2 POP PUSH2 0x3B67 DUP3 PUSH2 0x3B02 JUMP JUMPDEST PUSH1 0x40 DUP3 ADD SWAP1 POP SWAP2 SWAP1 POP JUMP JUMPDEST PUSH0 PUSH1 0x20 DUP3 ADD SWAP1 POP DUP2 DUP2 SUB PUSH0 DUP4 ADD MSTORE PUSH2 0x3B89 DUP2 PUSH2 0x3B50 JUMP JUMPDEST SWAP1 POP SWAP2 SWAP1 POP JUMP JUMPDEST PUSH32 0x4E6F7420656E6F75676820637573746F6D2076616C696461746F727300000000 PUSH0 DUP3 ADD MSTORE POP JUMP JUMPDEST PUSH0 PUSH2 0x3BC4 PUSH1 0x1C DUP4 PUSH2 0x2D2E JUMP JUMPDEST SWAP2 POP PUSH2 0x3BCF DUP3 PUSH2 0x3B90 JUMP JUMPDEST PUSH1 0x20 DUP3 ADD SWAP1 POP SWAP2 SWAP1 POP JUMP JUMPDEST PUSH0 PUSH1 0x20 DUP3 ADD SWAP1 POP DUP2 DUP2 SUB PUSH0 DUP4 ADD MSTORE PUSH2 0x3BF1 DUP2 PUSH2 0x3BB8 JUMP JUMPDEST SWAP1 POP SWAP2 SWAP1 POP JUMP JUMPDEST PUSH0 DUP2 SWAP1 POP DUP2 PUSH0 MSTORE PUSH1 0x20 PUSH0 KECCAK256 SWAP1 POP SWAP2 SWAP1 POP JUMP JUMPDEST PUSH0 PUSH1 0x20 PUSH1 0x1F DUP4 ADD DIV SWAP1 POP SWAP2 SWAP1 POP JUMP JUMPDEST PUSH0 DUP3 DUP3 SHL SWAP1 POP SWAP3 SWAP2 POP POP JUMP JUMPDEST PUSH0 PUSH1 0x8 DUP4 MUL PUSH2 0x3C54 PUSH32 0xFFFFFFFFFFFFFFFFFFFFFFFFFFFFFFFFFFFFFFFFFFFFFFFFFFFFFFFFFFFFFFFF DUP3 PUSH2 0x3C19 JUMP JUMPDEST PUSH2 0x3C5E DUP7 DUP4 PUSH2 0x3C19 JUMP JUMPDEST SWAP6 POP DUP1 NOT DUP5 AND SWAP4 POP DUP1 DUP7 AND DUP5 OR SWAP3 POP POP POP SWAP4 SWAP3 POP POP POP JUMP JUMPDEST PUSH0 DUP2 SWAP1 POP SWAP2 SWAP1 POP JUMP JUMPDEST PUSH0 PUSH2 0x3C99 PUSH2 0x3C94 PUSH2 0x3C8F DUP5 PUSH2 0x2C13 JUMP JUMPDEST PUSH2 0x3C76 JUMP JUMPDEST PUSH2 0x2C13 JUMP JUMPDEST SWAP1 POP SWAP2 SWAP1 POP JUMP JUMPDEST PUSH0 DUP2 SWAP1 POP SWAP2 SWAP1 POP JUMP JUMPDEST PUSH2 0x3CB2 DUP4 PUSH2 0x3C7F JUMP JUMPDEST PUSH2 0x3CC6 PUSH2 0x3CBE DUP3 PUSH2 0x3CA0 JUMP JUMPDEST DUP5 DUP5 SLOAD PUSH2 0x3C25 JUMP JUMPDEST DUP3 SSTORE POP POP POP POP JUMP JUMPDEST PUSH0 SWAP1 JUMP JUMPDEST PUSH2 0x3CDA PUSH2 0x3CCE JUMP JUMPDEST PUSH2 0x3CE5 DUP2 DUP5 DUP5 PUSH2 0x3CA9 JUMP JUMPDEST POP POP POP JUMP JUMPDEST JUMPDEST DUP2 DUP2 LT ISZERO PUSH2 0x3D08 JUMPI PUSH2 0x3CFD PUSH0 DUP3 PUSH2 0x3CD2 JUMP JUMPDEST PUSH1 0x1 DUP2 ADD SWAP1 POP PUSH2 0x3CEB JUMP JUMPDEST POP POP JUMP JUMPDEST PUSH1 0x1F DUP3 GT ISZERO PUSH2 0x3D4D JUMPI PUSH2 0x3D1E DUP2 PUSH2 0x3BF8 JUMP JUMPDEST PUSH2 0x3D27 DUP5 PUSH2 0x3C0A JUMP JUMPDEST DUP2 ADD PUSH1 0x20 DUP6 LT ISZERO PUSH2 0x3D36 JUMPI DUP2 SWAP1 POP JUMPDEST PUSH2 0x3D4A PUSH2 0x3D42 DUP6 PUSH2 0x3C0A JUMP JUMPDEST DUP4 ADD DUP3 PUSH2 0x3CEA JUMP JUMPDEST POP POP JUMPDEST POP POP POP JUMP JUMPDEST PUSH0 DUP3 DUP3 SHR SWAP1 POP SWAP3 SWAP2 POP POP JUMP JUMPDEST PUSH0 PUSH2 0x3D6D PUSH0 NOT DUP5 PUSH1 0x8 MUL PUSH2 0x3D52 JUMP JUMPDEST NOT DUP1 DUP4 AND SWAP2 POP POP SWAP3 SWAP2 POP POP JUMP JUMPDEST PUSH0 PUSH2 0x3D85 DUP4 DUP4 PUSH2 0x3D5E JUMP JUMPDEST SWAP2 POP DUP3 PUSH1 0x2 MUL DUP3 OR SWAP1 POP SWAP3 SWAP2 POP POP JUMP JUMPDEST PUSH2 0x3D9E DUP3 PUSH2 0x2D24 JUMP JUMPDEST PUSH8 0xFFFFFFFFFFFFFFFF DUP2 GT ISZERO PUSH2 0x3DB7 JUMPI PUSH2 0x3DB6 PUSH2 0x31F4 JUMP JUMPDEST JUMPDEST PUSH2 0x3DC1 DUP3 SLOAD PUSH2 0x36B0 JUMP JUMPDEST PUSH2 0x3DCC DUP3 DUP3 DUP6 PUSH2 0x3D0C JUMP JUMPDEST PUSH0 PUSH1 0x20 SWAP1 POP PUSH1 0x1F DUP4 GT PUSH1 0x1 DUP2 EQ PUSH2 0x3DFD JUMPI PUSH0 DUP5 ISZERO PUSH2 0x3DEB JUMPI DUP3 DUP8 ADD MLOAD SWAP1 POP JUMPDEST PUSH2 0x3DF5 DUP6 DUP3 PUSH2 0x3D7A JUMP JUMPDEST DUP7 SSTORE POP PUSH2 0x3E5C JUMP JUMPDEST PUSH1 0x1F NOT DUP5 AND PUSH2 0x3E0B DUP7 PUSH2 0x3BF8 JUMP JUMPDEST PUSH0 JUMPDEST DUP3 DUP2 LT ISZERO PUSH2 0x3E32 JUMPI DUP5 DUP10 ADD MLOAD DUP3 SSTORE PUSH1 0x1 DUP3 ADD SWAP2 POP PUSH1 0x20 DUP6 ADD SWAP5 POP PUSH1 0x20 DUP2 ADD SWAP1 POP PUSH2 0x3E0D JUMP JUMPDEST DUP7 DUP4 LT ISZERO PUSH2 0x3E4F JUMPI DUP5 DUP10 ADD MLOAD PUSH2 0x3E4B PUSH1 0x1F DUP10 AND DUP3 PUSH2 0x3D5E JUMP JUMPDEST DUP4 SSTORE POP JUMPDEST PUSH1 0x1 PUSH1 0x2 DUP9 MUL ADD DUP9 SSTORE POP POP POP JUMPDEST POP POP POP POP POP POP JUMP JUMPDEST PUSH0 PUSH1 0xC0 DUP3 ADD SWAP1 POP PUSH2 0x3E77 PUSH0 DUP4 ADD DUP10 PUSH2 0x303F JUMP JUMPDEST PUSH2 0x3E84 PUSH1 0x20 DUP4 ADD DUP9 PUSH2 0x2DE4 JUMP JUMPDEST DUP2 DUP2 SUB PUSH1 0x40 DUP4 ADD MSTORE PUSH2 0x3E96 DUP2 DUP8 PUSH2 0x2D5C JUMP JUMPDEST SWAP1 POP PUSH2 0x3EA5 PUSH1 0x60 DUP4 ADD DUP7 PUSH2 0x2C7C JUMP JUMPDEST PUSH2 0x3EB2 PUSH1 0x80 DUP4 ADD DUP6 PUSH2 0x303F JUMP JUMPDEST PUSH2 0x3EBF PUSH1 0xA0 DUP4 ADD DUP5 PUSH2 0x2FAE JUMP JUMPDEST SWAP8 SWAP7 POP POP POP POP POP POP POP JUMP JUMPDEST PUSH32 0x4E4654206E6F74207965742076616C6964617465640000000000000000000000 PUSH0 DUP3 ADD MSTORE POP JUMP JUMPDEST PUSH0 PUSH2 0x3EFE PUSH1 0x15 DUP4 PUSH2 0x2D2E JUMP JUMPDEST SWAP2 POP PUSH2 0x3F09 DUP3 PUSH2 0x3ECA JUMP JUMPDEST PUSH1 0x20 DUP3 ADD SWAP1 POP SWAP2 SWAP1 POP JUMP JUMPDEST PUSH0 PUSH1 0x20 DUP3 ADD SWAP1 POP DUP2 DUP2 SUB PUSH0 DUP4 ADD MSTORE PUSH2 0x3F2B DUP2 PUSH2 0x3EF2 JUMP JUMPDEST SWAP1 POP SWAP2 SWAP1 POP JUMP JUMPDEST PUSH32 0x4E465420616C726561647920636C61696D656400000000000000000000000000 PUSH0 DUP3 ADD MSTORE POP JUMP JUMPDEST PUSH0 PUSH2 0x3F66 PUSH1 0x13 DUP4 PUSH2 0x2D2E JUMP JUMPDEST SWAP2 POP PUSH2 0x3F71 DUP3 PUSH2 0x3F32 JUMP JUMPDEST PUSH1 0x20 DUP3 ADD SWAP1 POP SWAP2 SWAP1 POP JUMP JUMPDEST PUSH0 PUSH1 0x20 DUP3 ADD SWAP1 POP DUP2 DUP2 SUB PUSH0 DUP4 ADD MSTORE PUSH2 0x3F93 DUP2 PUSH2 0x3F5A JUMP JUMPDEST SWAP1 POP SWAP2 SWAP1 POP JUMP JUMPDEST PUSH32 0x4F6E6C792064657369676E6174656420726563697069656E742063616E20636C PUSH0 DUP3 ADD MSTORE PUSH32 0x61696D0000000000000000000000000000000000000000000000000000000000 PUSH1 0x20 DUP3 ADD MSTORE POP JUMP JUMPDEST PUSH0 PUSH2 0x3FF4 PUSH1 0x23 DUP4 PUSH2 0x2D2E JUMP JUMPDEST SWAP2 POP PUSH2 0x3FFF DUP3 PUSH2 0x3F9A JUMP JUMPDEST PUSH1 0x40 DUP3 ADD SWAP1 POP SWAP2 SWAP1 POP JUMP JUMPDEST PUSH0 PUSH1 0x20 DUP3 ADD SWAP1 POP DUP2 DUP2 SUB PUSH0 DUP4 ADD MSTORE PUSH2 0x4021 DUP2 PUSH2 0x3FE8 JUMP JUMPDEST SWAP1 POP SWAP2 SWAP1 POP JUMP JUMPDEST PUSH32 0x4E4654206973206E6F7420636C61696D61626C65000000000000000000000000 PUSH0 DUP3 ADD MSTORE POP JUMP JUMPDEST PUSH0 PUSH2 0x405C PUSH1 0x14 DUP4 PUSH2 0x2D2E JUMP JUMPDEST SWAP2 POP PUSH2 0x4067 DUP3 PUSH2 0x4028 JUMP JUMPDEST PUSH1 0x20 DUP3 ADD SWAP1 POP SWAP2 SWAP1 POP JUMP JUMPDEST PUSH0 PUSH1 0x20 DUP3 ADD SWAP1 POP DUP2 DUP2 SUB PUSH0 DUP4 ADD MSTORE PUSH2 0x4089 DUP2 PUSH2 0x4050 JUMP JUMPDEST SWAP1 POP SWAP2 SWAP1 POP JUMP JUMPDEST PUSH0 DUP2 MLOAD SWAP1 POP SWAP2 SWAP1 POP JUMP JUMPDEST PUSH0 DUP3 DUP3 MSTORE PUSH1 0x20 DUP3 ADD SWAP1 POP SWAP3 SWAP2 POP POP JUMP JUMPDEST PUSH0 PUSH2 0x40B4 DUP3 PUSH2 0x4090 JUMP JUMPDEST PUSH2 0x40BE DUP2 DUP6 PUSH2 0x409A JUMP JUMPDEST SWAP4 POP PUSH2 0x40CE DUP2 DUP6 PUSH1 0x20 DUP7 ADD PUSH2 0x2D3E JUMP JUMPDEST PUSH2 0x40D7 DUP2 PUSH2 0x2D4C JUMP JUMPDEST DUP5 ADD SWAP2 POP POP SWAP3 SWAP2 POP POP JUMP JUMPDEST PUSH0 PUSH1 0x80 DUP3 ADD SWAP1 POP PUSH2 0x40F5 PUSH0 DUP4 ADD DUP8 PUSH2 0x2DE4 JUMP JUMPDEST PUSH2 0x4102 PUSH1 0x20 DUP4 ADD DUP7 PUSH2 0x2DE4 JUMP JUMPDEST PUSH2 0x410F PUSH1 0x40 DUP4 ADD DUP6 PUSH2 0x303F JUMP JUMPDEST DUP2 DUP2 SUB PUSH1 0x60 DUP4 ADD MSTORE PUSH2 0x4121 DUP2 DUP5 PUSH2 0x40AA JUMP JUMPDEST SWAP1 POP SWAP6 SWAP5 POP POP POP POP POP JUMP JUMPDEST PUSH0 DUP2 MLOAD SWAP1 POP PUSH2 0x413A DUP2 PUSH2 0x2CCF JUMP JUMPDEST SWAP3 SWAP2 POP POP JUMP JUMPDEST PUSH0 PUSH1 0x20 DUP3 DUP5 SUB SLT ISZERO PUSH2 0x4155 JUMPI PUSH2 0x4154 PUSH2 0x2C0B JUMP JUMPDEST JUMPDEST PUSH0 PUSH2 0x4162 DUP5 DUP3 DUP6 ADD PUSH2 0x412C JUMP JUMPDEST SWAP2 POP POP SWAP3 SWAP2 POP POP JUMP JUMPDEST PUSH0 PUSH1 0x40 DUP3 ADD SWAP1 POP PUSH2 0x417E PUSH0 DUP4 ADD DUP6 PUSH2 0x2DE4 JUMP JUMPDEST PUSH2 0x418B PUSH1 0x20 DUP4 ADD DUP5 PUSH2 0x303F JUMP JUMPDEST SWAP4 SWAP3 POP POP POP JUMP JUMPDEST PUSH0 PUSH1 0x40 DUP3 ADD SWAP1 POP PUSH2 0x41A5 PUSH0 DUP4 ADD DUP6 PUSH2 0x2DE4 JUMP JUMPDEST PUSH2 0x41B2 PUSH1 0x20 DUP4 ADD DUP5 PUSH2 0x2F22 JUMP JUMPDEST SWAP4 SWAP3 POP POP POP JUMP INVALID LOG2 PUSH5 0x6970667358 0x22 SLT KECCAK256 PUSH10 0x765007A2BC862CD97F07 0xDF PUSH24 0x8A8BAC0F988420E7ADF8D3A3568781D6F1319064736F6C63 NUMBER STOP ADDMOD BYTE STOP CALLER "
		},
		"gasEstimates": {
			"creation": {
				"codeDepositCost": "3375800",
				"executionCost": "infinite",
				"totalCost": "infinite"
			},
			"external": {
				"ADMIN_ROLE()": "436",
				"DEFAULT_ADMIN_ROLE()": "441",
				"MINTER_ROLE()": "436",
				"VALIDATOR_ROLE()": "392",
				"addMinter(address)": "infinite",
				"approve(address,uint256)": "infinite",
				"balanceOf(address)": "infinite",
				"claimNFT(uint256)": "infinite",
				"createNFT(address,string,uint256,bool,address[],bool,uint256,uint8)": "infinite",
				"getApproved(uint256)": "infinite",
				"getNFTMintType(uint256)": "infinite",
				"getNFTPrice(uint256)": "infinite",
				"getRoleAdmin(bytes32)": "infinite",
				"getSignatureCount(uint256)": "infinite",
				"grantRole(bytes32,address)": "infinite",
				"hasRole(bytes32,address)": "3234",
				"isApprovedForAll(address,address)": "infinite",
				"isCustomValidator(uint256,address)": "infinite",
				"isNFTClaimed(uint256)": "2928",
				"isNFTValid(uint256)": "2926",
				"isPFPNFT(uint256)": "2861",
				"name()": "infinite",
				"nftData(uint256)": "infinite",
				"ownerOf(uint256)": "infinite",
				"removeMinter(address)": "infinite",
				"renounceRole(bytes32,address)": "infinite",
				"revokeRole(bytes32,address)": "infinite",
				"safeTransferFrom(address,address,uint256)": "infinite",
				"safeTransferFrom(address,address,uint256,bytes)": "infinite",
				"setApprovalForAll(address,bool)": "infinite",
				"signNFT(uint256)": "infinite",
				"supportsInterface(bytes4)": "962",
				"symbol()": "infinite",
				"tokenExists(uint256)": "infinite",
				"tokenURI(uint256)": "infinite",
				"transferFrom(address,address,uint256)": "infinite",
				"updatePrice(uint256,uint256)": "infinite"
			}
		},
		"methodIdentifiers": {
			"ADMIN_ROLE()": "75b238fc",
			"DEFAULT_ADMIN_ROLE()": "a217fddf",
			"MINTER_ROLE()": "d5391393",
			"VALIDATOR_ROLE()": "c49baebe",
			"addMinter(address)": "983b2d56",
			"approve(address,uint256)": "095ea7b3",
			"balanceOf(address)": "70a08231",
			"claimNFT(uint256)": "fe5c873a",
			"createNFT(address,string,uint256,bool,address[],bool,uint256,uint8)": "f8b20e3e",
			"getApproved(uint256)": "081812fc",
			"getNFTMintType(uint256)": "2b093f95",
			"getNFTPrice(uint256)": "92976179",
			"getRoleAdmin(bytes32)": "248a9ca3",
			"getSignatureCount(uint256)": "7743007d",
			"grantRole(bytes32,address)": "2f2ff15d",
			"hasRole(bytes32,address)": "91d14854",
			"isApprovedForAll(address,address)": "e985e9c5",
			"isCustomValidator(uint256,address)": "8becf2b4",
			"isNFTClaimed(uint256)": "51cf04b8",
			"isNFTValid(uint256)": "fb14c442",
			"isPFPNFT(uint256)": "56ab1bac",
			"name()": "06fdde03",
			"nftData(uint256)": "8c210975",
			"ownerOf(uint256)": "6352211e",
			"removeMinter(address)": "3092afd5",
			"renounceRole(bytes32,address)": "36568abe",
			"revokeRole(bytes32,address)": "d547741f",
			"safeTransferFrom(address,address,uint256)": "42842e0e",
			"safeTransferFrom(address,address,uint256,bytes)": "b88d4fde",
			"setApprovalForAll(address,bool)": "a22cb465",
			"signNFT(uint256)": "df4596cd",
			"supportsInterface(bytes4)": "01ffc9a7",
			"symbol()": "95d89b41",
			"tokenExists(uint256)": "00923f9e",
			"tokenURI(uint256)": "c87b56dd",
			"transferFrom(address,address,uint256)": "23b872dd",
			"updatePrice(uint256,uint256)": "82367b2d"
		}
	},
	"abi": [
		{
			"inputs": [
				{
					"internalType": "string",
					"name": "name",
					"type": "string"
				},
				{
					"internalType": "string",
					"name": "symbol",
					"type": "string"
				}
			],
			"stateMutability": "nonpayable",
			"type": "constructor"
		},
		{
			"inputs": [],
			"name": "AccessControlBadConfirmation",
			"type": "error"
		},
		{
			"inputs": [
				{
					"internalType": "address",
					"name": "account",
					"type": "address"
				},
				{
					"internalType": "bytes32",
					"name": "neededRole",
					"type": "bytes32"
				}
			],
			"name": "AccessControlUnauthorizedAccount",
			"type": "error"
		},
		{
			"inputs": [
				{
					"internalType": "address",
					"name": "sender",
					"type": "address"
				},
				{
					"internalType": "uint256",
					"name": "tokenId",
					"type": "uint256"
				},
				{
					"internalType": "address",
					"name": "owner",
					"type": "address"
				}
			],
			"name": "ERC721IncorrectOwner",
			"type": "error"
		},
		{
			"inputs": [
				{
					"internalType": "address",
					"name": "operator",
					"type": "address"
				},
				{
					"internalType": "uint256",
					"name": "tokenId",
					"type": "uint256"
				}
			],
			"name": "ERC721InsufficientApproval",
			"type": "error"
		},
		{
			"inputs": [
				{
					"internalType": "address",
					"name": "approver",
					"type": "address"
				}
			],
			"name": "ERC721InvalidApprover",
			"type": "error"
		},
		{
			"inputs": [
				{
					"internalType": "address",
					"name": "operator",
					"type": "address"
				}
			],
			"name": "ERC721InvalidOperator",
			"type": "error"
		},
		{
			"inputs": [
				{
					"internalType": "address",
					"name": "owner",
					"type": "address"
				}
			],
			"name": "ERC721InvalidOwner",
			"type": "error"
		},
		{
			"inputs": [
				{
					"internalType": "address",
					"name": "receiver",
					"type": "address"
				}
			],
			"name": "ERC721InvalidReceiver",
			"type": "error"
		},
		{
			"inputs": [
				{
					"internalType": "address",
					"name": "sender",
					"type": "address"
				}
			],
			"name": "ERC721InvalidSender",
			"type": "error"
		},
		{
			"inputs": [
				{
					"internalType": "uint256",
					"name": "tokenId",
					"type": "uint256"
				}
			],
			"name": "ERC721NonexistentToken",
			"type": "error"
		},
		{
			"anonymous": false,
			"inputs": [
				{
					"indexed": true,
					"internalType": "address",
					"name": "owner",
					"type": "address"
				},
				{
					"indexed": true,
					"internalType": "address",
					"name": "approved",
					"type": "address"
				},
				{
					"indexed": true,
					"internalType": "uint256",
					"name": "tokenId",
					"type": "uint256"
				}
			],
			"name": "Approval",
			"type": "event"
		},
		{
			"anonymous": false,
			"inputs": [
				{
					"indexed": true,
					"internalType": "address",
					"name": "owner",
					"type": "address"
				},
				{
					"indexed": true,
					"internalType": "address",
					"name": "operator",
					"type": "address"
				},
				{
					"indexed": false,
					"internalType": "bool",
					"name": "approved",
					"type": "bool"
				}
			],
			"name": "ApprovalForAll",
			"type": "event"
		},
		{
			"anonymous": false,
			"inputs": [
				{
					"indexed": false,
					"internalType": "uint256",
					"name": "tokenId",
					"type": "uint256"
				},
				{
					"indexed": false,
					"internalType": "address",
					"name": "recipient",
					"type": "address"
				}
			],
			"name": "NFTClaimed",
			"type": "event"
		},
		{
			"anonymous": false,
			"inputs": [
				{
					"indexed": false,
					"internalType": "uint256",
					"name": "tokenId",
					"type": "uint256"
				},
				{
					"indexed": false,
					"internalType": "address",
					"name": "recipient",
					"type": "address"
				},
				{
					"indexed": false,
					"internalType": "string",
					"name": "metadataURI",
					"type": "string"
				},
				{
					"indexed": false,
					"internalType": "bool",
					"name": "isPFP",
					"type": "bool"
				},
				{
					"indexed": false,
					"internalType": "uint256",
					"name": "price",
					"type": "uint256"
				},
				{
					"indexed": false,
					"internalType": "enum MultiSigNFT.MintType",
					"name": "mintType",
					"type": "uint8"
				}
			],
			"name": "NFTCreated",
			"type": "event"
		},
		{
			"anonymous": false,
			"inputs": [
				{
					"indexed": false,
					"internalType": "uint256",
					"name": "tokenId",
					"type": "uint256"
				},
				{
					"indexed": false,
					"internalType": "address",
					"name": "signer",
					"type": "address"
				}
			],
			"name": "NFTSigned",
			"type": "event"
		},
		{
			"anonymous": false,
			"inputs": [
				{
					"indexed": false,
					"internalType": "uint256",
					"name": "tokenId",
					"type": "uint256"
				}
			],
			"name": "NFTValidated",
			"type": "event"
		},
		{
			"anonymous": false,
			"inputs": [
				{
					"indexed": false,
					"internalType": "uint256",
					"name": "tokenId",
					"type": "uint256"
				},
				{
					"indexed": false,
					"internalType": "uint256",
					"name": "newPrice",
					"type": "uint256"
				}
			],
			"name": "PriceUpdated",
			"type": "event"
		},
		{
			"anonymous": false,
			"inputs": [
				{
					"indexed": true,
					"internalType": "bytes32",
					"name": "role",
					"type": "bytes32"
				},
				{
					"indexed": true,
					"internalType": "bytes32",
					"name": "previousAdminRole",
					"type": "bytes32"
				},
				{
					"indexed": true,
					"internalType": "bytes32",
					"name": "newAdminRole",
					"type": "bytes32"
				}
			],
			"name": "RoleAdminChanged",
			"type": "event"
		},
		{
			"anonymous": false,
			"inputs": [
				{
					"indexed": true,
					"internalType": "bytes32",
					"name": "role",
					"type": "bytes32"
				},
				{
					"indexed": true,
					"internalType": "address",
					"name": "account",
					"type": "address"
				},
				{
					"indexed": true,
					"internalType": "address",
					"name": "sender",
					"type": "address"
				}
			],
			"name": "RoleGranted",
			"type": "event"
		},
		{
			"anonymous": false,
			"inputs": [
				{
					"indexed": true,
					"internalType": "bytes32",
					"name": "role",
					"type": "bytes32"
				},
				{
					"indexed": true,
					"internalType": "address",
					"name": "account",
					"type": "address"
				},
				{
					"indexed": true,
					"internalType": "address",
					"name": "sender",
					"type": "address"
				}
			],
			"name": "RoleRevoked",
			"type": "event"
		},
		{
			"anonymous": false,
			"inputs": [
				{
					"indexed": true,
					"internalType": "address",
					"name": "from",
					"type": "address"
				},
				{
					"indexed": true,
					"internalType": "address",
					"name": "to",
					"type": "address"
				},
				{
					"indexed": true,
					"internalType": "uint256",
					"name": "tokenId",
					"type": "uint256"
				}
			],
			"name": "Transfer",
			"type": "event"
		},
		{
			"inputs": [],
			"name": "ADMIN_ROLE",
			"outputs": [
				{
					"internalType": "bytes32",
					"name": "",
					"type": "bytes32"
				}
			],
			"stateMutability": "view",
			"type": "function"
		},
		{
			"inputs": [],
			"name": "DEFAULT_ADMIN_ROLE",
			"outputs": [
				{
					"internalType": "bytes32",
					"name": "",
					"type": "bytes32"
				}
			],
			"stateMutability": "view",
			"type": "function"
		},
		{
			"inputs": [],
			"name": "MINTER_ROLE",
			"outputs": [
				{
					"internalType": "bytes32",
					"name": "",
					"type": "bytes32"
				}
			],
			"stateMutability": "view",
			"type": "function"
		},
		{
			"inputs": [],
			"name": "VALIDATOR_ROLE",
			"outputs": [
				{
					"internalType": "bytes32",
					"name": "",
					"type": "bytes32"
				}
			],
			"stateMutability": "view",
			"type": "function"
		},
		{
			"inputs": [
				{
					"internalType": "address",
					"name": "minter",
					"type": "address"
				}
			],
			"name": "addMinter",
			"outputs": [],
			"stateMutability": "nonpayable",
			"type": "function"
		},
		{
			"inputs": [
				{
					"internalType": "address",
					"name": "to",
					"type": "address"
				},
				{
					"internalType": "uint256",
					"name": "tokenId",
					"type": "uint256"
				}
			],
			"name": "approve",
			"outputs": [],
			"stateMutability": "nonpayable",
			"type": "function"
		},
		{
			"inputs": [
				{
					"internalType": "address",
					"name": "owner",
					"type": "address"
				}
			],
			"name": "balanceOf",
			"outputs": [
				{
					"internalType": "uint256",
					"name": "",
					"type": "uint256"
				}
			],
			"stateMutability": "view",
			"type": "function"
		},
		{
			"inputs": [
				{
					"internalType": "uint256",
					"name": "tokenId",
					"type": "uint256"
				}
			],
			"name": "claimNFT",
			"outputs": [],
			"stateMutability": "nonpayable",
			"type": "function"
		},
		{
			"inputs": [
				{
					"internalType": "address",
					"name": "recipient",
					"type": "address"
				},
				{
					"internalType": "string",
					"name": "metadataURI",
					"type": "string"
				},
				{
					"internalType": "uint256",
					"name": "requiredSignatures",
					"type": "uint256"
				},
				{
					"internalType": "bool",
					"name": "useCustomValidators",
					"type": "bool"
				},
				{
					"internalType": "address[]",
					"name": "customValidators",
					"type": "address[]"
				},
				{
					"internalType": "bool",
					"name": "isPFP",
					"type": "bool"
				},
				{
					"internalType": "uint256",
					"name": "price",
					"type": "uint256"
				},
				{
					"internalType": "enum MultiSigNFT.MintType",
					"name": "mintType",
					"type": "uint8"
				}
			],
			"name": "createNFT",
			"outputs": [
				{
					"internalType": "uint256",
					"name": "",
					"type": "uint256"
				}
			],
			"stateMutability": "nonpayable",
			"type": "function"
		},
		{
			"inputs": [
				{
					"internalType": "uint256",
					"name": "tokenId",
					"type": "uint256"
				}
			],
			"name": "getApproved",
			"outputs": [
				{
					"internalType": "address",
					"name": "",
					"type": "address"
				}
			],
			"stateMutability": "view",
			"type": "function"
		},
		{
			"inputs": [
				{
					"internalType": "uint256",
					"name": "tokenId",
					"type": "uint256"
				}
			],
			"name": "getNFTMintType",
			"outputs": [
				{
					"internalType": "enum MultiSigNFT.MintType",
					"name": "",
					"type": "uint8"
				}
			],
			"stateMutability": "view",
			"type": "function"
		},
		{
			"inputs": [
				{
					"internalType": "uint256",
					"name": "tokenId",
					"type": "uint256"
				}
			],
			"name": "getNFTPrice",
			"outputs": [
				{
					"internalType": "uint256",
					"name": "",
					"type": "uint256"
				}
			],
			"stateMutability": "view",
			"type": "function"
		},
		{
			"inputs": [
				{
					"internalType": "bytes32",
					"name": "role",
					"type": "bytes32"
				}
			],
			"name": "getRoleAdmin",
			"outputs": [
				{
					"internalType": "bytes32",
					"name": "",
					"type": "bytes32"
				}
			],
			"stateMutability": "view",
			"type": "function"
		},
		{
			"inputs": [
				{
					"internalType": "uint256",
					"name": "tokenId",
					"type": "uint256"
				}
			],
			"name": "getSignatureCount",
			"outputs": [
				{
					"internalType": "uint256",
					"name": "",
					"type": "uint256"
				}
			],
			"stateMutability": "view",
			"type": "function"
		},
		{
			"inputs": [
				{
					"internalType": "bytes32",
					"name": "role",
					"type": "bytes32"
				},
				{
					"internalType": "address",
					"name": "account",
					"type": "address"
				}
			],
			"name": "grantRole",
			"outputs": [],
			"stateMutability": "nonpayable",
			"type": "function"
		},
		{
			"inputs": [
				{
					"internalType": "bytes32",
					"name": "role",
					"type": "bytes32"
				},
				{
					"internalType": "address",
					"name": "account",
					"type": "address"
				}
			],
			"name": "hasRole",
			"outputs": [
				{
					"internalType": "bool",
					"name": "",
					"type": "bool"
				}
			],
			"stateMutability": "view",
			"type": "function"
		},
		{
			"inputs": [
				{
					"internalType": "address",
					"name": "owner",
					"type": "address"
				},
				{
					"internalType": "address",
					"name": "operator",
					"type": "address"
				}
			],
			"name": "isApprovedForAll",
			"outputs": [
				{
					"internalType": "bool",
					"name": "",
					"type": "bool"
				}
			],
			"stateMutability": "view",
			"type": "function"
		},
		{
			"inputs": [
				{
					"internalType": "uint256",
					"name": "tokenId",
					"type": "uint256"
				},
				{
					"internalType": "address",
					"name": "validator",
					"type": "address"
				}
			],
			"name": "isCustomValidator",
			"outputs": [
				{
					"internalType": "bool",
					"name": "",
					"type": "bool"
				}
			],
			"stateMutability": "view",
			"type": "function"
		},
		{
			"inputs": [
				{
					"internalType": "uint256",
					"name": "tokenId",
					"type": "uint256"
				}
			],
			"name": "isNFTClaimed",
			"outputs": [
				{
					"internalType": "bool",
					"name": "",
					"type": "bool"
				}
			],
			"stateMutability": "view",
			"type": "function"
		},
		{
			"inputs": [
				{
					"internalType": "uint256",
					"name": "tokenId",
					"type": "uint256"
				}
			],
			"name": "isNFTValid",
			"outputs": [
				{
					"internalType": "bool",
					"name": "",
					"type": "bool"
				}
			],
			"stateMutability": "view",
			"type": "function"
		},
		{
			"inputs": [
				{
					"internalType": "uint256",
					"name": "tokenId",
					"type": "uint256"
				}
			],
			"name": "isPFPNFT",
			"outputs": [
				{
					"internalType": "bool",
					"name": "",
					"type": "bool"
				}
			],
			"stateMutability": "view",
			"type": "function"
		},
		{
			"inputs": [],
			"name": "name",
			"outputs": [
				{
					"internalType": "string",
					"name": "",
					"type": "string"
				}
			],
			"stateMutability": "view",
			"type": "function"
		},
		{
			"inputs": [
				{
					"internalType": "uint256",
					"name": "",
					"type": "uint256"
				}
			],
			"name": "nftData",
			"outputs": [
				{
					"internalType": "string",
					"name": "metadataURI",
					"type": "string"
				},
				{
					"internalType": "address",
					"name": "recipient",
					"type": "address"
				},
				{
					"internalType": "uint256",
					"name": "requiredSignatures",
					"type": "uint256"
				},
				{
					"internalType": "bool",
					"name": "isValid",
					"type": "bool"
				},
				{
					"internalType": "uint256",
					"name": "signatureCount",
					"type": "uint256"
				},
				{
					"internalType": "bool",
					"name": "useCustomValidators",
					"type": "bool"
				},
				{
					"internalType": "bool",
					"name": "isPFP",
					"type": "bool"
				},
				{
					"internalType": "uint256",
					"name": "price",
					"type": "uint256"
				},
				{
					"internalType": "bool",
					"name": "isClaimed",
					"type": "bool"
				},
				{
					"internalType": "enum MultiSigNFT.MintType",
					"name": "mintType",
					"type": "uint8"
				}
			],
			"stateMutability": "view",
			"type": "function"
		},
		{
			"inputs": [
				{
					"internalType": "uint256",
					"name": "tokenId",
					"type": "uint256"
				}
			],
			"name": "ownerOf",
			"outputs": [
				{
					"internalType": "address",
					"name": "",
					"type": "address"
				}
			],
			"stateMutability": "view",
			"type": "function"
		},
		{
			"inputs": [
				{
					"internalType": "address",
					"name": "minter",
					"type": "address"
				}
			],
			"name": "removeMinter",
			"outputs": [],
			"stateMutability": "nonpayable",
			"type": "function"
		},
		{
			"inputs": [
				{
					"internalType": "bytes32",
					"name": "role",
					"type": "bytes32"
				},
				{
					"internalType": "address",
					"name": "callerConfirmation",
					"type": "address"
				}
			],
			"name": "renounceRole",
			"outputs": [],
			"stateMutability": "nonpayable",
			"type": "function"
		},
		{
			"inputs": [
				{
					"internalType": "bytes32",
					"name": "role",
					"type": "bytes32"
				},
				{
					"internalType": "address",
					"name": "account",
					"type": "address"
				}
			],
			"name": "revokeRole",
			"outputs": [],
			"stateMutability": "nonpayable",
			"type": "function"
		},
		{
			"inputs": [
				{
					"internalType": "address",
					"name": "from",
					"type": "address"
				},
				{
					"internalType": "address",
					"name": "to",
					"type": "address"
				},
				{
					"internalType": "uint256",
					"name": "tokenId",
					"type": "uint256"
				}
			],
			"name": "safeTransferFrom",
			"outputs": [],
			"stateMutability": "nonpayable",
			"type": "function"
		},
		{
			"inputs": [
				{
					"internalType": "address",
					"name": "from",
					"type": "address"
				},
				{
					"internalType": "address",
					"name": "to",
					"type": "address"
				},
				{
					"internalType": "uint256",
					"name": "tokenId",
					"type": "uint256"
				},
				{
					"internalType": "bytes",
					"name": "data",
					"type": "bytes"
				}
			],
			"name": "safeTransferFrom",
			"outputs": [],
			"stateMutability": "nonpayable",
			"type": "function"
		},
		{
			"inputs": [
				{
					"internalType": "address",
					"name": "operator",
					"type": "address"
				},
				{
					"internalType": "bool",
					"name": "approved",
					"type": "bool"
				}
			],
			"name": "setApprovalForAll",
			"outputs": [],
			"stateMutability": "nonpayable",
			"type": "function"
		},
		{
			"inputs": [
				{
					"internalType": "uint256",
					"name": "tokenId",
					"type": "uint256"
				}
			],
			"name": "signNFT",
			"outputs": [],
			"stateMutability": "nonpayable",
			"type": "function"
		},
		{
			"inputs": [
				{
					"internalType": "bytes4",
					"name": "interfaceId",
					"type": "bytes4"
				}
			],
			"name": "supportsInterface",
			"outputs": [
				{
					"internalType": "bool",
					"name": "",
					"type": "bool"
				}
			],
			"stateMutability": "view",
			"type": "function"
		},
		{
			"inputs": [],
			"name": "symbol",
			"outputs": [
				{
					"internalType": "string",
					"name": "",
					"type": "string"
				}
			],
			"stateMutability": "view",
			"type": "function"
		},
		{
			"inputs": [
				{
					"internalType": "uint256",
					"name": "tokenId",
					"type": "uint256"
				}
			],
			"name": "tokenExists",
			"outputs": [
				{
					"internalType": "bool",
					"name": "",
					"type": "bool"
				}
			],
			"stateMutability": "view",
			"type": "function"
		},
		{
			"inputs": [
				{
					"internalType": "uint256",
					"name": "tokenId",
					"type": "uint256"
				}
			],
			"name": "tokenURI",
			"outputs": [
				{
					"internalType": "string",
					"name": "",
					"type": "string"
				}
			],
			"stateMutability": "view",
			"type": "function"
		},
		{
			"inputs": [
				{
					"internalType": "address",
					"name": "from",
					"type": "address"
				},
				{
					"internalType": "address",
					"name": "to",
					"type": "address"
				},
				{
					"internalType": "uint256",
					"name": "tokenId",
					"type": "uint256"
				}
			],
			"name": "transferFrom",
			"outputs": [],
			"stateMutability": "nonpayable",
			"type": "function"
		},
		{
			"inputs": [
				{
					"internalType": "uint256",
					"name": "tokenId",
					"type": "uint256"
				},
				{
					"internalType": "uint256",
					"name": "newPrice",
					"type": "uint256"
				}
			],
			"name": "updatePrice",
			"outputs": [],
			"stateMutability": "nonpayable",
			"type": "function"
		}
	]
}